{"abi":[{"type":"constructor","inputs":[{"name":"_verifier","type":"address","internalType":"address"},{"name":"_dkimRegistry","type":"address","internalType":"address"},{"name":"_emailAuthImpl","type":"address","internalType":"address"}],"stateMutability":"nonpayable"},{"type":"function","name":"acceptanceSubjectTemplates","inputs":[],"outputs":[{"name":"","type":"string[][]","internalType":"string[][]"}],"stateMutability":"pure"},{"type":"function","name":"cancelRecovery","inputs":[],"outputs":[],"stateMutability":"nonpayable"},{"type":"function","name":"completeRecovery","inputs":[],"outputs":[],"stateMutability":"nonpayable"},{"type":"function","name":"computeAcceptanceTemplateId","inputs":[{"name":"templateIdx","type":"uint256","internalType":"uint256"}],"outputs":[{"name":"","type":"uint256","internalType":"uint256"}],"stateMutability":"pure"},{"type":"function","name":"computeEmailAuthAddress","inputs":[{"name":"accountSalt","type":"bytes32","internalType":"bytes32"}],"outputs":[{"name":"","type":"address","internalType":"address"}],"stateMutability":"view"},{"type":"function","name":"computeRecoveryTemplateId","inputs":[{"name":"templateIdx","type":"uint256","internalType":"uint256"}],"outputs":[{"name":"","type":"uint256","internalType":"uint256"}],"stateMutability":"pure"},{"type":"function","name":"configureRecovery","inputs":[{"name":"owner","type":"address","internalType":"address"},{"name":"guardian","type":"address","internalType":"address"},{"name":"customDelay","type":"uint256","internalType":"uint256"}],"outputs":[],"stateMutability":"nonpayable"},{"type":"function","name":"defaultDelay","inputs":[],"outputs":[{"name":"","type":"uint256","internalType":"uint256"}],"stateMutability":"view"},{"type":"function","name":"dkim","inputs":[],"outputs":[{"name":"","type":"address","internalType":"address"}],"stateMutability":"view"},{"type":"function","name":"dkimAddr","inputs":[],"outputs":[{"name":"","type":"address","internalType":"address"}],"stateMutability":"view"},{"type":"function","name":"emailAuthImplementation","inputs":[],"outputs":[{"name":"","type":"address","internalType":"address"}],"stateMutability":"view"},{"type":"function","name":"emailAuthImplementationAddr","inputs":[],"outputs":[{"name":"","type":"address","internalType":"address"}],"stateMutability":"view"},{"type":"function","name":"getRecoveryRequest","inputs":[{"name":"safe","type":"address","internalType":"address"}],"outputs":[{"name":"","type":"tuple","internalType":"struct RecoveryRequest","components":[{"name":"guardian","type":"address","internalType":"address"},{"name":"executeAfter","type":"uint256","internalType":"uint256"},{"name":"ownerToSwap","type":"address","internalType":"address"},{"name":"pendingNewOwner","type":"address","internalType":"address"},{"name":"delay","type":"uint256","internalType":"uint256"}]}],"stateMutability":"view"},{"type":"function","name":"guardianRequests","inputs":[{"name":"","type":"address","internalType":"address"}],"outputs":[{"name":"safe","type":"address","internalType":"address"},{"name":"accepted","type":"bool","internalType":"bool"}],"stateMutability":"view"},{"type":"function","name":"handleAcceptance","inputs":[{"name":"emailAuthMsg","type":"tuple","internalType":"struct EmailAuthMsg","components":[{"name":"templateId","type":"uint256","internalType":"uint256"},{"name":"subjectParams","type":"bytes[]","internalType":"bytes[]"},{"name":"skipedSubjectPrefix","type":"uint256","internalType":"uint256"},{"name":"proof","type":"tuple","internalType":"struct EmailProof","components":[{"name":"domainName","type":"string","internalType":"string"},{"name":"publicKeyHash","type":"bytes32","internalType":"bytes32"},{"name":"timestamp","type":"uint256","internalType":"uint256"},{"name":"maskedSubject","type":"string","internalType":"string"},{"name":"emailNullifier","type":"bytes32","internalType":"bytes32"},{"name":"accountSalt","type":"bytes32","internalType":"bytes32"},{"name":"isCodeExist","type":"bool","internalType":"bool"},{"name":"proof","type":"bytes","internalType":"bytes"}]}]},{"name":"templateIdx","type":"uint256","internalType":"uint256"}],"outputs":[],"stateMutability":"nonpayable"},{"type":"function","name":"handleRecovery","inputs":[{"name":"emailAuthMsg","type":"tuple","internalType":"struct EmailAuthMsg","components":[{"name":"templateId","type":"uint256","internalType":"uint256"},{"name":"subjectParams","type":"bytes[]","internalType":"bytes[]"},{"name":"skipedSubjectPrefix","type":"uint256","internalType":"uint256"},{"name":"proof","type":"tuple","internalType":"struct EmailProof","components":[{"name":"domainName","type":"string","internalType":"string"},{"name":"publicKeyHash","type":"bytes32","internalType":"bytes32"},{"name":"timestamp","type":"uint256","internalType":"uint256"},{"name":"maskedSubject","type":"string","internalType":"string"},{"name":"emailNullifier","type":"bytes32","internalType":"bytes32"},{"name":"accountSalt","type":"bytes32","internalType":"bytes32"},{"name":"isCodeExist","type":"bool","internalType":"bool"},{"name":"proof","type":"bytes","internalType":"bytes"}]}]},{"name":"templateIdx","type":"uint256","internalType":"uint256"}],"outputs":[],"stateMutability":"nonpayable"},{"type":"function","name":"recoverPlugin","inputs":[{"name":"safe","type":"address","internalType":"address"},{"name":"previousOwner","type":"address","internalType":"address"}],"outputs":[],"stateMutability":"nonpayable"},{"type":"function","name":"recoveryRequests","inputs":[{"name":"","type":"address","internalType":"address"}],"outputs":[{"name":"guardian","type":"address","internalType":"address"},{"name":"executeAfter","type":"uint256","internalType":"uint256"},{"name":"ownerToSwap","type":"address","internalType":"address"},{"name":"pendingNewOwner","type":"address","internalType":"address"},{"name":"delay","type":"uint256","internalType":"uint256"}],"stateMutability":"view"},{"type":"function","name":"recoverySubjectTemplates","inputs":[],"outputs":[{"name":"","type":"string[][]","internalType":"string[][]"}],"stateMutability":"pure"},{"type":"function","name":"setRecoveryDelay","inputs":[{"name":"delay","type":"uint256","internalType":"uint256"}],"outputs":[],"stateMutability":"nonpayable"},{"type":"function","name":"verifier","inputs":[],"outputs":[{"name":"","type":"address","internalType":"address"}],"stateMutability":"view"},{"type":"function","name":"verifierAddr","inputs":[],"outputs":[{"name":"","type":"address","internalType":"address"}],"stateMutability":"view"},{"type":"event","name":"OwnerRecovered","inputs":[{"name":"safe","type":"address","indexed":true,"internalType":"address"},{"name":"oldOwner","type":"address","indexed":false,"internalType":"address"},{"name":"newOwner","type":"address","indexed":false,"internalType":"address"}],"anonymous":false},{"type":"event","name":"RecoveryCancelled","inputs":[{"name":"safe","type":"address","indexed":true,"internalType":"address"}],"anonymous":false},{"type":"event","name":"RecoveryConfigured","inputs":[{"name":"safe","type":"address","indexed":true,"internalType":"address"},{"name":"owner","type":"address","indexed":true,"internalType":"address"},{"name":"customDelay","type":"uint256","indexed":false,"internalType":"uint256"}],"anonymous":false},{"type":"event","name":"RecoveryDelaySet","inputs":[{"name":"safe","type":"address","indexed":true,"internalType":"address"},{"name":"delay","type":"uint256","indexed":false,"internalType":"uint256"}],"anonymous":false},{"type":"event","name":"RecoveryInitiated","inputs":[{"name":"safe","type":"address","indexed":true,"internalType":"address"},{"name":"newOwner","type":"address","indexed":false,"internalType":"address"},{"name":"executeAfter","type":"uint256","indexed":false,"internalType":"uint256"}],"anonymous":false},{"type":"error","name":"DELAY_NOT_PASSED","inputs":[]},{"type":"error","name":"INVALID_NEW_OWNER","inputs":[]},{"type":"error","name":"INVALID_OWNER","inputs":[{"name":"owner","type":"address","internalType":"address"}]},{"type":"error","name":"MODULE_NOT_ENABLED","inputs":[]},{"type":"error","name":"RECOVERY_ALREADY_INITIATED","inputs":[]},{"type":"error","name":"RECOVERY_NOT_CONFIGURED","inputs":[]},{"type":"error","name":"RECOVERY_NOT_INITIATED","inputs":[]}],"bytecode":{"object":"0x60a06040523480156200001157600080fd5b5060405162002bea38038062002bea83398101604081905262000034916200013a565b600080546001600160a01b038581166001600160a01b031992831617909255600180548584169083161790556002805492841692909116919091179055604080517f8b73c3c69bb8fe3d512ecc4cf759cc79239f7b179b0ffacaa9a75d522b39400f60208201527faf87fd82ed1687c4ddecdc1ec523a24645a6a0d38b054e5c174c4d6c2aa3f3b2918101919091527fc89efdaa54c0f20c7adf612882df0950f5a951637e0307cdcb4c672f298b8bc660608201524660808201523060a082015260c00160408051601f1981840301815291905280516020909101206080525062000184915050565b80516001600160a01b03811681146200013557600080fd5b919050565b6000806000606084860312156200015057600080fd5b6200015b846200011d565b92506200016b602085016200011d565b91506200017b604085016200011d565b90509250925092565b608051612a4d6200019d60003960005050612a4d6000f3fe60806040523480156200001157600080fd5b50600436106200015d5760003560e01c8063663ea2e211620000c757806381520782116200008657806381520782146200038d5780638eb8bd8f14620003a4578063a1b097c514620003bb578063b401b3761462000448578063b620169214620004a0578063b68126fa14620004b257600080fd5b8063663ea2e2146200032d5780636b0c717e14620003415780636da99515146200034b57806373357f85146200036257806380b1c5cf146200037657600080fd5b806332ccc2f2116200012057806332ccc2f214620001e25780633db02e0314620001f95780633e91cdcd1462000210578063400ad5ce14620002295780634f9a28b9146200023b5780635bafadda146200032357600080fd5b80630481af6714620001625780630ba234d6146200017b5780631098e02e146200018557806327e72e4114620001b65780632b7ac3f314620001d0575b600080fd5b62000179620001733660046200203c565b620004c9565b005b620001796200098b565b60025462000199906001600160a01b031681565b6040516001600160a01b0390911681526020015b60405180910390f35b620001c16212750081565b604051908152602001620001ad565b6000546001600160a01b031662000199565b620001c1620001f33660046200217a565b620009fa565b620001796200020a366004620021aa565b62000a52565b6200021a62000cda565b604051620001ad9190620022a2565b6001546001600160a01b031662000199565b620002d56200024c3660046200230a565b6040805160a081018252600080825260208201819052918101829052606081018290526080810191909152506001600160a01b03908116600090815260036020818152604092839020835160a081018552815486168152600182015492810192909252600281015485169382019390935290820154909216606083015260040154608082015290565b604051620001ad919081516001600160a01b03908116825260208084015190830152604080840151821690830152606080840151909116908201526080918201519181019190915260a00190565b6200021a62000fe8565b60005462000199906001600160a01b031681565b6200017962001230565b620001c16200035c3660046200217a565b6200126d565b60015462000199906001600160a01b031681565b62000179620003873660046200232a565b62001285565b620001996200039e3660046200217a565b62001486565b62000179620003b53660046200217a565b62001555565b6200040c620003cc3660046200230a565b6003602081905260009182526040909120805460018201546002830154938301546004909301546001600160a01b03928316949193918316929091169085565b604080516001600160a01b0396871681526020810195909552928516928401929092529092166060820152608081019190915260a001620001ad565b62000480620004593660046200230a565b6004602052600090815260409020546001600160a01b03811690600160a01b900460ff1682565b604080516001600160a01b039093168352901515602083015201620001ad565b6002546001600160a01b031662000199565b62000179620004c33660046200203c565b620015ab565b6000620004de836060015160a0015162001486565b90506001600160a01b0381163b156200053e5760405162461bcd60e51b815260206004820152601c60248201527f677561726469616e20697320616c7265616479206465706c6f7965640000000060448201526064015b60405180910390fd5b60006200054b83620009fa565b84519091508114620005965760405162461bcd60e51b81526020600482015260136024820152721a5b9d985b1a59081d195b5c1b185d19481a59606a1b604482015260640162000535565b606084015160c001511515600114620005e95760405162461bcd60e51b81526020600482015260146024820152736973436f646545786973742069732066616c736560601b604482015260640162000535565b6000846060015160a00151620006076002546001600160a01b031690565b606087015160a00151604051306024820152604481019190915260640160408051601f198184030181529181526020820180516001600160e01b0316632f84fd1f60e21b179052516200065a9062001e1a565b6200066792919062002368565b8190604051809103906000f590508015801562000688573d6000803e3d6000fd5b509050806001600160a01b03811663a500125c620006ae6001546001600160a01b031690565b6040516001600160e01b031960e084901b1681526001600160a01b039091166004820152602401600060405180830381600087803b158015620006f057600080fd5b505af115801562000705573d6000803e3d6000fd5b50505050806001600160a01b03166397fc007c6200072b6000546001600160a01b031690565b6040516001600160e01b031960e084901b1681526001600160a01b039091166004820152602401600060405180830381600087803b1580156200076d57600080fd5b505af115801562000782573d6000803e3d6000fd5b5050505060005b6200079362000fe8565b518110156200083c57816001600160a01b031663c4b84df4620007b683620009fa565b620007c062000fe8565b8481518110620007d457620007d462002396565b60200260200101516040518363ffffffff1660e01b8152600401620007fb929190620023ac565b600060405180830381600087803b1580156200081657600080fd5b505af11580156200082b573d6000803e3d6000fd5b505060019092019150620007899050565b5060005b6200084a62000cda565b51811015620008f357816001600160a01b031663c4b84df46200086d836200126d565b6200087762000cda565b84815181106200088b576200088b62002396565b60200260200101516040518363ffffffff1660e01b8152600401620008b2929190620023ac565b600060405180830381600087803b158015620008cd57600080fd5b505af1158015620008e2573d6000803e3d6000fd5b505060019092019150620008409050565b5060405163ad3f5f9b60e01b81526001600160a01b0382169063ad3f5f9b906200092290899060040162002454565b6020604051808303816000875af115801562000942573d6000803e3d6000fd5b505050506040513d601f19601f82011682018060405250810190620009689190620024ee565b50620009838486886020015189606001516080015162001731565b505050505050565b33600081815260036020819052604080832080546001600160a01b031990811682556001820185905560028201805482169055928101805490931690925560049091018290555182917f8154b6c5e1fc90d44b49808ef93f9739148d0821411890f8cd684385e24b9f1e91a250565b60408051600160208201526060918101829052600a608082015269414343455054414e434560b01b60a082015290810182905260009060c0015b60408051601f19818403018152919052805160209091012092915050565b604051632d9ad53d60e01b815230600482015233906000908290632d9ad53d90602401602060405180830381865afa15801562000a93573d6000803e3d6000fd5b505050506040513d601f19601f8201168201806040525081019062000ab9919062002508565b90508062000ada576040516314771b5560e21b815260040160405180910390fd5b6040516317aa5fb760e11b81526001600160a01b03868116600483015260009190841690632f54bf6e90602401602060405180830381865afa15801562000b25573d6000803e3d6000fd5b505050506040513d601f19601f8201168201806040525081019062000b4b919062002508565b90508062000b78576040516321b3d28b60e11b81526001600160a01b038716600482015260240162000535565b6001600160a01b0385166000908152600360205260409020600101541562000bb357604051630566edfd60e01b815260040160405180910390fd5b62127500841562000bc15750835b6040805160a0810182526001600160a01b03808916808352600060208085018281528d851686880181815260608801858152608089018b81528e891680885260038088528c89209b518c54908c166001600160a01b0319918216178d55965160018d0155935160028c018054918c169188169190911790559151928a018054938a169390951692909217909355516004978801558751808901895282815280840185815295855296909252918690209451855493511515600160a01b026001600160a81b03199094169416939093179190911790925591517f63a1290efa0ec30c40bb0c55601be0b27a867671f7531df954d90a279c8d8ce49062000cc99085815260200190565b60405180910390a350505050505050565b60408051600180825281830190925260609160009190816020015b606081526020019060019003908162000cf55750506040805160078082526101008201909252919250602082015b606081526020019060019003908162000d23579050508160008151811062000d4f5762000d4f62002396565b60200260200101819052506040518060400160405280600681526020016555706461746560d01b8152508160008151811062000d8f5762000d8f62002396565b602002602001015160008151811062000dac5762000dac62002396565b60200260200101819052506040518060400160405280600581526020016437bbb732b960d91b8152508160008151811062000deb5762000deb62002396565b602002602001015160018151811062000e085762000e0862002396565b602002602001018190525060405180604001604052806002815260200161746f60f01b8152508160008151811062000e445762000e4462002396565b602002602001015160028151811062000e615762000e6162002396565b6020026020010181905250604051806040016040528060098152602001687b657468416464727d60b81b8152508160008151811062000ea45762000ea462002396565b602002602001015160038151811062000ec15762000ec162002396565b60200260200101819052506040518060400160405280600281526020016137b760f11b8152508160008151811062000efd5762000efd62002396565b602002602001015160048151811062000f1a5762000f1a62002396565b6020026020010181905250604051806040016040528060078152602001661858d8dbdd5b9d60ca1b8152508160008151811062000f5b5762000f5b62002396565b602002602001015160058151811062000f785762000f7862002396565b6020026020010181905250604051806040016040528060098152602001687b657468416464727d60b81b8152508160008151811062000fbb5762000fbb62002396565b602002602001015160068151811062000fd85762000fd862002396565b6020908102919091010152919050565b60408051600180825281830190925260609160009190816020015b60608152602001906001900390816200100357505060408051600580825260c08201909252919250602082015b60608152602001906001900390816200103057905050816000815181106200105c576200105c62002396565b6020026020010181905250604051806040016040528060068152602001651058d8d95c1d60d21b815250816000815181106200109c576200109c62002396565b6020026020010151600081518110620010b957620010b962002396565b60200260200101819052506040518060400160405280600881526020016733bab0b93234b0b760c11b81525081600081518110620010fb57620010fb62002396565b602002602001015160018151811062001118576200111862002396565b6020026020010181905250604051806040016040528060078152602001661c995c5d595cdd60ca1b8152508160008151811062001159576200115962002396565b602002602001015160028151811062001176576200117662002396565b6020026020010181905250604051806040016040528060038152602001623337b960e91b81525081600081518110620011b357620011b362002396565b6020026020010151600381518110620011d057620011d062002396565b6020026020010181905250604051806040016040528060098152602001687b657468416464727d60b81b8152508160008151811062001213576200121362002396565b602002602001015160048151811062000fd85762000fd862002396565b60405162461bcd60e51b81526020600482015260116024820152703ab9b2903932b1b7bb32b928363ab3b4b760791b604482015260640162000535565b600060018260405160200162000a3492919062002528565b6001600160a01b038083166000908152600360208181526040808420815160a0810183528154871681526001820154938101849052600282015487169281019290925292830154909416606085015260049091015460808401529003620012ff5760405163bd8190e360e01b815260040160405180910390fd5b806020015142106200146d576001600160a01b03838116600081815260036020818152604080842080546001600160a01b0319908116825560018201869055600282018054821690559381018054909416909355600492830184905586810151606088015182518a891660248201529188166044830152909616606480880191909152815180880390910181526084909601815290850180516001600160e01b031663e318b52b60e01b1790525163468721a760e01b815263468721a792620013cf92899287918391016200255b565b6020604051808303816000875af1158015620013ef573d6000803e3d6000fd5b505050506040513d601f19601f8201168201806040525081019062001415919062002508565b50604080830151606084015182516001600160a01b0392831681529082166020820152908616917f7449a13209e865c6b020fb84226e885dc8ad41e95b6cf9b9c031c75af3a8a6fa910160405180910390a250505050565b604051636f972f6960e01b815260040160405180910390fd5b60006200154f82604051806020016200149f9062001e1a565b601f1982820381018352601f90910116604052620014c56002546001600160a01b031690565b6040513060248201526044810187905260640160408051601f19818403018152918152602080830180516001600160e01b0316632f84fd1f60e21b1790529051620015139392910162002368565b60408051601f198184030181529082905262001533929160200162002598565b6040516020818303038152906040528051906020012062001944565b92915050565b33600081815260036020526040908190206004018390555181907f6cc6833b48f63f4c7b6ed0f3f5c71a6b81ac5befd07785a52fb93ff2c3c661a3906200159f9085815260200190565b60405180910390a25050565b6000620015c0836060015160a0015162001486565b90506000816001600160a01b03163b116200161e5760405162461bcd60e51b815260206004820152601860248201527f677561726469616e206973206e6f74206465706c6f7965640000000000000000604482015260640162000535565b60006001836040516020016200163692919062002528565b60408051601f19818403018152919052805160209091012084519091508114620016995760405162461bcd60e51b81526020600482015260136024820152721a5b9d985b1a59081d195b5c1b185d19481a59606a1b604482015260640162000535565b60405163ad3f5f9b60e01b815282906001600160a01b0382169063ad3f5f9b90620016c990889060040162002454565b6020604051808303816000875af1158015620016e9573d6000803e3d6000fd5b505050506040513d601f19601f820116820180604052508101906200170f9190620024ee565b506200172a838587602001518860600151608001516200195a565b5050505050565b6001600160a01b0384166200177c5760405162461bcd60e51b815260206004820152601060248201526f34b73b30b634b21033bab0b93234b0b760811b604482015260640162000535565b6001600160a01b0384811660009081526004602052604090205416620017de5760405162461bcd60e51b815260206004820152601660248201527519dd585c991a585b881b9bdd081c995c5d595cdd195960521b604482015260640162000535565b8215620018275760405162461bcd60e51b81526020600482015260166024820152750d2dcecc2d8d2c840e8cadae0d8c2e8ca40d2dcc8caf60531b604482015260640162000535565b8151600114620018735760405162461bcd60e51b8152602060048201526016602482015275696e76616c6964207375626a65637420706172616d7360501b604482015260640162000535565b6000826000815181106200188b576200188b62002396565b6020026020010151806020019051810190620018a89190620025cb565b6001600160a01b03868116600090815260046020526040902054919250828116911614620019145760405162461bcd60e51b81526020600482015260186024820152771a5b9d985b1a59081858d8dbdd5b9d081a5b88195b585a5b60421b604482015260640162000535565b5050506001600160a01b039091166000908152600460205260409020805460ff60a01b1916600160a01b17905550565b60006200195383833062001df0565b9392505050565b6001600160a01b038416620019a55760405162461bcd60e51b815260206004820152601060248201526f34b73b30b634b21033bab0b93234b0b760811b604482015260640162000535565b6001600160a01b038481166000908152600460205260409020541662001a075760405162461bcd60e51b815260206004820152601660248201527519dd585c991a585b881b9bdd081c995c5d595cdd195960521b604482015260640162000535565b6001600160a01b038416600090815260046020526040902054600160a01b900460ff1662001a785760405162461bcd60e51b815260206004820152601960248201527f677561726469616e20686173206e6f7420616363657074656400000000000000604482015260640162000535565b821562001ac15760405162461bcd60e51b81526020600482015260166024820152750d2dcecc2d8d2c840e8cadae0d8c2e8ca40d2dcc8caf60531b604482015260640162000535565b815160021462001b0d5760405162461bcd60e51b8152602060048201526016602482015275696e76616c6964207375626a65637420706172616d7360501b604482015260640162000535565b60008260008151811062001b255762001b2562002396565b602002602001015180602001905181019062001b429190620025cb565b90506001600160a01b03811662001b9c5760405162461bcd60e51b815260206004820152601a60248201527f696e76616c6964206e6577206f776e657220696e20656d61696c000000000000604482015260640162000535565b60008360018151811062001bb45762001bb462002396565b602002602001015180602001905181019062001bd19190620025cb565b6001600160a01b0387811660009081526004602052604090205491925082811691161462001c3d5760405162461bcd60e51b81526020600482015260186024820152771a5b9d985b1a59081858d8dbdd5b9d081a5b88195b585a5b60421b604482015260640162000535565b6040516317aa5fb760e11b81526001600160a01b03838116600483015260009190831690632f54bf6e90602401602060405180830381865afa15801562001c88573d6000803e3d6000fd5b505050506040513d601f19601f8201168201806040525081019062001cae919062002508565b9050801562001cd05760405163ecb9b1c760e01b815260040160405180910390fd5b6001600160a01b03808316600090815260036020818152604092839020835160a08101855281548616815260018201549281018390526002820154861694810194909452918201549093166060830152600401546080820152901562001d4957604051630566edfd60e01b815260040160405180910390fd5b6001600160a01b03831660009081526003602052604081206004015462001d719042620025eb565b6001600160a01b038581166000818152600360208181526040928390206001810187905590910180546001600160a01b031916948b16948517905581519384528301849052929350917fe290ea2cc3cfeb5114f992dc8be9e503de30042c13b9298644a2679b09e17a04910160405180910390a2505050505050505050565b6000604051836040820152846020820152828152600b8101905060ff815360559020949350505050565b61040a806200260e83390190565b634e487b7160e01b600052604160045260246000fd5b604051610100810167ffffffffffffffff8111828210171562001e655762001e6562001e28565b60405290565b6040516080810167ffffffffffffffff8111828210171562001e655762001e6562001e28565b604051601f8201601f1916810167ffffffffffffffff8111828210171562001ebd5762001ebd62001e28565b604052919050565b600082601f83011262001ed757600080fd5b813567ffffffffffffffff81111562001ef45762001ef462001e28565b62001f09601f8201601f191660200162001e91565b81815284602083860101111562001f1f57600080fd5b816020850160208301376000918101602001919091529392505050565b801515811462001f4b57600080fd5b50565b803562001f5b8162001f3c565b919050565b6000610100828403121562001f7457600080fd5b62001f7e62001e3e565b9050813567ffffffffffffffff8082111562001f9957600080fd5b62001fa78583860162001ec5565b83526020840135602084015260408401356040840152606084013591508082111562001fd257600080fd5b62001fe08583860162001ec5565b60608401526080840135608084015260a084013560a08401526200200760c0850162001f4e565b60c084015260e08401359150808211156200202157600080fd5b50620020308482850162001ec5565b60e08301525092915050565b600080604083850312156200205057600080fd5b823567ffffffffffffffff808211156200206957600080fd5b90840190608082870312156200207e57600080fd5b6200208862001e6b565b8235815260208084013583811115620020a057600080fd5b8401601f81018913620020b257600080fd5b803584811115620020c757620020c762001e28565b8060051b620020d884820162001e91565b918252828101840191848101908c841115620020f357600080fd5b85850192505b838310156200213457823588811115620021135760008081fd5b620021238e888389010162001ec5565b8352509185019190850190620020f9565b8686015250505050604084810135908301526060840135838111156200215957600080fd5b620021678982870162001f60565b6060840152509097950135955050505050565b6000602082840312156200218d57600080fd5b5035919050565b6001600160a01b038116811462001f4b57600080fd5b600080600060608486031215620021c057600080fd5b8335620021cd8162002194565b92506020840135620021df8162002194565b929592945050506040919091013590565b60005b838110156200220d578181015183820152602001620021f3565b50506000910152565b6000815180845262002230816020860160208601620021f0565b601f01601f19169290920160200192915050565b60008282518085526020808601955060208260051b8401016020860160005b848110156200229557601f198684030189526200228283835162002216565b9884019892509083019060010162002263565b5090979650505050505050565b600060208083016020845280855180835260408601915060408160051b87010192506020870160005b82811015620022fd57603f19888603018452620022ea85835162002244565b94509285019290850190600101620022cb565b5092979650505050505050565b6000602082840312156200231d57600080fd5b8135620019538162002194565b600080604083850312156200233e57600080fd5b82356200234b8162002194565b915060208301356200235d8162002194565b809150509250929050565b6001600160a01b03831681526040602082018190526000906200238e9083018462002216565b949350505050565b634e487b7160e01b600052603260045260246000fd5b8281526040602082015260006200238e604083018462002244565b60006101008251818552620023df8286018262002216565b9150506020830151602085015260408301516040850152606083015184820360608601526200240f828262002216565b9150506080830151608085015260a083015160a085015260c0830151151560c085015260e083015184820360e08601526200244b828262002216565b95945050505050565b6000602080835260a08301845182850152818501516080604086015281815180845260c08701915060c08160051b8801019350848301925060005b81811015620024c15760bf19888603018352620024ae85855162002216565b945092850192918501916001016200248f565b505050506040850151606085015260608501519150601f198482030160808501526200244b8183620023c7565b6000602082840312156200250157600080fd5b5051919050565b6000602082840312156200251b57600080fd5b8151620019538162001f3c565b60ff929092168252606060208301819052600890830152675245434f5645525960c01b6080830152604082015260a00190565b60018060a01b038516815283602082015260806040820152600062002584608083018562002216565b905060ff8316606083015295945050505050565b60008351620025ac818460208801620021f0565b835190830190620025c2818360208801620021f0565b01949350505050565b600060208284031215620025de57600080fd5b8151620019538162002194565b808201808211156200154f57634e487b7160e01b600052601160045260246000fdfe608060405260405161040a38038061040a83398101604081905261002291610268565b61002c8282610033565b5050610352565b61003c82610092565b6040516001600160a01b038316907fbc7cd75a20ee27fd9adebab32041f755214dbc6bffa90cc0225b39da2e5c2d3b90600090a280511561008657610081828261010e565b505050565b61008e610185565b5050565b806001600160a01b03163b6000036100cd57604051634c9c8ce360e01b81526001600160a01b03821660048201526024015b60405180910390fd5b7f360894a13ba1a3210667c828492db98dca3e2076cc3735a920a3ca505d382bbc80546001600160a01b0319166001600160a01b0392909216919091179055565b6060600080846001600160a01b03168460405161012b9190610336565b600060405180830381855af49150503d8060008114610166576040519150601f19603f3d011682016040523d82523d6000602084013e61016b565b606091505b50909250905061017c8583836101a6565b95945050505050565b34156101a45760405163b398979f60e01b815260040160405180910390fd5b565b6060826101bb576101b682610205565b6101fe565b81511580156101d257506001600160a01b0384163b155b156101fb57604051639996b31560e01b81526001600160a01b03851660048201526024016100c4565b50805b9392505050565b8051156102155780518082602001fd5b604051630a12f52160e11b815260040160405180910390fd5b634e487b7160e01b600052604160045260246000fd5b60005b8381101561025f578181015183820152602001610247565b50506000910152565b6000806040838503121561027b57600080fd5b82516001600160a01b038116811461029257600080fd5b60208401519092506001600160401b03808211156102af57600080fd5b818501915085601f8301126102c357600080fd5b8151818111156102d5576102d561022e565b604051601f8201601f19908116603f011681019083821181831017156102fd576102fd61022e565b8160405282815288602084870101111561031657600080fd5b610327836020830160208801610244565b80955050505050509250929050565b60008251610348818460208701610244565b9190910192915050565b60aa806103606000396000f3fe6080604052600a600c565b005b60186014601a565b6051565b565b6000604c7f360894a13ba1a3210667c828492db98dca3e2076cc3735a920a3ca505d382bbc546001600160a01b031690565b905090565b3660008037600080366000845af43d6000803e808015606f573d6000f35b3d6000fdfea26469706673582212207cb927db5053fe1fe3a09b1b6b0b22c8af399dcb7fd9521a4b0181dc4547171764736f6c63430008170033a26469706673582212207a67fa4ba7238738c2ffb2f2763e9cc8f1e9822ff72deae0b642c906e46552b164736f6c63430008170033","linkReferences":{}},"methodIdentifiers":{"acceptanceSubjectTemplates()":"5bafadda","cancelRecovery()":"0ba234d6","completeRecovery()":"6b0c717e","computeAcceptanceTemplateId(uint256)":"32ccc2f2","computeEmailAuthAddress(bytes32)":"81520782","computeRecoveryTemplateId(uint256)":"6da99515","configureRecovery(address,address,uint256)":"3db02e03","defaultDelay()":"27e72e41","dkim()":"400ad5ce","dkimAddr()":"73357f85","emailAuthImplementation()":"b6201692","emailAuthImplementationAddr()":"1098e02e","getRecoveryRequest(address)":"4f9a28b9","guardianRequests(address)":"b401b376","handleAcceptance((uint256,bytes[],uint256,(string,bytes32,uint256,string,bytes32,bytes32,bool,bytes)),uint256)":"0481af67","handleRecovery((uint256,bytes[],uint256,(string,bytes32,uint256,string,bytes32,bytes32,bool,bytes)),uint256)":"b68126fa","recoverPlugin(address,address)":"80b1c5cf","recoveryRequests(address)":"a1b097c5","recoverySubjectTemplates()":"3e91cdcd","setRecoveryDelay(uint256)":"8eb8bd8f","verifier()":"2b7ac3f3","verifierAddr()":"663ea2e2"},"id":180}