{"abi":[{"type":"constructor","inputs":[{"name":"_recoveryModule","type":"address","internalType":"address"}],"stateMutability":"nonpayable"},{"type":"function","name":"isInitialized","inputs":[{"name":"smartAccount","type":"address","internalType":"address"}],"outputs":[{"name":"","type":"bool","internalType":"bool"}],"stateMutability":"view"},{"type":"function","name":"isModuleType","inputs":[{"name":"typeID","type":"uint256","internalType":"uint256"}],"outputs":[{"name":"","type":"bool","internalType":"bool"}],"stateMutability":"pure"},{"type":"function","name":"name","inputs":[],"outputs":[{"name":"","type":"string","internalType":"string"}],"stateMutability":"pure"},{"type":"function","name":"onInstall","inputs":[{"name":"data","type":"bytes","internalType":"bytes"}],"outputs":[],"stateMutability":"nonpayable"},{"type":"function","name":"onUninstall","inputs":[{"name":"data","type":"bytes","internalType":"bytes"}],"outputs":[],"stateMutability":"nonpayable"},{"type":"function","name":"recover","inputs":[{"name":"account","type":"address","internalType":"address"},{"name":"newOwner","type":"address","internalType":"address"}],"outputs":[],"stateMutability":"nonpayable"},{"type":"function","name":"recover","inputs":[{"name":"data","type":"bytes","internalType":"bytes"}],"outputs":[],"stateMutability":"nonpayable"},{"type":"function","name":"recoveryData","inputs":[{"name":"","type":"address","internalType":"address"}],"outputs":[{"name":"","type":"bytes","internalType":"bytes"}],"stateMutability":"view"},{"type":"function","name":"version","inputs":[],"outputs":[{"name":"","type":"string","internalType":"string"}],"stateMutability":"pure"},{"type":"function","name":"zkEmailRecovery","inputs":[],"outputs":[{"name":"","type":"address","internalType":"address"}],"stateMutability":"view"},{"type":"error","name":"AlreadyInitialized","inputs":[{"name":"smartAccount","type":"address","internalType":"address"}]},{"type":"error","name":"NotAuthorizedToRecover","inputs":[]},{"type":"error","name":"NotInitialized","inputs":[{"name":"smartAccount","type":"address","internalType":"address"}]}],"bytecode":{"object":"0x60a0604052348015600f57600080fd5b50604051610c52380380610c52833981016040819052602c91603c565b6001600160a01b0316608052606a565b600060208284031215604d57600080fd5b81516001600160a01b0381168114606357600080fd5b9392505050565b608051610bce610084600039600060fb0152610bce6000f3fe608060405234801561001057600080fd5b506004361061009e5760003560e01c80636d61fe70116100665780636d61fe701461016a5780638a91b0e31461017d578063a4a1edb11461018b578063d60b347f1461019e578063ecd05961146101c257600080fd5b806306fdde03146100a35780633f0b5f1e146100e35780635363a291146100f657806354fd4d5014610135578063648bf77414610156575b600080fd5b604080518082019091526012815271536166655265636f766572794d6f64756c6560701b60208201525b6040516100da9190610598565b60405180910390f35b6100cd6100f13660046105ca565b6101d6565b61011d7f000000000000000000000000000000000000000000000000000000000000000081565b6040516001600160a01b0390911681526020016100da565b604080518082019091526005815264302e302e3160d81b60208201526100cd565b6101686101643660046105e7565b5050565b005b610168610178366004610620565b610270565b610168610164366004610620565b610168610199366004610701565b61028f565b6101b26101ac3660046105ca565b50600090565b60405190151581526020016100da565b6101b26101d0366004610781565b60021490565b600060208190529081526040902080546101ef9061079a565b80601f016020809104026020016040519081016040528092919081815260200182805461021b9061079a565b80156102685780601f1061023d57610100808354040283529160200191610268565b820191906000526020600020905b81548152906001019060200180831161024b57829003601f168201915b505050505081565b33600090815260208190526040902061028a828483610824565b505050565b6000806000838060200190518101906102a891906108e5565b92509250925060006102ba84836103a1565b6040516001600160a01b03808316602483015280851660448301528516606482015290915060009060840160408051601f198184030181529190526020810180516001600160e01b031663e318b52b60e01b17905290506001600160a01b03851663d691c96461032861049b565b610334886000866104ae565b6040518363ffffffff1660e01b8152600401610351929190610932565b6000604051808303816000875af1158015610370573d6000803e3d6000fd5b505050506040513d6000823e601f3d908101601f191682016040526103989190810190610977565b50505050505050565b600080836001600160a01b031663a0e67e2b6040518163ffffffff1660e01b8152600401600060405180830381865afa1580156103e2573d6000803e3d6000fd5b505050506040513d6000823e601f3d908101601f1916820160405261040a9190810190610a64565b90506000805b825181101561045b57846001600160a01b031683828151811061043557610435610afe565b60200260200101516001600160a01b0316036104535780915061045b565b600101610410565b506001811561048d5782610470600184610b14565b8151811061048057610480610afe565b602002602001015161048f565b805b93505050505b92915050565b60006104a9818080806104dd565b905090565b60608383836040516020016104c593929190610b35565b60405160208183030381529060405290509392505050565b604080516001600160f81b03198087166020830152851660218201526000602282018190526001600160e01b03198516602683015269ffffffffffffffffffff198416602a830152910160405160208183030381529060405261053f90610b74565b95945050505050565b60005b8381101561056357818101518382015260200161054b565b50506000910152565b60008151808452610584816020860160208601610548565b601f01601f19169290920160200192915050565b6020815260006105ab602083018461056c565b9392505050565b6001600160a01b03811681146105c757600080fd5b50565b6000602082840312156105dc57600080fd5b81356105ab816105b2565b600080604083850312156105fa57600080fd5b8235610605816105b2565b91506020830135610615816105b2565b809150509250929050565b6000806020838503121561063357600080fd5b823567ffffffffffffffff8082111561064b57600080fd5b818501915085601f83011261065f57600080fd5b81358181111561066e57600080fd5b86602082850101111561068057600080fd5b60209290920196919550909350505050565b634e487b7160e01b600052604160045260246000fd5b604051601f8201601f1916810167ffffffffffffffff811182821017156106d1576106d1610692565b604052919050565b600067ffffffffffffffff8211156106f3576106f3610692565b50601f01601f191660200190565b60006020828403121561071357600080fd5b813567ffffffffffffffff81111561072a57600080fd5b8201601f8101841361073b57600080fd5b803561074e610749826106d9565b6106a8565b81815285602083850101111561076357600080fd5b81602084016020830137600091810160200191909152949350505050565b60006020828403121561079357600080fd5b5035919050565b600181811c908216806107ae57607f821691505b6020821081036107ce57634e487b7160e01b600052602260045260246000fd5b50919050565b601f82111561028a576000816000526020600020601f850160051c810160208610156107fd5750805b601f850160051c820191505b8181101561081c57828155600101610809565b505050505050565b67ffffffffffffffff83111561083c5761083c610692565b6108508361084a835461079a565b836107d4565b6000601f841160018114610884576000851561086c5750838201355b600019600387901b1c1916600186901b1783556108de565b600083815260209020601f19861690835b828110156108b55786850135825560209485019460019092019101610895565b50868210156108d25760001960f88860031b161c19848701351681555b505060018560011b0183555b5050505050565b6000806000606084860312156108fa57600080fd5b8351610905816105b2565b6020850151909350610916816105b2565b6040850151909250610927816105b2565b809150509250925092565b82815260406020820152600061094b604083018461056c565b949350505050565b600067ffffffffffffffff82111561096d5761096d610692565b5060051b60200190565b6000602080838503121561098a57600080fd5b825167ffffffffffffffff808211156109a257600080fd5b818501915085601f8301126109b657600080fd5b81516109c461074982610953565b81815260059190911b830184019084810190888311156109e357600080fd5b8585015b83811015610a57578051858111156109ff5760008081fd5b8601603f81018b13610a115760008081fd5b878101516040610a23610749836106d9565b8281528d82848601011115610a385760008081fd5b610a47838c8301848701610548565b86525050509186019186016109e7565b5098975050505050505050565b60006020808385031215610a7757600080fd5b825167ffffffffffffffff811115610a8e57600080fd5b8301601f81018513610a9f57600080fd5b8051610aad61074982610953565b81815260059190911b82018301908381019087831115610acc57600080fd5b928401925b82841015610af3578351610ae4816105b2565b82529284019290840190610ad1565b979650505050505050565b634e487b7160e01b600052603260045260246000fd5b8181038181111561049557634e487b7160e01b600052601160045260246000fd5b6bffffffffffffffffffffffff198460601b16815282601482015260008251610b65816034850160208701610548565b91909101603401949350505050565b805160208083015191908110156107ce5760001960209190910360031b1b1691905056fea26469706673582212204f269096d0102a346646c2b9f14897d4f4648b5182eb7da58140aa5b8bacfe3c64736f6c63430008190033","linkReferences":{}},"methodIdentifiers":{"isInitialized(address)":"d60b347f","isModuleType(uint256)":"ecd05961","name()":"06fdde03","onInstall(bytes)":"6d61fe70","onUninstall(bytes)":"8a91b0e3","recover(address,address)":"648bf774","recover(bytes)":"a4a1edb1","recoveryData(address)":"3f0b5f1e","version()":"54fd4d50","zkEmailRecovery()":"5363a291"},"id":207}