{"abi":[{"type":"constructor","inputs":[{"name":"_verifier","type":"address","internalType":"address"},{"name":"_dkimRegistry","type":"address","internalType":"address"},{"name":"_emailAuthImpl","type":"address","internalType":"address"}],"stateMutability":"nonpayable"},{"type":"function","name":"acceptanceSubjectTemplates","inputs":[],"outputs":[{"name":"","type":"string[][]","internalType":"string[][]"}],"stateMutability":"pure"},{"type":"function","name":"cancelRecovery","inputs":[],"outputs":[],"stateMutability":"nonpayable"},{"type":"function","name":"completeRecovery","inputs":[],"outputs":[],"stateMutability":"nonpayable"},{"type":"function","name":"computeAcceptanceTemplateId","inputs":[{"name":"templateIdx","type":"uint256","internalType":"uint256"}],"outputs":[{"name":"","type":"uint256","internalType":"uint256"}],"stateMutability":"pure"},{"type":"function","name":"computeEmailAuthAddress","inputs":[{"name":"accountSalt","type":"bytes32","internalType":"bytes32"}],"outputs":[{"name":"","type":"address","internalType":"address"}],"stateMutability":"view"},{"type":"function","name":"computeRecoveryTemplateId","inputs":[{"name":"templateIdx","type":"uint256","internalType":"uint256"}],"outputs":[{"name":"","type":"uint256","internalType":"uint256"}],"stateMutability":"pure"},{"type":"function","name":"configureRecovery","inputs":[{"name":"owner","type":"address","internalType":"address"},{"name":"guardian","type":"address","internalType":"address"},{"name":"customDelay","type":"uint256","internalType":"uint256"},{"name":"previousOwnerInLinkedList","type":"address","internalType":"address"}],"outputs":[{"name":"emailAccountRecoveryRouterAddress","type":"address","internalType":"address"}],"stateMutability":"nonpayable"},{"type":"function","name":"defaultDelay","inputs":[],"outputs":[{"name":"","type":"uint256","internalType":"uint256"}],"stateMutability":"view"},{"type":"function","name":"dkim","inputs":[],"outputs":[{"name":"","type":"address","internalType":"address"}],"stateMutability":"view"},{"type":"function","name":"dkimAddr","inputs":[],"outputs":[{"name":"","type":"address","internalType":"address"}],"stateMutability":"view"},{"type":"function","name":"emailAuthImplementation","inputs":[],"outputs":[{"name":"","type":"address","internalType":"address"}],"stateMutability":"view"},{"type":"function","name":"emailAuthImplementationAddr","inputs":[],"outputs":[{"name":"","type":"address","internalType":"address"}],"stateMutability":"view"},{"type":"function","name":"getGuardianRequest","inputs":[{"name":"safe","type":"address","internalType":"address"}],"outputs":[{"name":"","type":"tuple","internalType":"struct GuardianRequest","components":[{"name":"safe","type":"address","internalType":"address"},{"name":"accepted","type":"bool","internalType":"bool"}]}],"stateMutability":"view"},{"type":"function","name":"getRecoveryRequest","inputs":[{"name":"safe","type":"address","internalType":"address"}],"outputs":[{"name":"","type":"tuple","internalType":"struct RecoveryRequest","components":[{"name":"executeAfter","type":"uint256","internalType":"uint256"},{"name":"ownerToSwap","type":"address","internalType":"address"},{"name":"pendingNewOwner","type":"address","internalType":"address"},{"name":"delay","type":"uint256","internalType":"uint256"}]}],"stateMutability":"view"},{"type":"function","name":"getRouterForSafe","inputs":[{"name":"safe","type":"address","internalType":"address"}],"outputs":[{"name":"","type":"address","internalType":"address"}],"stateMutability":"view"},{"type":"function","name":"guardianRequests","inputs":[{"name":"","type":"address","internalType":"address"}],"outputs":[{"name":"safe","type":"address","internalType":"address"},{"name":"accepted","type":"bool","internalType":"bool"}],"stateMutability":"view"},{"type":"function","name":"handleAcceptance","inputs":[{"name":"emailAuthMsg","type":"tuple","internalType":"struct EmailAuthMsg","components":[{"name":"templateId","type":"uint256","internalType":"uint256"},{"name":"subjectParams","type":"bytes[]","internalType":"bytes[]"},{"name":"skipedSubjectPrefix","type":"uint256","internalType":"uint256"},{"name":"proof","type":"tuple","internalType":"struct EmailProof","components":[{"name":"domainName","type":"string","internalType":"string"},{"name":"publicKeyHash","type":"bytes32","internalType":"bytes32"},{"name":"timestamp","type":"uint256","internalType":"uint256"},{"name":"maskedSubject","type":"string","internalType":"string"},{"name":"emailNullifier","type":"bytes32","internalType":"bytes32"},{"name":"accountSalt","type":"bytes32","internalType":"bytes32"},{"name":"isCodeExist","type":"bool","internalType":"bool"},{"name":"proof","type":"bytes","internalType":"bytes"}]}]},{"name":"templateIdx","type":"uint256","internalType":"uint256"}],"outputs":[],"stateMutability":"nonpayable"},{"type":"function","name":"handleRecovery","inputs":[{"name":"emailAuthMsg","type":"tuple","internalType":"struct EmailAuthMsg","components":[{"name":"templateId","type":"uint256","internalType":"uint256"},{"name":"subjectParams","type":"bytes[]","internalType":"bytes[]"},{"name":"skipedSubjectPrefix","type":"uint256","internalType":"uint256"},{"name":"proof","type":"tuple","internalType":"struct EmailProof","components":[{"name":"domainName","type":"string","internalType":"string"},{"name":"publicKeyHash","type":"bytes32","internalType":"bytes32"},{"name":"timestamp","type":"uint256","internalType":"uint256"},{"name":"maskedSubject","type":"string","internalType":"string"},{"name":"emailNullifier","type":"bytes32","internalType":"bytes32"},{"name":"accountSalt","type":"bytes32","internalType":"bytes32"},{"name":"isCodeExist","type":"bool","internalType":"bool"},{"name":"proof","type":"bytes","internalType":"bytes"}]}]},{"name":"templateIdx","type":"uint256","internalType":"uint256"}],"outputs":[],"stateMutability":"nonpayable"},{"type":"function","name":"recoverPlugin","inputs":[{"name":"safe","type":"address","internalType":"address"},{"name":"previousOwner","type":"address","internalType":"address"}],"outputs":[],"stateMutability":"nonpayable"},{"type":"function","name":"recoveryRequests","inputs":[{"name":"","type":"address","internalType":"address"}],"outputs":[{"name":"executeAfter","type":"uint256","internalType":"uint256"},{"name":"ownerToSwap","type":"address","internalType":"address"},{"name":"pendingNewOwner","type":"address","internalType":"address"},{"name":"delay","type":"uint256","internalType":"uint256"}],"stateMutability":"view"},{"type":"function","name":"recoveryRouterToSafeInfo","inputs":[{"name":"","type":"address","internalType":"address"}],"outputs":[{"name":"safe","type":"address","internalType":"address"},{"name":"previousOwnerInLinkedList","type":"address","internalType":"address"}],"stateMutability":"view"},{"type":"function","name":"recoverySubjectTemplates","inputs":[],"outputs":[{"name":"","type":"string[][]","internalType":"string[][]"}],"stateMutability":"pure"},{"type":"function","name":"safeAddrToRecoveryRouter","inputs":[{"name":"","type":"address","internalType":"address"}],"outputs":[{"name":"","type":"address","internalType":"address"}],"stateMutability":"view"},{"type":"function","name":"setRecoveryDelay","inputs":[{"name":"delay","type":"uint256","internalType":"uint256"}],"outputs":[],"stateMutability":"nonpayable"},{"type":"function","name":"verifier","inputs":[],"outputs":[{"name":"","type":"address","internalType":"address"}],"stateMutability":"view"},{"type":"function","name":"verifierAddr","inputs":[],"outputs":[{"name":"","type":"address","internalType":"address"}],"stateMutability":"view"},{"type":"event","name":"OwnerRecovered","inputs":[{"name":"safe","type":"address","indexed":true,"internalType":"address"},{"name":"oldOwner","type":"address","indexed":false,"internalType":"address"},{"name":"newOwner","type":"address","indexed":false,"internalType":"address"}],"anonymous":false},{"type":"event","name":"RecoveryCancelled","inputs":[{"name":"safe","type":"address","indexed":true,"internalType":"address"}],"anonymous":false},{"type":"event","name":"RecoveryConfigured","inputs":[{"name":"safe","type":"address","indexed":true,"internalType":"address"},{"name":"owner","type":"address","indexed":true,"internalType":"address"},{"name":"customDelay","type":"uint256","indexed":false,"internalType":"uint256"}],"anonymous":false},{"type":"event","name":"RecoveryDelaySet","inputs":[{"name":"safe","type":"address","indexed":true,"internalType":"address"},{"name":"delay","type":"uint256","indexed":false,"internalType":"uint256"}],"anonymous":false},{"type":"event","name":"RecoveryInitiated","inputs":[{"name":"safe","type":"address","indexed":true,"internalType":"address"},{"name":"newOwner","type":"address","indexed":false,"internalType":"address"},{"name":"executeAfter","type":"uint256","indexed":false,"internalType":"uint256"}],"anonymous":false},{"type":"error","name":"DELAY_NOT_PASSED","inputs":[]},{"type":"error","name":"INVALID_NEW_OWNER","inputs":[]},{"type":"error","name":"INVALID_OWNER","inputs":[{"name":"owner","type":"address","internalType":"address"}]},{"type":"error","name":"MODULE_NOT_ENABLED","inputs":[]},{"type":"error","name":"RECOVERY_ALREADY_INITIATED","inputs":[]},{"type":"error","name":"RECOVERY_NOT_CONFIGURED","inputs":[]},{"type":"error","name":"RECOVERY_NOT_INITIATED","inputs":[]}],"bytecode":{"object":"0x60a06040523480156200001157600080fd5b50604051620040203803806200402083398101604081905262000034916200013a565b600080546001600160a01b038581166001600160a01b031992831617909255600180548584169083161790556002805492841692909116919091179055604080517f8b73c3c69bb8fe3d512ecc4cf759cc79239f7b179b0ffacaa9a75d522b39400f60208201527faf87fd82ed1687c4ddecdc1ec523a24645a6a0d38b054e5c174c4d6c2aa3f3b2918101919091527fc89efdaa54c0f20c7adf612882df0950f5a951637e0307cdcb4c672f298b8bc660608201524660808201523060a082015260c00160408051601f1981840301815291905280516020909101206080525062000184915050565b80516001600160a01b03811681146200013557600080fd5b919050565b6000806000606084860312156200015057600080fd5b6200015b846200011d565b92506200016b602085016200011d565b91506200017b604085016200011d565b90509250925092565b608051613e836200019d60003960005050613e836000f3fe60806040523480156200001157600080fd5b5060043610620001af5760003560e01c80636b0c717e11620000f05780638eb8bd8f11620000a3578063b6201692116200007a578063b62016921462000582578063b68126fa1462000594578063e065fe6f14620005ab578063ffe15544146200060357600080fd5b80638eb8bd8f146200049c578063a1b097c514620004b3578063b401b376146200052a57600080fd5b80636b0c717e146200040d5780636da99515146200041757806373357f85146200042e5780637a528d86146200044257806380b1c5cf146200046e57806381520782146200048557600080fd5b80632b7e3b091162000166578063400ad5ce116200013d578063400ad5ce146200031a5780634f9a28b9146200032c5780635bafadda14620003ef578063663ea2e214620003f957600080fd5b80632b7e3b0914620002bb57806332ccc2f214620002ea5780633e91cdcd146200030157600080fd5b80630481af6714620001b45780630ba234d614620001cd5780631098e02e14620001d757806327e72e41146200020857806328ef543714620002225780632b7ac3f314620002a9575b600080fd5b620001cb620001c536600462002588565b6200061a565b005b620001cb62000adc565b600254620001eb906001600160a01b031681565b6040516001600160a01b0390911681526020015b60405180910390f35b620002136212750081565b604051908152602001620001ff565b6200028262000233366004620026dc565b604080518082018252600080825260209182018190526001600160a01b039384168152600482528290208251808401909352549283168252600160a01b90920460ff1615159181019190915290565b6040805182516001600160a01b0316815260209283015115159281019290925201620001ff565b6000546001600160a01b0316620001eb565b620001eb620002cc366004620026dc565b6001600160a01b039081166000908152600660205260409020541690565b62000213620002fb366004620026fc565b62000b40565b6200030b62000b98565b604051620001ff9190620027c8565b6001546001600160a01b0316620001eb565b620003ad6200033d366004620026dc565b60408051608080820183526000808352602080840182905283850182905260609384018290526001600160a01b0395861682526003808252918590208551938401865280548452600181015487169184019190915260028101549095169382019390935292909101549082015290565b60408051825181526020808401516001600160a01b039081169183019190915283830151169181019190915260609182015191810191909152608001620001ff565b6200030b62000ea6565b600054620001eb906001600160a01b031681565b620001cb620010ee565b6200021362000428366004620026fc565b62001134565b600154620001eb906001600160a01b031681565b620001eb62000453366004620026dc565b6006602052600090815260409020546001600160a01b031681565b620001cb6200047f36600462002830565b6200114c565b620001eb62000496366004620026fc565b62001345565b620001cb620004ad366004620026fc565b62001414565b620004f9620004c4366004620026dc565b6003602081905260009182526040909120805460018201546002830154929093015490926001600160a01b0390811692169084565b604051620001ff94939291909384526001600160a01b03928316602085015291166040830152606082015260800190565b620005626200053b366004620026dc565b6004602052600090815260409020546001600160a01b03811690600160a01b900460ff1682565b604080516001600160a01b039093168352901515602083015201620001ff565b6002546001600160a01b0316620001eb565b620001cb620005a536600462002588565b6200146a565b620005e2620005bc366004620026dc565b600560205260009081526040902080546001909101546001600160a01b03918216911682565b604080516001600160a01b03938416815292909116602083015201620001ff565b620001eb620006143660046200286e565b620015f0565b60006200062f836060015160a0015162001345565b90506001600160a01b0381163b156200068f5760405162461bcd60e51b815260206004820152601c60248201527f677561726469616e20697320616c7265616479206465706c6f7965640000000060448201526064015b60405180910390fd5b60006200069c8362000b40565b84519091508114620006e75760405162461bcd60e51b81526020600482015260136024820152721a5b9d985b1a59081d195b5c1b185d19481a59606a1b604482015260640162000686565b606084015160c0015115156001146200073a5760405162461bcd60e51b81526020600482015260146024820152736973436f646545786973742069732066616c736560601b604482015260640162000686565b6000846060015160a00151620007586002546001600160a01b031690565b606087015160a00151604051306024820152604481019190915260640160408051601f198184030181529181526020820180516001600160e01b0316632f84fd1f60e21b17905251620007ab906200235b565b620007b8929190620028c8565b8190604051809103906000f5905080158015620007d9573d6000803e3d6000fd5b509050806001600160a01b03811663a500125c620007ff6001546001600160a01b031690565b6040516001600160e01b031960e084901b1681526001600160a01b039091166004820152602401600060405180830381600087803b1580156200084157600080fd5b505af115801562000856573d6000803e3d6000fd5b50505050806001600160a01b03166397fc007c6200087c6000546001600160a01b031690565b6040516001600160e01b031960e084901b1681526001600160a01b039091166004820152602401600060405180830381600087803b158015620008be57600080fd5b505af1158015620008d3573d6000803e3d6000fd5b5050505060005b620008e462000ea6565b518110156200098d57816001600160a01b031663c4b84df4620009078362000b40565b6200091162000ea6565b8481518110620009255762000925620028f6565b60200260200101516040518363ffffffff1660e01b81526004016200094c9291906200290c565b600060405180830381600087803b1580156200096757600080fd5b505af11580156200097c573d6000803e3d6000fd5b505060019092019150620008da9050565b5060005b6200099b62000b98565b5181101562000a4457816001600160a01b031663c4b84df4620009be8362001134565b620009c862000b98565b8481518110620009dc57620009dc620028f6565b60200260200101516040518363ffffffff1660e01b815260040162000a039291906200290c565b600060405180830381600087803b15801562000a1e57600080fd5b505af115801562000a33573d6000803e3d6000fd5b505060019092019150620009919050565b5060405163ad3f5f9b60e01b81526001600160a01b0382169063ad3f5f9b9062000a73908990600401620029b4565b6020604051808303816000875af115801562000a93573d6000803e3d6000fd5b505050506040513d601f19601f8201168201806040525081019062000ab9919062002a4e565b5062000ad48486886020015189606001516080015162001b31565b505050505050565b3360008181526003602081905260408083208381556001810180546001600160a01b031990811690915560028201805490911690559091018290555182917f8154b6c5e1fc90d44b49808ef93f9739148d0821411890f8cd684385e24b9f1e91a250565b60408051600160208201526060918101829052600a608082015269414343455054414e434560b01b60a082015290810182905260009060c0015b60408051601f19818403018152919052805160209091012092915050565b60408051600180825281830190925260609160009190816020015b606081526020019060019003908162000bb35750506040805160078082526101008201909252919250602082015b606081526020019060019003908162000be1579050508160008151811062000c0d5762000c0d620028f6565b60200260200101819052506040518060400160405280600681526020016555706461746560d01b8152508160008151811062000c4d5762000c4d620028f6565b602002602001015160008151811062000c6a5762000c6a620028f6565b60200260200101819052506040518060400160405280600581526020016437bbb732b960d91b8152508160008151811062000ca95762000ca9620028f6565b602002602001015160018151811062000cc65762000cc6620028f6565b602002602001018190525060405180604001604052806002815260200161746f60f01b8152508160008151811062000d025762000d02620028f6565b602002602001015160028151811062000d1f5762000d1f620028f6565b6020026020010181905250604051806040016040528060098152602001687b657468416464727d60b81b8152508160008151811062000d625762000d62620028f6565b602002602001015160038151811062000d7f5762000d7f620028f6565b60200260200101819052506040518060400160405280600281526020016137b760f11b8152508160008151811062000dbb5762000dbb620028f6565b602002602001015160048151811062000dd85762000dd8620028f6565b6020026020010181905250604051806040016040528060078152602001661858d8dbdd5b9d60ca1b8152508160008151811062000e195762000e19620028f6565b602002602001015160058151811062000e365762000e36620028f6565b6020026020010181905250604051806040016040528060098152602001687b657468416464727d60b81b8152508160008151811062000e795762000e79620028f6565b602002602001015160068151811062000e965762000e96620028f6565b6020908102919091010152919050565b60408051600180825281830190925260609160009190816020015b606081526020019060019003908162000ec157505060408051600580825260c08201909252919250602082015b606081526020019060019003908162000eee579050508160008151811062000f1a5762000f1a620028f6565b6020026020010181905250604051806040016040528060068152602001651058d8d95c1d60d21b8152508160008151811062000f5a5762000f5a620028f6565b602002602001015160008151811062000f775762000f77620028f6565b60200260200101819052506040518060400160405280600881526020016733bab0b93234b0b760c11b8152508160008151811062000fb95762000fb9620028f6565b602002602001015160018151811062000fd65762000fd6620028f6565b6020026020010181905250604051806040016040528060078152602001661c995c5d595cdd60ca1b81525081600081518110620010175762001017620028f6565b6020026020010151600281518110620010345762001034620028f6565b6020026020010181905250604051806040016040528060038152602001623337b960e91b81525081600081518110620010715762001071620028f6565b60200260200101516003815181106200108e576200108e620028f6565b6020026020010181905250604051806040016040528060098152602001687b657468416464727d60b81b81525081600081518110620010d157620010d1620028f6565b602002602001015160048151811062000e965762000e96620028f6565b33600090815260056020908152604091829020825180840190935280546001600160a01b039081168085526001909201541691830182905262001131916200114c565b50565b600060018260405160200162000b7a92919062002a68565b6001600160a01b0380831660009081526003602081815260408084208151608081018352815480825260018301548816948201949094526002820154909616918601919091529091015460608401529003620011bb5760405163bd8190e360e01b815260040160405180910390fd5b805142106200132c576001600160a01b0383811660008181526003602081815260408084208481556001810180546001600160a01b0319908116909155600282018054909116905590920183905585810151868301518351898816602482015291871660448301529095166064808701919091528251808703909101815260849095018252840180516001600160e01b031663e318b52b60e01b1790525163468721a760e01b815263468721a7916200127e918891908690829060040162002a9b565b6020604051808303816000875af11580156200129e573d6000803e3d6000fd5b505050506040513d601f19601f82011682018060405250810190620012c4919062002ad8565b50836001600160a01b03167f7449a13209e865c6b020fb84226e885dc8ad41e95b6cf9b9c031c75af3a8a6fa836020015184604001516040516200131e9291906001600160a01b0392831681529116602082015260400190565b60405180910390a250505050565b604051636f972f6960e01b815260040160405180910390fd5b60006200140e82604051806020016200135e906200235b565b601f1982820381018352601f90910116604052620013846002546001600160a01b031690565b6040513060248201526044810187905260640160408051601f19818403018152918152602080830180516001600160e01b0316632f84fd1f60e21b1790529051620013d293929101620028c8565b60408051601f1981840301815290829052620013f2929160200162002af8565b6040516020818303038152906040528051906020012062001e25565b92915050565b33600081815260036020819052604091829020018390555181907f6cc6833b48f63f4c7b6ed0f3f5c71a6b81ac5befd07785a52fb93ff2c3c661a3906200145e9085815260200190565b60405180910390a25050565b60006200147f836060015160a0015162001345565b90506000816001600160a01b03163b11620014dd5760405162461bcd60e51b815260206004820152601860248201527f677561726469616e206973206e6f74206465706c6f7965640000000000000000604482015260640162000686565b6000600183604051602001620014f592919062002a68565b60408051601f19818403018152919052805160209091012084519091508114620015585760405162461bcd60e51b81526020600482015260136024820152721a5b9d985b1a59081d195b5c1b185d19481a59606a1b604482015260640162000686565b60405163ad3f5f9b60e01b815282906001600160a01b0382169063ad3f5f9b9062001588908890600401620029b4565b6020604051808303816000875af1158015620015a8573d6000803e3d6000fd5b505050506040513d601f19601f82011682018060405250810190620015ce919062002a4e565b50620015e98385876020015188606001516080015162001e3b565b5050505050565b604051632d9ad53d60e01b8152306004820152600090339082908290632d9ad53d90602401602060405180830381865afa15801562001633573d6000803e3d6000fd5b505050506040513d601f19601f8201168201806040525081019062001659919062002ad8565b9050806200167a576040516314771b5560e21b815260040160405180910390fd5b6001600160a01b038681166000908152600460205260409020541615620016e45760405162461bcd60e51b815260206004820152601a60248201527f677561726469616e20616c726561647920726571756573746564000000000000604482015260640162000686565b6040516317aa5fb760e11b81526001600160a01b03888116600483015260009190841690632f54bf6e90602401602060405180830381865afa1580156200172f573d6000803e3d6000fd5b505050506040513d601f19601f8201168201806040525081019062001755919062002ad8565b90508062001782576040516321b3d28b60e11b81526001600160a01b038916600482015260240162000686565b6001600160a01b03871660009081526003602052604090205415620017ba57604051630566edfd60e01b815260040160405180910390fd5b6001600160a01b038381166000908152600660205260409020541615620018335760405162461bcd60e51b815260206004820152602660248201527f726f7574657220636f6e747261637420666f72207361666520616c726561647960448201526520657869747360d01b606482015260840162000686565b600030604051620018449062002369565b6001600160a01b039091168152602001604051809103906000f08015801562001871573d6000803e3d6000fd5b506001600160a01b038082166000908152600560205260409020549196508692501615620018f55760405162461bcd60e51b815260206004820152602a60248201527f7361666520666f722074686520726f7574657220636f6e747261637420616c726044820152696561647920657869747360b01b606482015260840162000686565b6040805180820182526001600160a01b0380871680835289821660208085019182528a8416600081815260058352878120965187549087166001600160a01b031991821617885593516001909701805497909616968416969096179094559184526006909152929091208054909216179055621275008715620019755750865b6040518060800160405280600081526020018b6001600160a01b0316815260200160006001600160a01b031681526020018281525060036000876001600160a01b03166001600160a01b031681526020019081526020016000206000820151816000015560208201518160010160006101000a8154816001600160a01b0302191690836001600160a01b0316021790555060408201518160020160006101000a8154816001600160a01b0302191690836001600160a01b03160217905550606082015181600301559050506040518060400160405280866001600160a01b0316815260200160001515815250600460008b6001600160a01b03166001600160a01b0316815260200190815260200160002060008201518160000160006101000a8154816001600160a01b0302191690836001600160a01b0316021790555060208201518160000160146101000a81548160ff021916908315150217905550905050896001600160a01b0316856001600160a01b03167f63a1290efa0ec30c40bb0c55601be0b27a867671f7531df954d90a279c8d8ce48360405162001b1c91815260200190565b60405180910390a35050505050949350505050565b6001600160a01b03841662001b7c5760405162461bcd60e51b815260206004820152601060248201526f34b73b30b634b21033bab0b93234b0b760811b604482015260640162000686565b6001600160a01b038481166000908152600460205260409020541662001bde5760405162461bcd60e51b815260206004820152601660248201527519dd585c991a585b881b9bdd081c995c5d595cdd195960521b604482015260640162000686565b6001600160a01b038416600090815260046020526040902054600160a01b900460ff161562001c505760405162461bcd60e51b815260206004820152601d60248201527f677561726469616e2068617320616c7265616479206163636570746564000000604482015260640162000686565b821562001c995760405162461bcd60e51b81526020600482015260166024820152750d2dcecc2d8d2c840e8cadae0d8c2e8ca40d2dcc8caf60531b604482015260640162000686565b815160011462001ce55760405162461bcd60e51b8152602060048201526016602482015275696e76616c6964207375626a65637420706172616d7360501b604482015260640162000686565b60008260008151811062001cfd5762001cfd620028f6565b602002602001015180602001905181019062001d1a919062002b2b565b336000908152600560205260409020549091506001600160a01b03908116908216811462001d8b5760405162461bcd60e51b815260206004820152601a60248201527f696e76616c6964206163636f756e7420666f7220726f75746572000000000000604482015260640162000686565b6001600160a01b0386811660009081526004602052604090205481169083161462001df45760405162461bcd60e51b81526020600482015260186024820152771a5b9d985b1a59081858d8dbdd5b9d081a5b88195b585a5b60421b604482015260640162000686565b5050506001600160a01b039092166000908152600460205260409020805460ff60a01b1916600160a01b1790555050565b600062001e3483833062002331565b9392505050565b6001600160a01b03841662001e865760405162461bcd60e51b815260206004820152601060248201526f34b73b30b634b21033bab0b93234b0b760811b604482015260640162000686565b6001600160a01b038481166000908152600460205260409020541662001ee85760405162461bcd60e51b815260206004820152601660248201527519dd585c991a585b881b9bdd081c995c5d595cdd195960521b604482015260640162000686565b6001600160a01b038416600090815260046020526040902054600160a01b900460ff1662001f595760405162461bcd60e51b815260206004820152601960248201527f677561726469616e20686173206e6f7420616363657074656400000000000000604482015260640162000686565b821562001fa25760405162461bcd60e51b81526020600482015260166024820152750d2dcecc2d8d2c840e8cadae0d8c2e8ca40d2dcc8caf60531b604482015260640162000686565b815160021462001fee5760405162461bcd60e51b8152602060048201526016602482015275696e76616c6964207375626a65637420706172616d7360501b604482015260640162000686565b600082600081518110620020065762002006620028f6565b602002602001015180602001905181019062002023919062002b2b565b90506001600160a01b0381166200207d5760405162461bcd60e51b815260206004820152601a60248201527f696e76616c6964206e6577206f776e657220696e20656d61696c000000000000604482015260640162000686565b600083600181518110620020955762002095620028f6565b6020026020010151806020019051810190620020b2919062002b2b565b336000908152600560205260409020549091506001600160a01b039081169082168114620021235760405162461bcd60e51b815260206004820152601a60248201527f696e76616c6964206163636f756e7420666f7220726f75746572000000000000604482015260640162000686565b6001600160a01b038781166000908152600460205260409020548116908316146200218c5760405162461bcd60e51b81526020600482015260186024820152771a5b9d985b1a59081858d8dbdd5b9d081a5b88195b585a5b60421b604482015260640162000686565b6040516317aa5fb760e11b81526001600160a01b03848116600483015260009190841690632f54bf6e90602401602060405180830381865afa158015620021d7573d6000803e3d6000fd5b505050506040513d601f19601f82011682018060405250810190620021fd919062002ad8565b905080156200221f5760405163ecb9b1c760e01b815260040160405180910390fd5b6001600160a01b038084166000908152600360208181526040928390208351608081018552815480825260018301548716938201939093526002820154909516938501939093529101546060830152156200228d57604051630566edfd60e01b815260040160405180910390fd5b6001600160a01b038416600090815260036020819052604082200154620022b5904262002b4b565b6001600160a01b0386811660008181526003602090815260409182902085815560020180546001600160a01b031916948c16948517905581519384528301849052929350917fe290ea2cc3cfeb5114f992dc8be9e503de30042c13b9298644a2679b09e17a04910160405180910390a250505050505050505050565b6000604051836040820152846020820152828152600b8101905060ff815360559020949350505050565b61040a8062002b6e83390190565b610ed68062002f7883390190565b634e487b7160e01b600052604160045260246000fd5b604051610100810167ffffffffffffffff81118282101715620023b457620023b462002377565b60405290565b6040516080810167ffffffffffffffff81118282101715620023b457620023b462002377565b604051601f8201601f1916810167ffffffffffffffff811182821017156200240c576200240c62002377565b604052919050565b600082601f8301126200242657600080fd5b813567ffffffffffffffff81111562002443576200244362002377565b62002458601f8201601f1916602001620023e0565b8181528460208386010111156200246e57600080fd5b816020850160208301376000918101602001919091529392505050565b80151581146200113157600080fd5b8035620024a7816200248b565b919050565b60006101008284031215620024c057600080fd5b620024ca6200238d565b9050813567ffffffffffffffff80821115620024e557600080fd5b620024f38583860162002414565b8352602084013560208401526040840135604084015260608401359150808211156200251e57600080fd5b6200252c8583860162002414565b60608401526080840135608084015260a084013560a08401526200255360c085016200249a565b60c084015260e08401359150808211156200256d57600080fd5b506200257c8482850162002414565b60e08301525092915050565b600080604083850312156200259c57600080fd5b823567ffffffffffffffff80821115620025b557600080fd5b9084019060808287031215620025ca57600080fd5b620025d4620023ba565b8235815260208084013583811115620025ec57600080fd5b8401601f81018913620025fe57600080fd5b80358481111562002613576200261362002377565b8060051b62002624848201620023e0565b918252828101840191848101908c8411156200263f57600080fd5b85850192505b8383101562002680578235888111156200265f5760008081fd5b6200266f8e888389010162002414565b835250918501919085019062002645565b868601525050505060408481013590830152606084013583811115620026a557600080fd5b620026b389828701620024ac565b6060840152509097950135955050505050565b6001600160a01b03811681146200113157600080fd5b600060208284031215620026ef57600080fd5b813562001e3481620026c6565b6000602082840312156200270f57600080fd5b5035919050565b60005b838110156200273357818101518382015260200162002719565b50506000910152565b600081518084526200275681602086016020860162002716565b601f01601f19169290920160200192915050565b60008282518085526020808601955060208260051b8401016020860160005b84811015620027bb57601f19868403018952620027a88383516200273c565b9884019892509083019060010162002789565b5090979650505050505050565b600060208083016020845280855180835260408601915060408160051b87010192506020870160005b828110156200282357603f19888603018452620028108583516200276a565b94509285019290850190600101620027f1565b5092979650505050505050565b600080604083850312156200284457600080fd5b82356200285181620026c6565b915060208301356200286381620026c6565b809150509250929050565b600080600080608085870312156200288557600080fd5b84356200289281620026c6565b93506020850135620028a481620026c6565b9250604085013591506060850135620028bd81620026c6565b939692955090935050565b6001600160a01b0383168152604060208201819052600090620028ee908301846200273c565b949350505050565b634e487b7160e01b600052603260045260246000fd5b828152604060208201526000620028ee60408301846200276a565b600061010082518185526200293f828601826200273c565b9150506020830151602085015260408301516040850152606083015184820360608601526200296f82826200273c565b9150506080830151608085015260a083015160a085015260c0830151151560c085015260e083015184820360e0860152620029ab82826200273c565b95945050505050565b6000602080835260a08301845182850152818501516080604086015281815180845260c08701915060c08160051b8801019350848301925060005b8181101562002a215760bf1988860301835262002a0e8585516200273c565b94509285019291850191600101620029ef565b505050506040850151606085015260608501519150601f19848203016080850152620029ab818362002927565b60006020828403121562002a6157600080fd5b5051919050565b60ff929092168252606060208301819052600890830152675245434f5645525960c01b6080830152604082015260a00190565b60018060a01b038516815283602082015260806040820152600062002ac460808301856200273c565b905060ff8316606083015295945050505050565b60006020828403121562002aeb57600080fd5b815162001e34816200248b565b6000835162002b0c81846020880162002716565b83519083019062002b2281836020880162002716565b01949350505050565b60006020828403121562002b3e57600080fd5b815162001e3481620026c6565b808201808211156200140e57634e487b7160e01b600052601160045260246000fdfe608060405260405161040a38038061040a83398101604081905261002291610268565b61002c8282610033565b5050610352565b61003c82610092565b6040516001600160a01b038316907fbc7cd75a20ee27fd9adebab32041f755214dbc6bffa90cc0225b39da2e5c2d3b90600090a280511561008657610081828261010e565b505050565b61008e610185565b5050565b806001600160a01b03163b6000036100cd57604051634c9c8ce360e01b81526001600160a01b03821660048201526024015b60405180910390fd5b7f360894a13ba1a3210667c828492db98dca3e2076cc3735a920a3ca505d382bbc80546001600160a01b0319166001600160a01b0392909216919091179055565b6060600080846001600160a01b03168460405161012b9190610336565b600060405180830381855af49150503d8060008114610166576040519150601f19603f3d011682016040523d82523d6000602084013e61016b565b606091505b50909250905061017c8583836101a6565b95945050505050565b34156101a45760405163b398979f60e01b815260040160405180910390fd5b565b6060826101bb576101b682610205565b6101fe565b81511580156101d257506001600160a01b0384163b155b156101fb57604051639996b31560e01b81526001600160a01b03851660048201526024016100c4565b50805b9392505050565b8051156102155780518082602001fd5b604051630a12f52160e11b815260040160405180910390fd5b634e487b7160e01b600052604160045260246000fd5b60005b8381101561025f578181015183820152602001610247565b50506000910152565b6000806040838503121561027b57600080fd5b82516001600160a01b038116811461029257600080fd5b60208401519092506001600160401b03808211156102af57600080fd5b818501915085601f8301126102c357600080fd5b8151818111156102d5576102d561022e565b604051601f8201601f19908116603f011681019083821181831017156102fd576102fd61022e565b8160405282815288602084870101111561031657600080fd5b610327836020830160208801610244565b80955050505050509250929050565b60008251610348818460208701610244565b9190910192915050565b60aa806103606000396000f3fe6080604052600a600c565b005b60186014601a565b6051565b565b6000604c7f360894a13ba1a3210667c828492db98dca3e2076cc3735a920a3ca505d382bbc546001600160a01b031690565b905090565b3660008037600080366000845af43d6000803e808015606f573d6000f35b3d6000fdfea26469706673582212207cb927db5053fe1fe3a09b1b6b0b22c8af399dcb7fd9521a4b0181dc4547171764736f6c6343000817003360a060405234801561001057600080fd5b50604051610ed6380380610ed683398101604081905261002f91610040565b6001600160a01b0316608052610070565b60006020828403121561005257600080fd5b81516001600160a01b038116811461006957600080fd5b9392505050565b608051610dfe6100d86000396000818161016c015281816101c001528181610231015281816102cf0152818161034d015281816103d501528181610435015281816104930152818161051f0152818161056f015281816105e601526106590152610dfe6000f3fe608060405234801561001057600080fd5b50600436106100b45760003560e01c80636b0c717e116100715780636b0c717e146101395780636da995151461014157806381520782146101545780638d33886a14610167578063b62016921461018e578063b68126fa1461019657600080fd5b80630481af67146100b95780632b7ac3f3146100ce57806332ccc2f2146100f35780633e91cdcd14610114578063400ad5ce146101295780635bafadda14610131575b600080fd5b6100cc6100c73660046108a9565b6101a9565b005b6100d661022d565b6040516001600160a01b0390911681526020015b60405180910390f35b6101066101013660046109c0565b6102b6565b6040519081526020016100ea565b61011c610349565b6040516100ea9190610a29565b6100d66103d1565b61011c610431565b6100cc610491565b61010661014f3660046109c0565b610506565b6100d66101623660046109c0565b610556565b6100d67f000000000000000000000000000000000000000000000000000000000000000081565b6100d66105e2565b6100cc6101a43660046108a9565b610642565b604051630481af6760e01b81526001600160a01b037f00000000000000000000000000000000000000000000000000000000000000001690630481af67906101f79085908590600401610b56565b600060405180830381600087803b15801561021157600080fd5b505af1158015610225573d6000803e3d6000fd5b505050505050565b60007f00000000000000000000000000000000000000000000000000000000000000006001600160a01b0316632b7ac3f36040518163ffffffff1660e01b8152600401602060405180830381865afa15801561028d573d6000803e3d6000fd5b505050506040513d601f19601f820116820180604052508101906102b19190610bfd565b905090565b604051631966617960e11b8152600481018290526000907f00000000000000000000000000000000000000000000000000000000000000006001600160a01b0316906332ccc2f2906024015b602060405180830381865afa15801561031f573d6000803e3d6000fd5b505050506040513d601f19601f820116820180604052508101906103439190610c2d565b92915050565b60607f00000000000000000000000000000000000000000000000000000000000000006001600160a01b0316633e91cdcd6040518163ffffffff1660e01b8152600401600060405180830381865afa1580156103a9573d6000803e3d6000fd5b505050506040513d6000823e601f3d908101601f191682016040526102b19190810190610c46565b60007f00000000000000000000000000000000000000000000000000000000000000006001600160a01b031663400ad5ce6040518163ffffffff1660e01b8152600401602060405180830381865afa15801561028d573d6000803e3d6000fd5b60607f00000000000000000000000000000000000000000000000000000000000000006001600160a01b0316635bafadda6040518163ffffffff1660e01b8152600401600060405180830381865afa1580156103a9573d6000803e3d6000fd5b7f00000000000000000000000000000000000000000000000000000000000000006001600160a01b0316636b0c717e6040518163ffffffff1660e01b8152600401600060405180830381600087803b1580156104ec57600080fd5b505af1158015610500573d6000803e3d6000fd5b50505050565b604051636da9951560e01b8152600481018290526000907f00000000000000000000000000000000000000000000000000000000000000006001600160a01b031690636da9951590602401610302565b6040516340a903c160e11b8152600481018290526000907f00000000000000000000000000000000000000000000000000000000000000006001600160a01b031690638152078290602401602060405180830381865afa1580156105be573d6000803e3d6000fd5b505050506040513d601f19601f820116820180604052508101906103439190610bfd565b60007f00000000000000000000000000000000000000000000000000000000000000006001600160a01b031663b62016926040518163ffffffff1660e01b8152600401602060405180830381865afa15801561028d573d6000803e3d6000fd5b604051635b40937d60e11b81526001600160a01b037f0000000000000000000000000000000000000000000000000000000000000000169063b68126fa906101f79085908590600401610b56565b634e487b7160e01b600052604160045260246000fd5b604051610100810167ffffffffffffffff811182821017156106ca576106ca610690565b60405290565b6040516080810167ffffffffffffffff811182821017156106ca576106ca610690565b604051601f8201601f1916810167ffffffffffffffff8111828210171561071c5761071c610690565b604052919050565b600067ffffffffffffffff82111561073e5761073e610690565b5060051b60200190565b600067ffffffffffffffff82111561076257610762610690565b50601f01601f191660200190565b600082601f83011261078157600080fd5b813561079461078f82610748565b6106f3565b8181528460208386010111156107a957600080fd5b816020850160208301376000918101602001919091529392505050565b803580151581146107d657600080fd5b919050565b600061010082840312156107ee57600080fd5b6107f66106a6565b9050813567ffffffffffffffff8082111561081057600080fd5b61081c85838601610770565b83526020840135602084015260408401356040840152606084013591508082111561084657600080fd5b61085285838601610770565b60608401526080840135608084015260a084013560a084015261087760c085016107c6565b60c084015260e084013591508082111561089057600080fd5b5061089d84828501610770565b60e08301525092915050565b600080604083850312156108bc57600080fd5b823567ffffffffffffffff808211156108d457600080fd5b90840190608082870312156108e857600080fd5b6108f06106d0565b823581526020808401358381111561090757600080fd5b8401601f8101891361091857600080fd5b803561092661078f82610724565b81815260059190911b8201830190838101908b83111561094557600080fd5b8484015b8381101561097d578035888111156109615760008081fd5b61096f8e8883890101610770565b845250918501918501610949565b5085850152505050604084810135908301526060840135838111156109a157600080fd5b6109ad898287016107db565b6060840152509097950135955050505050565b6000602082840312156109d257600080fd5b5035919050565b60005b838110156109f45781810151838201526020016109dc565b50506000910152565b60008151808452610a158160208601602086016109d9565b601f01601f19169290920160200192915050565b600060208083018184528085518083526040860191506005925060408160051b8701018488016000805b84811015610ac057898403603f19018652825180518086529089019089860190808a1b87018b01855b82811015610aaa57601f19898303018452610a988286516109fd565b948d0194938d01939150600101610a7c565b50988b0198965050509288019250600101610a53565b50919998505050505050505050565b60006101008251818552610ae5828601826109fd565b915050602083015160208501526040830151604085015260608301518482036060860152610b1382826109fd565b9150506080830151608085015260a083015160a085015260c0830151151560c085015260e083015184820360e0860152610b4d82826109fd565b95945050505050565b60408152600060c08201845160408401526020808601516080606086015282815180855260e08701915060e08160051b880101945060208301925060005b81811015610bc25760df19888703018352610bb08685516109fd565b95509284019291840191600101610b94565b5050505060408601516080850152506060850151838203603f190160a0850152610bec8282610acf565b925050508260208301529392505050565b600060208284031215610c0f57600080fd5b81516001600160a01b0381168114610c2657600080fd5b9392505050565b600060208284031215610c3f57600080fd5b5051919050565b600060208284031215610c5857600080fd5b815167ffffffffffffffff811115610c6f57600080fd5b83601f8285010112610c8057600080fd5b80830151610c9061078f82610724565b8082825260208201915060208360051b8588010101925086831115610cb457600080fd5b6020848701015b83811015610dbd57805167ffffffffffffffff811115610cda57600080fd5b87860101603f81018913610ced57600080fd5b6020810151610cfe61078f82610724565b808282526020820191508b60408460051b8601011115610d1d57600080fd5b604084015b60408460051b860101811015610da757805167ffffffffffffffff811115610d4957600080fd5b8d605f8288010112610d5a57600080fd5b60408187010151610d6d61078f82610748565b8181528f606083858b0101011115610d8457600080fd5b610d9782602083016060868c01016109d9565b8552505060209283019201610d22565b5086525050602093840193919091019050610cbb565b50969550505050505056fea264697066735822122035dce6d34ed82148eefed76d8396f06a7172f27053a9400b522d7b75598ffd1f64736f6c63430008170033a26469706673582212201f9cb44f8a46973a5c3fdcd060ab36bebb98039add3d1e4b4330bb303c5da49764736f6c63430008170033","linkReferences":{}},"methodIdentifiers":{"acceptanceSubjectTemplates()":"5bafadda","cancelRecovery()":"0ba234d6","completeRecovery()":"6b0c717e","computeAcceptanceTemplateId(uint256)":"32ccc2f2","computeEmailAuthAddress(bytes32)":"81520782","computeRecoveryTemplateId(uint256)":"6da99515","configureRecovery(address,address,uint256,address)":"ffe15544","defaultDelay()":"27e72e41","dkim()":"400ad5ce","dkimAddr()":"73357f85","emailAuthImplementation()":"b6201692","emailAuthImplementationAddr()":"1098e02e","getGuardianRequest(address)":"28ef5437","getRecoveryRequest(address)":"4f9a28b9","getRouterForSafe(address)":"2b7e3b09","guardianRequests(address)":"b401b376","handleAcceptance((uint256,bytes[],uint256,(string,bytes32,uint256,string,bytes32,bytes32,bool,bytes)),uint256)":"0481af67","handleRecovery((uint256,bytes[],uint256,(string,bytes32,uint256,string,bytes32,bytes32,bool,bytes)),uint256)":"b68126fa","recoverPlugin(address,address)":"80b1c5cf","recoveryRequests(address)":"a1b097c5","recoveryRouterToSafeInfo(address)":"e065fe6f","recoverySubjectTemplates()":"3e91cdcd","safeAddrToRecoveryRouter(address)":"7a528d86","setRecoveryDelay(uint256)":"8eb8bd8f","verifier()":"2b7ac3f3","verifierAddr()":"663ea2e2"},"id":105}