{"abi":[{"type":"fallback","stateMutability":"payable"},{"type":"receive","stateMutability":"payable"},{"type":"function","name":"accountId","inputs":[],"outputs":[{"name":"accountImplementationId","type":"string","internalType":"string"}],"stateMutability":"view"},{"type":"function","name":"domainSeparator","inputs":[],"outputs":[{"name":"","type":"bytes32","internalType":"bytes32"}],"stateMutability":"view"},{"type":"function","name":"entryPoint","inputs":[],"outputs":[{"name":"","type":"address","internalType":"address"}],"stateMutability":"view"},{"type":"function","name":"execute","inputs":[{"name":"mode","type":"bytes32","internalType":"ModeCode"},{"name":"executionCalldata","type":"bytes","internalType":"bytes"}],"outputs":[],"stateMutability":"payable"},{"type":"function","name":"executeFromExecutor","inputs":[{"name":"mode","type":"bytes32","internalType":"ModeCode"},{"name":"executionCalldata","type":"bytes","internalType":"bytes"}],"outputs":[{"name":"returnDatas","type":"bytes[]","internalType":"bytes[]"}],"stateMutability":"payable"},{"type":"function","name":"getActiveHook","inputs":[],"outputs":[{"name":"hook","type":"address","internalType":"address"}],"stateMutability":"view"},{"type":"function","name":"getActiveHook","inputs":[{"name":"selector","type":"bytes4","internalType":"bytes4"}],"outputs":[{"name":"hook","type":"address","internalType":"address"}],"stateMutability":"view"},{"type":"function","name":"getExecutorsPaginated","inputs":[{"name":"cursor","type":"address","internalType":"address"},{"name":"size","type":"uint256","internalType":"uint256"}],"outputs":[{"name":"array","type":"address[]","internalType":"address[]"},{"name":"next","type":"address","internalType":"address"}],"stateMutability":"view"},{"type":"function","name":"getNonce","inputs":[{"name":"safe","type":"address","internalType":"address"},{"name":"validator","type":"address","internalType":"address"}],"outputs":[{"name":"nonce","type":"uint256","internalType":"uint256"}],"stateMutability":"view"},{"type":"function","name":"getValidatorPaginated","inputs":[{"name":"start","type":"address","internalType":"address"},{"name":"pageSize","type":"uint256","internalType":"uint256"}],"outputs":[{"name":"array","type":"address[]","internalType":"address[]"},{"name":"next","type":"address","internalType":"address"}],"stateMutability":"view"},{"type":"function","name":"initializeAccount","inputs":[{"name":"validators","type":"tuple[]","internalType":"struct ModuleInit[]","components":[{"name":"module","type":"address","internalType":"address"},{"name":"initData","type":"bytes","internalType":"bytes"}]},{"name":"executors","type":"tuple[]","internalType":"struct ModuleInit[]","components":[{"name":"module","type":"address","internalType":"address"},{"name":"initData","type":"bytes","internalType":"bytes"}]},{"name":"fallbacks","type":"tuple[]","internalType":"struct ModuleInit[]","components":[{"name":"module","type":"address","internalType":"address"},{"name":"initData","type":"bytes","internalType":"bytes"}]},{"name":"hooks","type":"tuple[]","internalType":"struct ModuleInit[]","components":[{"name":"module","type":"address","internalType":"address"},{"name":"initData","type":"bytes","internalType":"bytes"}]},{"name":"registryInit","type":"tuple","internalType":"struct RegistryInit","components":[{"name":"registry","type":"address","internalType":"contract IERC7484"},{"name":"attesters","type":"address[]","internalType":"address[]"},{"name":"threshold","type":"uint8","internalType":"uint8"}]}],"outputs":[],"stateMutability":"payable"},{"type":"function","name":"installModule","inputs":[{"name":"moduleType","type":"uint256","internalType":"uint256"},{"name":"module","type":"address","internalType":"address"},{"name":"initData","type":"bytes","internalType":"bytes"}],"outputs":[],"stateMutability":"payable"},{"type":"function","name":"isModuleInstalled","inputs":[{"name":"moduleType","type":"uint256","internalType":"uint256"},{"name":"module","type":"address","internalType":"address"},{"name":"additionalContext","type":"bytes","internalType":"bytes"}],"outputs":[{"name":"","type":"bool","internalType":"bool"}],"stateMutability":"view"},{"type":"function","name":"isValidSignature","inputs":[{"name":"hash","type":"bytes32","internalType":"bytes32"},{"name":"data","type":"bytes","internalType":"bytes"}],"outputs":[{"name":"magicValue","type":"bytes4","internalType":"bytes4"}],"stateMutability":"view"},{"type":"function","name":"launchpadValidators","inputs":[{"name":"validators","type":"tuple[]","internalType":"struct ModuleInit[]","components":[{"name":"module","type":"address","internalType":"address"},{"name":"initData","type":"bytes","internalType":"bytes"}]}],"outputs":[],"stateMutability":"payable"},{"type":"function","name":"setRegistry","inputs":[{"name":"registry","type":"address","internalType":"contract IERC7484"},{"name":"attesters","type":"address[]","internalType":"address[]"},{"name":"threshold","type":"uint8","internalType":"uint8"}],"outputs":[],"stateMutability":"nonpayable"},{"type":"function","name":"supportsExecutionMode","inputs":[{"name":"encodedMode","type":"bytes32","internalType":"ModeCode"}],"outputs":[{"name":"supported","type":"bool","internalType":"bool"}],"stateMutability":"pure"},{"type":"function","name":"supportsModule","inputs":[{"name":"moduleTypeId","type":"uint256","internalType":"uint256"}],"outputs":[{"name":"","type":"bool","internalType":"bool"}],"stateMutability":"pure"},{"type":"function","name":"uninstallModule","inputs":[{"name":"moduleType","type":"uint256","internalType":"uint256"},{"name":"module","type":"address","internalType":"address"},{"name":"deInitData","type":"bytes","internalType":"bytes"}],"outputs":[],"stateMutability":"payable"},{"type":"function","name":"validateUserOp","inputs":[{"name":"userOp","type":"tuple","internalType":"struct PackedUserOperation","components":[{"name":"sender","type":"address","internalType":"address"},{"name":"nonce","type":"uint256","internalType":"uint256"},{"name":"initCode","type":"bytes","internalType":"bytes"},{"name":"callData","type":"bytes","internalType":"bytes"},{"name":"accountGasLimits","type":"bytes32","internalType":"bytes32"},{"name":"preVerificationGas","type":"uint256","internalType":"uint256"},{"name":"gasFees","type":"bytes32","internalType":"bytes32"},{"name":"paymasterAndData","type":"bytes","internalType":"bytes"},{"name":"signature","type":"bytes","internalType":"bytes"}]},{"name":"userOpHash","type":"bytes32","internalType":"bytes32"},{"name":"missingAccountFunds","type":"uint256","internalType":"uint256"}],"outputs":[{"name":"validSignature","type":"uint256","internalType":"uint256"}],"stateMutability":"payable"},{"type":"event","name":"ERC7484RegistryConfigured","inputs":[{"name":"smartAccount","type":"address","indexed":true,"internalType":"address"},{"name":"registry","type":"address","indexed":true,"internalType":"contract IERC7484"}],"anonymous":false},{"type":"event","name":"ModuleInstalled","inputs":[{"name":"moduleTypeId","type":"uint256","indexed":false,"internalType":"uint256"},{"name":"module","type":"address","indexed":false,"internalType":"address"}],"anonymous":false},{"type":"event","name":"ModuleUninstalled","inputs":[{"name":"moduleTypeId","type":"uint256","indexed":false,"internalType":"uint256"},{"name":"module","type":"address","indexed":false,"internalType":"address"}],"anonymous":false},{"type":"event","name":"Safe7579Initialized","inputs":[{"name":"safe","type":"address","indexed":true,"internalType":"address"}],"anonymous":false},{"type":"event","name":"TryExecutionFailed","inputs":[{"name":"safe","type":"address","indexed":false,"internalType":"contract ISafe"},{"name":"numberInBatch","type":"uint256","indexed":false,"internalType":"uint256"}],"anonymous":false},{"type":"event","name":"TryExecutionsFailed","inputs":[{"name":"safe","type":"address","indexed":false,"internalType":"contract ISafe"},{"name":"success","type":"bool[]","indexed":false,"internalType":"bool[]"}],"anonymous":false},{"type":"error","name":"AccountAccessUnauthorized","inputs":[]},{"type":"error","name":"AccountInitializationFailed","inputs":[]},{"type":"error","name":"ExecutionFailed","inputs":[]},{"type":"error","name":"FallbackInstalled","inputs":[{"name":"msgSig","type":"bytes4","internalType":"bytes4"}]},{"type":"error","name":"HookAlreadyInstalled","inputs":[{"name":"currentHook","type":"address","internalType":"address"}]},{"type":"error","name":"HookPostCheckFailed","inputs":[]},{"type":"error","name":"InitializerError","inputs":[]},{"type":"error","name":"InvalidFallbackHandler","inputs":[{"name":"msgSig","type":"bytes4","internalType":"bytes4"}]},{"type":"error","name":"InvalidHookType","inputs":[]},{"type":"error","name":"InvalidInitData","inputs":[{"name":"safe","type":"address","internalType":"address"}]},{"type":"error","name":"InvalidInput","inputs":[]},{"type":"error","name":"InvalidModule","inputs":[{"name":"module","type":"address","internalType":"address"}]},{"type":"error","name":"LinkedListError","inputs":[]},{"type":"error","name":"LinkedList_AlreadyInitialized","inputs":[]},{"type":"error","name":"LinkedList_AlreadyInitialized","inputs":[]},{"type":"error","name":"LinkedList_EntryAlreadyInList","inputs":[{"name":"entry","type":"address","internalType":"address"}]},{"type":"error","name":"LinkedList_EntryAlreadyInList","inputs":[{"name":"entry","type":"address","internalType":"address"}]},{"type":"error","name":"LinkedList_InvalidEntry","inputs":[{"name":"entry","type":"address","internalType":"address"}]},{"type":"error","name":"LinkedList_InvalidEntry","inputs":[{"name":"entry","type":"address","internalType":"address"}]},{"type":"error","name":"LinkedList_InvalidPage","inputs":[]},{"type":"error","name":"LinkedList_InvalidPage","inputs":[]},{"type":"error","name":"NoFallbackHandler","inputs":[{"name":"msgSig","type":"bytes4","internalType":"bytes4"}]},{"type":"error","name":"UnsupportedCallType","inputs":[{"name":"callType","type":"bytes1","internalType":"CallType"}]},{"type":"error","name":"UnsupportedExecType","inputs":[{"name":"execType","type":"bytes1","internalType":"ExecType"}]},{"type":"error","name":"UnsupportedModuleType","inputs":[{"name":"moduleTypeId","type":"uint256","internalType":"uint256"}]},{"type":"error","name":"ValidatorStorageHelperError","inputs":[]}],"bytecode":{"object":"0x6080604052348015600f57600080fd5b50604051601a90605a565b604051809103906000f0801580156035573d6000803e3d6000fd5b50600080546001600160a01b0319166001600160a01b03929092169190911790556067565b6109d880614ab083390190565b614a3a806100766000396000f3fe6080604052600436106101235760003560e01c8063b0d691fe116100a0578063e9ae5c5311610064578063e9ae5c531461040f578063ea5f61d014610422578063eab77e1714610442578063f2dc691d14610462578063f698da25146104825761012a565b8063b0d691fe14610340578063b875d5d814610363578063d03c7914146103af578063d691c964146103cf578063d828435d146103ef5761012a565b80636a5e1515116100e75780636a5e1515146102b757806385571368146102ca5780639517e29f146102f85780639cfd7cff1461030b578063a71763a81461032d5761012a565b80630a664dba146101d4578063112d3a7d146102185780631626ba7e1461024857806319822f7c14610281578063540fb4f9146102a25761012a565b3661012a57005b600036606060003560e01c63bc197c81811463f23a6e6182141763150b7a028214171561015b57806020526020603cf35b5033600090815260056020908152604080832054600683528184206001600160e01b031985351680865293529083205491926001600160a01b039182169290911690806101a88484610497565b915091506101b68888610555565b95506101c484848484610669565b5050505050915050805190602001f35b3480156101e057600080fd5b50336000908152600560205260409020546001600160a01b03165b6040516001600160a01b0390911681526020015b60405180910390f35b34801561022457600080fd5b506102386102333660046139ff565b6106ec565b604051901515815260200161020f565b34801561025457600080fd5b50610268610263366004613a5a565b610749565b6040516001600160e01b0319909116815260200161020f565b61029461028f366004613aa5565b6109de565b60405190815260200161020f565b6102b56102b0366004613b54565b610af2565b005b6102b56102c5366004613c3a565b610b3f565b3480156102d657600080fd5b506102ea6102e5366004613c7b565b610ba0565b60405161020f929190613ca7565b6102b56103063660046139ff565b610bbc565b34801561031757600080fd5b50610320610d61565b60405161020f9190613d5a565b6102b561033b3660046139ff565b610df3565b34801561034c57600080fd5b506f71727de22e5e9d8baf0edac6f37da0326101fb565b34801561036f57600080fd5b506101fb61037e366004613d83565b3360009081526006602090815260408083206001600160e01b0319909416835292905220546001600160a01b031690565b3480156103bb57600080fd5b506102386103ca366004613da0565b610f5f565b6103e26103dd366004613a5a565b611007565b60405161020f9190613db9565b3480156103fb57600080fd5b5061029461040a366004613e1d565b6110d3565b6102b561041d366004613a5a565b611173565b34801561042e57600080fd5b506102ea61043d366004613c7b565b611518565b34801561044e57600080fd5b506102b561045d366004613e67565b611542565b34801561046e57600080fd5b5061023861047d366004613da0565b6115b1565b34801561048e57600080fd5b50610294611600565b6060806001600160a01b03841615610517576104fe338560006104b8611659565b346000366040516024016104cf9493929190613ef6565b60408051601f198184030181529190526020810180516001600160e01b031663d68f602560e01b179052611665565b9150818060200190518101906105149190613fea565b91505b6001600160a01b0383161561054e57610535338460006104b8611659565b90508080602001905181019061054b9190613fea565b90505b9250929050565b3360009081526004602090815260408083206001600160e01b0319843516845290915290208054606091906001600160a01b03811690600160a01b900460f81b816105c657604051632464e76d60e11b81526001600160e01b03196000351660048201526024015b60405180910390fd5b6105d481607f60f91b61170e565b156106185761060e338388886105e8611659565b6040516020016105fa9392919061401e565b604051602081830303815290604052611720565b9350505050610663565b61062381600061170e565b1561065f5761060e338360008989610639611659565b60405160200161064b9392919061401e565b604051602081830303815290604052611665565b5050505b92915050565b6001600160a01b038416156106bf576106bf33856000856040516024016106909190613d5a565b60408051601f198184030181529190526020810180516001600160e01b0316630b9dfbed60e11b1790526117e0565b6001600160a01b038316156106e6576106e633846000846040516024016106909190613d5a565b50505050565b600060018503610706576106ff8461187f565b9050610741565b60028503610717576106ff8461188d565b6003850361072a576106ff8484846118a6565b6004850361073d576106ff8484846118f3565b5060005b949350505050565b600033821580156107c15750604051635ae6bd3760e01b8152600481018690526001600160a01b03821690635ae6bd3790602401602060405180830381865afa15801561079a573d6000803e3d6000fd5b505050506040513d601f19601f820116820180604052508101906107be9190614044565b15155b156107d65750630b135d3f60e11b90506109d7565b60006107e5601482868861405d565b6107ee91614087565b60601c905080158061080657506108048161187f565b155b1561095c5760006108d1836001600160a01b031663f698da256040518163ffffffff1660e01b8152600401602060405180830381865afa15801561084e573d6000803e3d6000fd5b505050506040513d601f19601f820116820180604052508101906108729190614044565b60408051602081018b90527f60b3cbf8b4a223d68d641b3b6ddf9a298e7f33710cf3d3a9d1146b5a6150fbca910160408051601f198184030181528282528051602091820120908301520160405160208183030381529060405261192e565b805160208201209091506001600160a01b03841663934f3a1182846108f98a6014818e61405d565b6040518563ffffffff1660e01b815260040161091894939291906140bc565b60006040518083038186803b15801561093057600080fd5b505afa158015610944573d6000803e3d6000fd5b50630b135d3f60e11b97506109d79650505050505050565b60006109bb338361096b611659565b8a6109798a6014818e61405d565b60405160240161098c9493929190613ef6565b60408051601f198184030181529190526020810180516001600160e01b0316637aa8f17760e11b179052611720565b9050808060200190518101906109d191906140f3565b93505050505b9392505050565b60006f71727de22e5e9d8baf0edac6f37da0326109f9611659565b6001600160a01b031614610a2057604051635629665f60e11b815260040160405180910390fd5b6020840135606081901c90811580610a3e5750610a3c8261187f565b155b15610a5357610a4c866119a8565b9250610ab8565b6000610a9e338460008a8a604051602401610a6f929190614155565b60408051601f198184030181529190526020810180516001600160e01b0316639700320360e01b179052611665565b905080806020019051810190610ab49190614044565b9350505b8315610ae957610ae9336f71727de22e5e9d8baf0edac6f37da03286604051806020016040528060008152506117e0565b50509392505050565b610b24610b026020830183614254565b610b0f6020840184614271565b610b1f60608601604087016142ba565b611a4e565b610b348989898989898989611afc565b505050505050505050565b610b4a600233611d3f565b8060005b818110156106e65736848483818110610b6957610b696142d5565b9050602002810190610b7b91906142eb565b9050610b9733610b8e6020840184614254565b60029190611dba565b50600101610b4e565b60606000610bb16002338686611eaf565b915091509250929050565b3360009081526005602090815260408083205460068352818420639517e29f60e01b80865293529083205491926001600160a01b03918216929091169080610c048484610497565b91509150610c1f6f71727de22e5e9d8baf0edac6f37da03290565b6001600160a01b0316610c30611659565b6001600160a01b03161480610c5d5750610c48611659565b6001600160a01b0316336001600160a01b0316145b610c7a57604051635629665f60e11b815260040160405180910390fd5b606060018a03610c9657610c8f898989612073565b9050610cfb565b60028a03610ca957610c8f8989896120cf565b60038a03610cbc57610c8f898989612139565b60048a03610ccf57610c8f89898961227a565b89610cdf57610c8f8989896123f9565b60405163041c38b360e41b8152600481018b90526024016105bd565b600054604051610d549133916001600160a01b0390911690610d25908e908e90879060240161430b565b60408051601f198184030181529190526020810180516001600160e01b0316639517e29f60e01b179052612581565b50610b3484848484610669565b60606000336001600160a01b031663ffa1ad746040518163ffffffff1660e01b8152600401600060405180830381865afa158015610da3573d6000803e3d6000fd5b505050506040513d6000823e601f3d908101601f19168201604052610dcb9190810190614335565b905080604051602001610dde919061437d565b60405160208183030381529060405291505090565b33600090815260056020908152604080832054600683528184206314e2ec7560e31b80865293529083205491926001600160a01b03918216929091169080610e3b8484610497565b91509150610e566f71727de22e5e9d8baf0edac6f37da03290565b6001600160a01b0316610e67611659565b6001600160a01b03161480610e945750610e7f611659565b6001600160a01b0316336001600160a01b0316145b610eb157604051635629665f60e11b815260040160405180910390fd5b606060018a03610ecd57610ec689898961261a565b9050610f06565b60028a03610ee057610ec6898989612643565b60038a03610ef357610ec6898989612670565b60048a03610cdf57610ec68989896126be565b600054604051610d549133916001600160a01b0390911690610f30908e908e90879060240161430b565b60408051601f198184030181529190526020810180516001600160e01b0316637827252560e01b179052612776565b600081600881901b610f7582600160f81b61170e565b15610f835760019250610fc6565b610f8e82600061170e565b15610f9c5760019250610fc6565b610fae826001600160f81b031961170e565b15610fbc5760019250610fc6565b5060009392505050565b828015610fd95750610fd981600061170e565b15610fe5575050919050565b828015610ffb5750610ffb81600160f81b61170e565b15610fbc575050919050565b6060611019611014611659565b61188d565b61104a57611025611659565b604051635c93ff2f60e11b81526001600160a01b0390911660048201526024016105bd565b33600090815260056020908152604080832054600683528184206335a4725960e21b80865293529083205491926001600160a01b039182169290911690806110928484610497565b915091503360026110a3828261282c565b8a600881901b6110b581838e8e6128b7565b9950505050506110c784848484610669565b50505050509392505050565b6000602082901b640100000000600160c01b03166f71727de22e5e9d8baf0edac6f37da032604051631aab3f0d60e11b81526001600160a01b0386811660048301526001600160c01b038416602483015291909116906335567e1a90604401602060405180830381865afa15801561114f573d6000803e3d6000fd5b505050506040513d601f19601f820116820180604052508101906107419190614044565b336000908152600560209081526040808320546006835281842063e9ae5c5360e01b80865293529083205491926001600160a01b039182169290911690806111bb8484610497565b915091506111d66f71727de22e5e9d8baf0edac6f37da03290565b6001600160a01b03166111e7611659565b6001600160a01b0316148061121457506111ff611659565b6001600160a01b0316336001600160a01b0316145b61123157604051635629665f60e11b815260040160405180910390fd5b87600881901b3361124382600061170e565b156113a65761125683600160f81b61170e565b156112775789358a01602081019035611270838383612c73565b50506114ff565b61128283600061170e565b156112ea576000803660006112978e8e612cca565b93509350935093506112e185858585858080601f0160208091040260200160405190810160405280939291908181526020018383808284376000920191909152506117e092505050565b505050506114ff565b6112fc836001600160f81b031961170e565b156113815760006113106014828c8e61405d565b61131991614087565b60601c90503660008c8c60149080926113349392919061405d565b91509150611379848484848080601f01602080910402602001604051908101604052809392919081815260200183838082843760009201919091525061258192505050565b5050506114ff565b604051632e5bf3f960e21b81526001600160f81b0319841660048201526024016105bd565b6113b482600160f81b61170e565b156114da576113c783600160f81b61170e565b156113e15789358a01602081019035611270838383612d1b565b6113ec83600061170e565b1561144b576000803660006114018e8e612cca565b93509350935093506112e185858585858080601f016020809104026020016040519081016040528093929190818152602001838380828437600092019190915250612d7292505050565b61145d836001600160f81b031961170e565b156113815760006114716014828c8e61405d565b61147a91614087565b60601c90503660008c8c60149080926114959392919061405d565b91509150611379848484848080601f01602080910402602001604051908101604052809392919081815260200183838082843760009201919091525061277692505050565b6040516308c3ee0360e11b81526001600160f81b0319831660048201526024016105bd565b50505061150e84848484610669565b5050505050505050565b33600090815260036020526040812060609190611536818686612e28565b92509250509250929050565b6f71727de22e5e9d8baf0edac6f37da03261155b611659565b6001600160a01b031614806115885750611573611659565b6001600160a01b0316336001600160a01b0316145b6115a557604051635629665f60e11b815260040160405180910390fd5b6106e684848484611a4e565b6000600182036115c357506001919050565b600282036115d357506001919050565b600382036115e357506001919050565b600482036115f357506001919050565b506000919050565b919050565b604080517f47e79534a245952e8b16893a336b85a3d9ea9fa8c573f3d803afb92a794692186020820152469181019190915230606082015260009060800160405160208183030381529060405280519060200120905090565b60131936013560601c90565b60606000856001600160a01b0316635229073f86868660006040518563ffffffff1660e01b815260040161169c94939291906143c3565b6000604051808303816000875af11580156116bb573d6000803e3d6000fd5b505050506040513d6000823e601f3d908101601f191682016040526116e3919081019061440e565b925090508061170557604051632b3f6d1160e21b815260040160405180910390fd5b50949350505050565b6001600160f81b031990811691161490565b60606000838360405160240161173792919061445b565b60408051601f198184030181529181526020820180516001600160e01b0316636a22165760e01b17905260008054915192935091611783916001600160a01b031690849060240161445b565b60408051601f19818403018152919052602080820180516001600160e01b031663b4faba0960e01b17815282519293509091600091895afa5060203d036040519350808401604052806020853e50600051610ae957825160208401fd5b60405163468721a760e01b81526000906001600160a01b0386169063468721a7906118159087908790879087906004016143c3565b6020604051808303816000875af1158015611834573d6000803e3d6000fd5b505050506040513d601f19601f82011682018060405250810190611858919061447f565b90508061187857604051632b3f6d1160e21b815260040160405180910390fd5b5050505050565b600061066360023384612fd4565b3360009081526003602052604081206109d78184613018565b6000806118b583850185613d83565b3360009081526004602090815260408083206001600160e01b0319909416835292905220546001600160a01b03908116908616149150509392505050565b60008080611903848601866144a9565b9150915060006119138383613052565b6001600160a01b039081169088161493505050509392505050565b6060601960f81b600160f81b85858560405160200161194e9291906144d5565b60408051808303601f190181529082905280516020918201206001600160f81b0319958616918301919091529290931660218401526022830152604282015260620160405160208183030381529060405290509392505050565b6000806000803660006119ba876130ea565b8451602086012060405163934f3a1160e01b8152959a5093985091965094509250339163934f3a11916119f5918990879087906004016140bc565b60006040518083038186803b158015611a0d57600080fd5b505afa925050508015611a1e575060015b611a3557611a2e600184866132ff565b9550611a44565b611a41600084866132ff565b95505b5050505050919050565b3360008181526001602052604080822080546001600160a01b0319166001600160a01b03891617905551611ac092918791611a91908690899089906024016144fb565b60408051601f198184030181529190526020810180516001600160e01b031663f05c04e160e01b1790526117e0565b6040516001600160a01b0385169033907f9452c8fb077c3ea8f28a77c87488af657b1e44d010ad9a5992d73870da040e9490600090a350505050565b3360009081527fe90b7bceb6e7df5418fb78d8ee546e97c83a08bbccc01a0644d599ccd2a7c2e0602052604090205487906001600160a01b0316611ba957611b45600233611d3f565b60005b81811015611ba357368a8a83818110611b6357611b636142d5565b9050602002810190611b7591906142eb565b9050611b99611b876020830183614254565b611b946020840184614556565b612073565b5050600101611b48565b50611bca565b8015611bca5760405163d8e3ed1b60e01b81523360048201526024016105bd565b336000908152600360205260409020611be281613337565b86915060005b82811015611c435736898983818110611c0357611c036142d5565b9050602002810190611c1591906142eb565b9050611c39611c276020830183614254565b611c346020840184614556565b6120cf565b5050600101611be8565b5084915060005b82811015611ca55736878783818110611c6557611c656142d5565b9050602002810190611c7791906142eb565b9050611c9b611c896020830183614254565b611c966020840184614556565b612139565b5050600101611c4a565b5082915060005b82811015611d075736858583818110611cc757611cc76142d5565b9050602002810190611cd991906142eb565b9050611cfd611ceb6020830183614254565b611cf86020840184614556565b61227a565b5050600101611cac565b5060405133907ff48581d8a62b775b74f2fb67f1d5806a9a356fbcc598040ab3071d3e37af40c290600090a250505050505050505050565b60016000908152602083815260408083206001600160a01b0380861685529252909120541615611d82576040516329e42f3360e11b815260040160405180910390fd5b60016000818152602093845260408082206001600160a01b0394909416825292909352912080546001600160a01b0319169091179055565b6001600160a01b0381161580611dd957506001600160a01b0381166001145b15611e0257604051637c84ecfb60e01b81526001600160a01b03821660048201526024016105bd565b6001600160a01b0381811660009081526020858152604080832086851684529091529020541615611e5157604051631034f46960e21b81526001600160a01b03821660048201526024016105bd565b60016000908152602084815260408083206001600160a01b039586168085528184528285208054968816808752988552838620918652908452919093208054949095166001600160a01b031994851617909455528154169091179055565b606060006001600160a01b038416600114801590611ed55750611ed3868686612fd4565b155b15611efe57604051637c84ecfb60e01b81526001600160a01b03851660048201526024016105bd565b82600003611f1f5760405163f725081760e01b815260040160405180910390fd5b826001600160401b03811115611f3757611f37613f28565b604051908082528060200260200182016040528015611f60578160200160208202803683370190505b506001600160a01b038086166000908152602089815260408083208a85168452909152812054929450911691505b6001600160a01b03821615801590611fb057506001600160a01b038216600114155b8015611fbb57508381105b156120205781838281518110611fd357611fd36142d5565b6001600160a01b0392831660209182029290920181019190915292811660009081528884526040808220898416835290945292909220549091169080612018816145b2565b915050611f8e565b6001600160a01b03821660011480159061203a5750600081115b15612066578261204b6001836145cb565b8151811061205b5761205b6142d5565b602002602001015191505b8083525094509492505050565b6060836001612082828261282c565b61208e60023388611dba565b84848080601f016020809104026020016040519081016040528093929190818152602001838380828437600092019190915250929998505050505050505050565b60608360026120de828261282c565b3360009081526003602052604090206120f78188613394565b85858080601f016020809104026020016040519081016040528093929190818152602001838380828437600092019190915250929a9950505050505050505050565b6060836003612148828261282c565b600080806121588789018961462f565b919450925090506001600160e01b031983166306d61fe760e41b148061218e57506001600160e01b03198316638a91b0e360e01b145b156121b8576040516379bd117b60e01b81526001600160e01b0319841660048201526024016105bd565b3360009081526004602090815260408083206001600160e01b0319871684529091529020546001600160a01b031615612210576040516374420d1560e01b81526001600160e01b0319841660048201526024016105bd565b3360009081526004602090815260408083206001600160e01b031990961683529490529290922080546001600160a01b038a166001600160a01b031960f89490941c600160a01b02939093166001600160a81b031990911617919091179055925050509392505050565b6060836004612289828261282c565b600080806122998789018961469d565b919450925090506000808460018111156122b5576122b56146cb565b1480156122ca57506001600160e01b03198316155b156123405750336000908152600560205260409020546001600160a01b031680156123135760405163741cbe0360e01b81526001600160a01b03821660048201526024016105bd565b33600090815260056020526040902080546001600160a01b0319166001600160a01b038c161790556123ec565b6001846001811115612354576123546146cb565b036123d3576001600160a01b0381161561238c5760405163741cbe0360e01b81526001600160a01b03821660048201526024016105bd565b503360009081526006602090815260408083206001600160e01b031986168452909152902080546001600160a01b038b81166001600160a01b0319831617909255166123ec565b604051635691922f60e01b815260040160405180910390fd5b5098975050505050505050565b606082358301602081810191359085810135860180820191903590604088013588019081019035848381146124415760405163b4fa3fb360e01b815260040160405180910390fd5b60005b8181101561253a576000888883818110612460576124606142d5565b9050602002013590506001810361249f576124998d888885818110612487576124876142d5565b9050602002810190611b949190614556565b50612531565b600281036124cf576124998d8888858181106124bd576124bd6142d5565b9050602002810190611c349190614556565b600381036124ff576124998d8888858181106124ed576124ed6142d5565b9050602002810190611c969190614556565b600481036125315761252f8d88888581811061251d5761251d6142d5565b9050602002810190611cf89190614556565b505b50600101612444565b5082828080601f016020809104026020016040519081016040528093929190818152602001838380828437600092019190915250929e9d5050505050505050505050505050565b60405163468721a760e01b81526000906001600160a01b0385169063468721a7906125b7908690859087906001906004016143c3565b6020604051808303816000875af11580156125d6573d6000803e3d6000fd5b505050506040513d601f19601f820116820180604052508101906125fa919061447f565b9050806106e657604051632b3f6d1160e21b815260040160405180910390fd5b6060600061262a838501856146e1565b9250905061263b600233838861346a565b509392505050565b336000908152600360205260408120606091612661848601866146e1565b93509050610ae9828288613561565b6060600061268083850185614726565b3360009081526004602090815260408083206001600160e01b031990951683529390529190912080546001600160a01b031916905595945050505050565b60606000806126cf8486018661469d565b9450909250905060008260018111156126ea576126ea6146cb565b1480156126ff57506001600160e01b03198116155b156127265733600090815260056020526040902080546001600160a01b0319169055610ae9565b600182600181111561273a5761273a6146cb565b036123d3573360009081526006602090815260408083206001600160e01b031985168452909152902080546001600160a01b0319169055610ae9565b60405163468721a760e01b81526000906001600160a01b0385169063468721a7906127ac908690859087906001906004016143c3565b6020604051808303816000875af11580156127cb573d6000803e3d6000fd5b505050506040513d601f19601f820116820180604052508101906127ef919061447f565b9050806106e657604080516001600160a01b0386168152600060208201526000805160206149e5833981519152910160405180910390a150505050565b336000908152600160205260409020546001600160a01b031680156128b25760405163529562a160e01b81523360048201526001600160a01b0384811660248301526044820184905282169063529562a19060640160006040518083038186803b15801561289957600080fd5b505afa1580156128ad573d6000803e3d6000fd5b505050505b505050565b60606128c485600061170e565b15612aba576128d784600160f81b61170e565b156128fa57823583016020810190356128f1338383613636565b92505050610741565b61290584600061170e565b156129b95760008036600061291a8787612cca565b6040805160018082528183019092529498509296509094509250816020015b606081526020019060019003908161293957905050945061299233858585858080601f01602080910402602001604051908101604052809392919081815260200183838082843760009201919091525061166592505050565b856000815181106129a5576129a56142d5565b602002602001018190525050505050610741565b6129cb846001600160f81b031961170e565b15612a955760006129df601482858761405d565b6129e891614087565b60601c90503660006129fd856014818961405d565b604080516001808252818301909252929450909250816020015b6060815260200190600190039081612a17579050509350612a6f338484848080601f0160208091040260200160405190810160405280939291908181526020018383808284376000920191909152506136af92505050565b84600081518110612a8257612a826142d5565b6020026020010181905250505050610741565b604051632e5bf3f960e21b81526001600160f81b0319851660048201526024016105bd565b612ac885600160f81b61170e565b15612c4e57612adb84600160f81b61170e565b15612b005782358301602081019035612af5338383613750565b935061074192505050565b612b0b84600061170e565b15612b9857600080366000612b208787612cca565b6040805160018082528183019092529498509296509094509250816020015b6060815260200190600190039081612b3f57905050945061299233858585858080601f0160208091040260200160405190810160405280939291908181526020018383808284376000920191909152506137d292505050565b612baa846001600160f81b031961170e565b15612a95576000612bbe601482858761405d565b612bc791614087565b60601c9050366000612bdc856014818961405d565b604080516001808252818301909252929450909250816020015b6060815260200190600190039081612bf6579050509350612a6f338484848080601f01602080910402602001604051908101604052809392919081815260200183838082843760009201919091525061389292505050565b6040516308c3ee0360e11b81526001600160f81b0319861660048201526024016105bd565b6000546040516128b29185916001600160a01b0390911690612c9b9086908690602401614744565b60408051601f198184030181529190526020810180516001600160e01b0316633f707e6b60e01b179052612581565b6000803681612cdc601482878961405d565b612ce591614087565b60601c9350612cf860346014878961405d565b612d01916147ef565b9250612d10856034818961405d565b949793965094505050565b6000546040516128b29185916001600160a01b0390911690612d439086908690602401614744565b60408051601f198184030181529190526020810180516001600160e01b0316632864481160e11b179052612776565b60405163468721a760e01b81526000906001600160a01b0386169063468721a790612da79087908790879087906004016143c3565b6020604051808303816000875af1158015612dc6573d6000803e3d6000fd5b505050506040513d601f19601f82011682018060405250810190612dea919061447f565b90508061187857604080516001600160a01b0387168152600060208201526000805160206149e5833981519152910160405180910390a15050505050565b606060006001600160a01b038416600114801590612e4d5750612e4b8585613018565b155b15612e7657604051637c84ecfb60e01b81526001600160a01b03851660048201526024016105bd565b82600003612e975760405163f725081760e01b815260040160405180910390fd5b826001600160401b03811115612eaf57612eaf613f28565b604051908082528060200260200182016040528015612ed8578160200160208202803683370190505b506001600160a01b03808616600090815260208890526040812054929450911691505b6001600160a01b03821615801590612f1d57506001600160a01b038216600114155b8015612f2857508381105b15612f825781838281518110612f4057612f406142d5565b6001600160a01b039283166020918202929092018101919091529281166000908152928790526040909220549091169080612f7a816145b2565b915050612efb565b6001600160a01b038216600114801590612f9c5750600081115b15612fc85782612fad6001836145cb565b81518110612fbd57612fbd6142d5565b602002602001015191505b80835250935093915050565b600060016001600160a01b038316148015906107415750506001600160a01b0390811660009081526020938452604080822093831682529290935291205416151590565b600060016001600160a01b038316148015906109d75750506001600160a01b03908116600090815260209290925260409091205416151590565b600080836001811115613067576130676146cb565b14801561307c57506001600160e01b03198216155b1561309c5750336000908152600560205260409020546001600160a01b03165b60018360018111156130b0576130b06146cb565b0361066357503360009081526006602090815260408083206001600160e01b0319851684529091529020546001600160a01b031692915050565b606060008036818181613101610100890189614556565b909250905061311460066000838561405d565b61311d9161480d565b60d01c9550613130600c6006838561405d565b6131399161480d565b60d01c945061314b81600c818561405d565b9350935050506000604051806101c001604052807f84aa190356f56b8c87825f54884392a9907c23ee0f8e1ea86336b763faf021bd60001b8152602001336001600160a01b03168152602001886020013581526020018880604001906131b19190614556565b6040516131bf92919061483b565b60405190819003902081526020016131da60608a018a614556565b6040516131e892919061483b565b604051809103902081526020016131fe89613952565b815260200161320c89613967565b81526020018860a00135815260200161322489613977565b81526020016132328961398c565b815260200161324460e08a018a614556565b60405161325292919061483b565b604051809103902081526020018665ffffffffffff1681526020018565ffffffffffff1681526020016132926f71727de22e5e9d8baf0edac6f37da03290565b6001600160a01b031690526101c08120909150601960f81b600160f81b6132b7611600565b6040516001600160f81b031993841660208201529290911660218301526022820152604281018290526062016040516020818303038152906040529650505091939590929450565b600060d08265ffffffffffff16901b60a08465ffffffffffff16901b8561332757600061332a565b60015b60ff161717949350505050565b60016000908152602082905260409020546001600160a01b03161561336f576040516329e42f3360e11b815260040160405180910390fd5b60016000818152602092909252604090912080546001600160a01b0319169091179055565b6001600160a01b03811615806133b357506001600160a01b0381166001145b156133dc57604051637c84ecfb60e01b81526001600160a01b03821660048201526024016105bd565b6001600160a01b03818116600090815260208490526040902054161561342057604051631034f46960e21b81526001600160a01b03821660048201526024016105bd565b60016000818152602093909352604080842080546001600160a01b039485168087529286208054959091166001600160a01b03199586161790559190935280549091169091179055565b6001600160a01b038116158061348957506001600160a01b0381166001145b156134b257604051637c84ecfb60e01b81526001600160a01b03831660048201526024016105bd565b6001600160a01b03828116600090815260208681526040808320878516845290915290205481169082161461350557604051637c84ecfb60e01b81526001600160a01b03821660048201526024016105bd565b6001600160a01b039081166000908152602085815260408083209584168084528683528184208054968616855297835281842090845282529091208054939092166001600160a01b031993841617909155919091528154169055565b6001600160a01b038116158061358057506001600160a01b0381166001145b156135a957604051637c84ecfb60e01b81526001600160a01b03831660048201526024016105bd565b6001600160a01b038281166000908152602085905260409020548116908216146135f157604051637c84ecfb60e01b81526001600160a01b03821660048201526024016105bd565b6001600160a01b0390811660008181526020949094526040808520805494841686529085208054949093166001600160a01b0319948516179092559092528154169055565b60008054604051606092916136909187916001600160a01b0316906136619088908890602401614744565b60408051601f198184030181529190526020810180516001600160e01b0316636108557360e01b1790526136af565b9050808060200190518101906136a691906148f8565b95945050505050565b60606000846001600160a01b0316635229073f8560008660016040518563ffffffff1660e01b81526004016136e794939291906143c3565b6000604051808303816000875af1158015613706573d6000803e3d6000fd5b505050506040513d6000823e601f3d908101601f1916820160405261372e919081019061440e565b925090508061263b57604051632b3f6d1160e21b815260040160405180910390fd5b60608060006137af8660008054906101000a90046001600160a01b03168787604051602401613780929190614744565b60408051601f198184030181529190526020810180516001600160e01b0316639abb6e1760e01b179052613892565b9050808060200190518101906137c5919061492c565b9097909650945050505050565b60606000856001600160a01b0316635229073f86868660006040518563ffffffff1660e01b815260040161380994939291906143c3565b6000604051808303816000875af1158015613828573d6000803e3d6000fd5b505050506040513d6000823e601f3d908101601f19168201604052613850919081019061440e565b925090508061170557604080516001600160a01b0388168152600060208201526000805160206149e5833981519152910160405180910390a150949350505050565b60606000846001600160a01b0316635229073f8560008660016040518563ffffffff1660e01b81526004016138ca94939291906143c3565b6000604051808303816000875af11580156138e9573d6000803e3d6000fd5b505050506040513d6000823e601f3d908101601f19168201604052613911919081019061440e565b925090508061263b57604080516001600160a01b0387168152600060208201526000805160206149e5833981519152910160405180910390a1509392505050565b60006001600160801b03608083013516610663565b6000610663826080013560801c90565b60006001600160801b0360c083013516610663565b600060c082013560801c610663565b6001600160a01b03811681146139b057600080fd5b50565b80356115fb8161399b565b60008083601f8401126139d057600080fd5b5081356001600160401b038111156139e757600080fd5b60208301915083602082850101111561054e57600080fd5b60008060008060608587031215613a1557600080fd5b843593506020850135613a278161399b565b925060408501356001600160401b03811115613a4257600080fd5b613a4e878288016139be565b95989497509550505050565b600080600060408486031215613a6f57600080fd5b8335925060208401356001600160401b03811115613a8c57600080fd5b613a98868287016139be565b9497909650939450505050565b600080600060608486031215613aba57600080fd5b83356001600160401b03811115613ad057600080fd5b84016101208187031215613ae357600080fd5b95602085013595506040909401359392505050565b60008083601f840112613b0a57600080fd5b5081356001600160401b03811115613b2157600080fd5b6020830191508360208260051b850101111561054e57600080fd5b600060608284031215613b4e57600080fd5b50919050565b600080600080600080600080600060a08a8c031215613b7257600080fd5b89356001600160401b0380821115613b8957600080fd5b613b958d838e01613af8565b909b50995060208c0135915080821115613bae57600080fd5b613bba8d838e01613af8565b909950975060408c0135915080821115613bd357600080fd5b613bdf8d838e01613af8565b909750955060608c0135915080821115613bf857600080fd5b613c048d838e01613af8565b909550935060808c0135915080821115613c1d57600080fd5b50613c2a8c828d01613b3c565b9150509295985092959850929598565b60008060208385031215613c4d57600080fd5b82356001600160401b03811115613c6357600080fd5b613c6f85828601613af8565b90969095509350505050565b60008060408385031215613c8e57600080fd5b8235613c998161399b565b946020939093013593505050565b604080825283519082018190526000906020906060840190828701845b82811015613ce95781516001600160a01b031684529284019290840190600101613cc4565b5050506001600160a01b039490941660209390930192909252509092915050565b60005b83811015613d25578181015183820152602001613d0d565b50506000910152565b60008151808452613d46816020860160208601613d0a565b601f01601f19169290920160200192915050565b6020815260006109d76020830184613d2e565b6001600160e01b0319811681146139b057600080fd5b600060208284031215613d9557600080fd5b81356109d781613d6d565b600060208284031215613db257600080fd5b5035919050565b600060208083016020845280855180835260408601915060408160051b87010192506020870160005b82811015613e1057603f19888603018452613dfe858351613d2e565b94509285019290850190600101613de2565b5092979650505050505050565b60008060408385031215613e3057600080fd5b8235613e3b8161399b565b91506020830135613e4b8161399b565b809150509250929050565b803560ff811681146115fb57600080fd5b60008060008060608587031215613e7d57600080fd5b8435613e888161399b565b935060208501356001600160401b03811115613ea357600080fd5b613eaf87828801613af8565b9094509250613ec2905060408601613e56565b905092959194509250565b81835281816020850137506000828201602090810191909152601f909101601f19169091010190565b60018060a01b0385168152836020820152606060408201526000613f1e606083018486613ecd565b9695505050505050565b634e487b7160e01b600052604160045260246000fd5b604051601f8201601f191681016001600160401b0381118282101715613f6657613f66613f28565b604052919050565b60006001600160401b03821115613f8757613f87613f28565b50601f01601f191660200190565b6000613fa8613fa384613f6e565b613f3e565b9050828152838383011115613fbc57600080fd5b6109d7836020830184613d0a565b600082601f830112613fdb57600080fd5b6109d783835160208501613f95565b600060208284031215613ffc57600080fd5b81516001600160401b0381111561401257600080fd5b61074184828501613fca565b8284823760609190911b6bffffffffffffffffffffffff19169101908152601401919050565b60006020828403121561405657600080fd5b5051919050565b6000808585111561406d57600080fd5b8386111561407a57600080fd5b5050820193919092039150565b6bffffffffffffffffffffffff1981358181169160148510156140b45780818660140360031b1b83161692505b505092915050565b8481526060602082015260006140d56060830186613d2e565b82810360408401526140e8818587613ecd565b979650505050505050565b60006020828403121561410557600080fd5b81516109d781613d6d565b6000808335601e1984360301811261412757600080fd5b83016020810192503590506001600160401b0381111561414657600080fd5b80360382131561054e57600080fd5b6040815261417660408201614169856139b3565b6001600160a01b03169052565b60208301356060820152600061418f6040850185614110565b6101208060808601526141a761016086018385613ecd565b92506141b66060880188614110565b9250603f19808786030160a08801526141d0858584613ecd565b9450608089013560c088015260a089013560e0880152610100935060c08901358488015261420160e08a018a614110565b9250818887030184890152614217868483613ecd565b955050614226848a018a614110565b9450925080878603016101408801525050614242838383613ecd565b93505050508260208301529392505050565b60006020828403121561426657600080fd5b81356109d78161399b565b6000808335601e1984360301811261428857600080fd5b8301803591506001600160401b038211156142a257600080fd5b6020019150600581901b360382131561054e57600080fd5b6000602082840312156142cc57600080fd5b6109d782613e56565b634e487b7160e01b600052603260045260246000fd5b60008235603e1983360301811261430157600080fd5b9190910192915050565b8381526001600160a01b03831660208201526060604082018190526000906136a690830184613d2e565b60006020828403121561434757600080fd5b81516001600160401b0381111561435d57600080fd5b8201601f8101841361436e57600080fd5b61074184825160208401613f95565b64736166652d60d81b81526000825161439d816005850160208701613d0a565b6e2e657263373537392e76302e302e3160881b6005939091019283015250601401919050565b60018060a01b03851681528360208201526080604082015260006143ea6080830185613d2e565b905060ff8316606083015295945050505050565b805180151581146115fb57600080fd5b6000806040838503121561442157600080fd5b61442a836143fe565b915060208301516001600160401b0381111561444557600080fd5b61445185828601613fca565b9150509250929050565b6001600160a01b038316815260406020820181905260009061074190830184613d2e565b60006020828403121561449157600080fd5b6109d7826143fe565b8035600281106115fb57600080fd5b600080604083850312156144bc57600080fd5b6144c58361449a565b91506020830135613e4b81613d6d565b828152600082516144ed816020850160208701613d0a565b919091016020019392505050565b60ff8416815260406020808301829052908201839052600090849060608401835b8681101561454a57833561452f8161399b565b6001600160a01b03168252928201929082019060010161451c565b50979650505050505050565b6000808335601e1984360301811261456d57600080fd5b8301803591506001600160401b0382111561458757600080fd5b60200191503681900382131561054e57600080fd5b634e487b7160e01b600052601160045260246000fd5b6000600182016145c4576145c461459c565b5060010190565b818103818111156106635761066361459c565b600082601f8301126145ef57600080fd5b81356145fd613fa382613f6e565b81815284602083860101111561461257600080fd5b816020850160208301376000918101602001919091529392505050565b60008060006060848603121561464457600080fd5b833561464f81613d6d565b925060208401356001600160f81b03198116811461466c57600080fd5b915060408401356001600160401b0381111561468757600080fd5b614693868287016145de565b9150509250925092565b6000806000606084860312156146b257600080fd5b6146bb8461449a565b9250602084013561466c81613d6d565b634e487b7160e01b600052602160045260246000fd5b600080604083850312156146f457600080fd5b82356146ff8161399b565b915060208301356001600160401b0381111561471a57600080fd5b614451858286016145de565b6000806040838503121561473957600080fd5b82356146ff81613d6d565b60208082528181018390526000906040808401600586901b850182018785805b898110156147e057888403603f190185528235368c9003605e19018112614789578283fd5b8b01606081356147988161399b565b6001600160a01b0316865281890135898701526147b788830183614110565b925081898801526147cb8288018483613ecd565b978a0197965050509287019250600101614764565b50919998505050505050505050565b8035602083101561066357600019602084900360031b1b1692915050565b6001600160d01b031981358181169160068510156140b45760069490940360031b84901b1690921692915050565b8183823760009101908152919050565b60006001600160401b0382111561486457614864613f28565b5060051b60200190565b600082601f83011261487f57600080fd5b8151602061488f613fa38361484b565b82815260059290921b840181019181810190868411156148ae57600080fd5b8286015b848110156148ed5780516001600160401b038111156148d15760008081fd5b6148df8986838b0101613fca565b8452509183019183016148b2565b509695505050505050565b60006020828403121561490a57600080fd5b81516001600160401b0381111561492057600080fd5b6107418482850161486e565b6000806040838503121561493f57600080fd5b82516001600160401b038082111561495657600080fd5b818501915085601f83011261496a57600080fd5b8151602061497a613fa38361484b565b82815260059290921b8401810191818101908984111561499957600080fd5b948201945b838610156149be576149af866143fe565b8252948201949082019061499e565b918801519196509093505050808211156149d757600080fd5b506144518582860161486e56feb8bc84bd77f5eb08210b8eb20fd63b3ec6a7992d277ab94663bae0e066f792aca2646970667358221220e1299fd930247955cb5d16b683d8ac70083ff898f219d30771e6201576b6985264736f6c634300081900336080604052348015600f57600080fd5b506109b98061001f6000396000f3fe608060405234801561001057600080fd5b506004361061007d5760003560e01c80636a2216571161005b5780636a221657146100df57806378272525146100f25780639517e29f146101055780639abb6e171461011857600080fd5b80633f707e6b1461008257806350c890221461009757806361085573146100bf575b600080fd5b6100956100903660046105c9565b610139565b005b6100aa6100a53660046105c9565b6101a3565b60405190151581526020015b60405180910390f35b6100d26100cd3660046105c9565b610212565b6040516100b691906106c6565b6100956100ed366004610712565b6102cc565b6100956101003660046107d4565b6102ef565b6100956101133660046107d4565b610398565b61012b6101263660046105c9565b610437565b6040516100b692919061085b565b8060005b8181101561019d5736848483818110610158576101586108b5565b905060200281019061016a91906108cb565b905061019361017c60208301836108eb565b602083013561018e6040850185610906565b610561565b505060010161013d565b50505050565b600081815b8181101561020a57368585838181106101c3576101c36108b5565b90506020028101906101d591906108cb565b90506101fe6101e760208301836108eb565b60208301356101f96040850185610906565b610597565b509350506001016101a8565b505092915050565b6060818067ffffffffffffffff81111561022e5761022e6106fc565b60405190808252806020026020018201604052801561026157816020015b606081526020019060019003908161024c5790505b50915060005b8181101561020a5736858583818110610282576102826108b5565b905060200281019061029491906108cb565b90506102a661017c60208301836108eb565b8483815181106102b8576102b86108b5565b602090810291909101015250600101610267565b604051600080835160208501865afa3d6000833e80156102ea573d82f35b503d81fd5b604051638a91b0e360e01b81526001600160a01b03841690638a91b0e39061031d9085908590600401610954565b600060405180830381600087803b15801561033757600080fd5b505af115801561034b573d6000803e3d6000fd5b5050604080518781526001600160a01b03871660208201527f341347516a9de374859dfda710fa4828b2d48cb57d4fbe4c1149612b8e02276e93500190505b60405180910390a150505050565b6040516306d61fe760e41b81526001600160a01b03841690636d61fe70906103c69085908590600401610954565b600060405180830381600087803b1580156103e057600080fd5b505af11580156103f4573d6000803e3d6000fd5b5050604080518781526001600160a01b03871660208201527fd21d0b289f126c4b473ea641963e766833c2f13866e4ff480abd787c100ef123935001905061038a565b606080828067ffffffffffffffff811115610454576104546106fc565b60405190808252806020026020018201604052801561048757816020015b60608152602001906001900390816104725790505b5091508067ffffffffffffffff8111156104a3576104a36106fc565b6040519080825280602002602001820160405280156104cc578160200160208202803683370190505b50925060005b8181101561055857368686838181106104ed576104ed6108b5565b90506020028101906104ff91906108cb565b90506105116101e760208301836108eb565b868481518110610523576105236108b5565b6020026020010186858151811061053c5761053c6108b5565b60209081029190910101919091529015159052506001016104d2565b50509250929050565b60405181838237600038838387895af161057e573d6000823e3d81fd5b3d8152602081013d6000823e3d01604052949350505050565b604051600090828482376000388483888a5af11591503d8152602081013d6000823e3d81016040525094509492505050565b600080602083850312156105dc57600080fd5b823567ffffffffffffffff808211156105f457600080fd5b818501915085601f83011261060857600080fd5b81358181111561061757600080fd5b8660208260051b850101111561062c57600080fd5b60209290920196919550909350505050565b600082825180855260208086019550808260051b8401018186016000805b858110156106b857601f1980888603018b5283518051808752845b81811015610692578281018901518882018a01528801610677565b5086810188018590529b87019b601f01909116909401850193509184019160010161065c565b509198975050505050505050565b6020815260006106d9602083018461063e565b9392505050565b80356001600160a01b03811681146106f757600080fd5b919050565b634e487b7160e01b600052604160045260246000fd5b6000806040838503121561072557600080fd5b61072e836106e0565b9150602083013567ffffffffffffffff8082111561074b57600080fd5b818501915085601f83011261075f57600080fd5b813581811115610771576107716106fc565b604051601f8201601f19908116603f01168101908382118183101715610799576107996106fc565b816040528281528860208487010111156107b257600080fd5b8260208601602083013760006020848301015280955050505050509250929050565b600080600080606085870312156107ea57600080fd5b843593506107fa602086016106e0565b9250604085013567ffffffffffffffff8082111561081757600080fd5b818701915087601f83011261082b57600080fd5b81358181111561083a57600080fd5b88602082850101111561084c57600080fd5b95989497505060200194505050565b604080825283519082018190526000906020906060840190828701845b82811015610896578151151584529284019290840190600101610878565b50505083810360208501526108ab818661063e565b9695505050505050565b634e487b7160e01b600052603260045260246000fd5b60008235605e198336030181126108e157600080fd5b9190910192915050565b6000602082840312156108fd57600080fd5b6106d9826106e0565b6000808335601e1984360301811261091d57600080fd5b83018035915067ffffffffffffffff82111561093857600080fd5b60200191503681900382131561094d57600080fd5b9250929050565b60208152816020820152818360408301376000818301604090810191909152601f909201601f1916010191905056fea26469706673582212207d2978bdb7955af46c5c825e970f48aee484e6e937032ee1d9af3166b1692bf964736f6c63430008190033","linkReferences":{}},"methodIdentifiers":{"accountId()":"9cfd7cff","domainSeparator()":"f698da25","entryPoint()":"b0d691fe","execute(bytes32,bytes)":"e9ae5c53","executeFromExecutor(bytes32,bytes)":"d691c964","getActiveHook()":"0a664dba","getActiveHook(bytes4)":"b875d5d8","getExecutorsPaginated(address,uint256)":"ea5f61d0","getNonce(address,address)":"d828435d","getValidatorPaginated(address,uint256)":"85571368","initializeAccount((address,bytes)[],(address,bytes)[],(address,bytes)[],(address,bytes)[],(address,address[],uint8))":"540fb4f9","installModule(uint256,address,bytes)":"9517e29f","isModuleInstalled(uint256,address,bytes)":"112d3a7d","isValidSignature(bytes32,bytes)":"1626ba7e","launchpadValidators((address,bytes)[])":"6a5e1515","setRegistry(address,address[],uint8)":"eab77e17","supportsExecutionMode(bytes32)":"d03c7914","supportsModule(uint256)":"f2dc691d","uninstallModule(uint256,address,bytes)":"a71763a8","validateUserOp((address,uint256,bytes,bytes,bytes32,uint256,bytes32,bytes,bytes),bytes32,uint256)":"19822f7c"},"id":96}