{"abi":[{"type":"constructor","inputs":[{"name":"_zkEmailRecovery","type":"address","internalType":"address"}],"stateMutability":"nonpayable"},{"type":"function","name":"getTrustedContract","inputs":[],"outputs":[{"name":"","type":"address","internalType":"address"}],"stateMutability":"view"},{"type":"function","name":"isInitialized","inputs":[{"name":"smartAccount","type":"address","internalType":"address"}],"outputs":[{"name":"","type":"bool","internalType":"bool"}],"stateMutability":"view"},{"type":"function","name":"isModuleType","inputs":[{"name":"typeID","type":"uint256","internalType":"uint256"}],"outputs":[{"name":"","type":"bool","internalType":"bool"}],"stateMutability":"pure"},{"type":"function","name":"name","inputs":[],"outputs":[{"name":"","type":"string","internalType":"string"}],"stateMutability":"pure"},{"type":"function","name":"onInstall","inputs":[{"name":"data","type":"bytes","internalType":"bytes"}],"outputs":[],"stateMutability":"nonpayable"},{"type":"function","name":"onUninstall","inputs":[{"name":"","type":"bytes","internalType":"bytes"}],"outputs":[],"stateMutability":"nonpayable"},{"type":"function","name":"recover","inputs":[{"name":"account","type":"address","internalType":"address"},{"name":"subjectParams","type":"bytes[]","internalType":"bytes[]"}],"outputs":[],"stateMutability":"nonpayable"},{"type":"function","name":"version","inputs":[],"outputs":[{"name":"","type":"string","internalType":"string"}],"stateMutability":"pure"},{"type":"function","name":"zkEmailRecovery","inputs":[],"outputs":[{"name":"","type":"address","internalType":"address"}],"stateMutability":"view"},{"type":"error","name":"AlreadyInitialized","inputs":[{"name":"smartAccount","type":"address","internalType":"address"}]},{"type":"error","name":"InvalidNewOwner","inputs":[]},{"type":"error","name":"InvalidOldOwner","inputs":[]},{"type":"error","name":"NotInitialized","inputs":[{"name":"smartAccount","type":"address","internalType":"address"}]},{"type":"error","name":"NotTrustedRecoveryContract","inputs":[]}],"bytecode":{"object":"0x60a0604052348015600f57600080fd5b506040516110aa3803806110aa833981016040819052602c91603c565b6001600160a01b0316608052606a565b600060208284031215604d57600080fd5b81516001600160a01b0381168114606357600080fd5b9392505050565b6080516110036100a76000396000818160dd0152818161014f0152818161023b015281816102820152818161030c015261039001526110036000f3fe608060405234801561001057600080fd5b50600436106100935760003560e01c80637998a6e7116100665780637998a6e71461014d5780638a91b0e314610173578063d60b347f14610186578063ecd05961146101a9578063f2d57ac2146101bd57600080fd5b806306fdde03146100985780635363a291146100d857806354fd4d50146101175780636d61fe7014610138575b600080fd5b604080518082019091526012815271536166655265636f766572794d6f64756c6560701b60208201525b6040516100cf9190610888565b60405180910390f35b6100ff7f000000000000000000000000000000000000000000000000000000000000000081565b6040516001600160a01b0390911681526020016100cf565b604080518082019091526005815264302e302e3160d81b60208201526100c2565b61014b6101463660046108a2565b6101d0565b005b7f00000000000000000000000000000000000000000000000000000000000000006100ff565b61014b6101813660046108a2565b61026d565b61019961019436600461092c565b6102ea565b60405190151581526020016100cf565b6101996101b7366004610949565b60021490565b61014b6101cb3660046109f5565b610385565b6000808080806101e286880188610b68565b94509450945094509450600030868686868660405160240161020996959493929190610c45565b60408051601f198184030181529190526020810180516001600160e01b031663ccfa19db60e01b1790529050610262337f00000000000000000000000000000000000000000000000000000000000000006000846105db565b505050505050505050565b604051637dbcfcb960e01b81523360048201527f00000000000000000000000000000000000000000000000000000000000000006001600160a01b031690637dbcfcb990602401600060405180830381600087803b1580156102ce57600080fd5b505af11580156102e2573d6000803e3d6000fd5b505050505050565b6040516305db04a560e11b81526001600160a01b0382811660048301526000917f000000000000000000000000000000000000000000000000000000000000000090911690630bb6094a90602401606060405180830381865afa158015610355573d6000803e3d6000fd5b505050506040513d601f19601f820116820180604052508101906103799190610ced565b60400151151592915050565b336001600160a01b037f000000000000000000000000000000000000000000000000000000000000000016146103ce5760405163374c40bd60e11b815260040160405180910390fd5b6000816001815181106103e3576103e3610d49565b60200260200101518060200190518101906103fe9190610d5f565b905060008260028151811061041557610415610d49565b60200260200101518060200190518101906104309190610d5f565b6040516317aa5fb760e11b81526001600160a01b038481166004830152919250600091861690632f54bf6e90602401602060405180830381865afa15801561047c573d6000803e3d6000fd5b505050506040513d601f19601f820116820180604052508101906104a09190610d7c565b9050806104c0576040516354d5934960e11b815260040160405180910390fd5b6001600160a01b0382166104e757604051632a52b3c360e11b815260040160405180910390fd5b60006104f38685610691565b6040516001600160a01b03808316602483015280871660448301528516606482015290915060009060840160408051601f198184030181529190526020810180516001600160e01b031663e318b52b60e01b17905290506001600160a01b03871663d691c96461056161078b565b61056d8a60008661079e565b6040518363ffffffff1660e01b815260040161058a929190610d9e565b6000604051808303816000875af11580156105a9573d6000803e3d6000fd5b505050506040513d6000823e601f3d908101601f191682016040526105d19190810190610dbf565b5050505050505050565b606060006105eb818080806107cd565b9050856001600160a01b031663d691c9648261060888888861079e565b6040518363ffffffff1660e01b8152600401610625929190610d9e565b6000604051808303816000875af1158015610644573d6000803e3d6000fd5b505050506040513d6000823e601f3d908101601f1916820160405261066c9190810190610dbf565b60008151811061067e5761067e610d49565b6020026020010151915050949350505050565b600080836001600160a01b031663a0e67e2b6040518163ffffffff1660e01b8152600401600060405180830381865afa1580156106d2573d6000803e3d6000fd5b505050506040513d6000823e601f3d908101601f191682016040526106fa9190810190610eac565b90506000805b825181101561074b57846001600160a01b031683828151811061072557610725610d49565b60200260200101516001600160a01b0316036107435780915061074b565b600101610700565b506001811561077d5782610760600184610f46565b8151811061077057610770610d49565b602002602001015161077f565b805b93505050505b92915050565b6000610799818080806107cd565b905090565b60608383836040516020016107b593929190610f67565b60405160208183030381529060405290509392505050565b604080516001600160f81b03198087166020830152851660218201526000602282018190526001600160e01b03198516602683015269ffffffffffffffffffff198416602a830152910160405160208183030381529060405261082f90610fa6565b95945050505050565b60005b8381101561085357818101518382015260200161083b565b50506000910152565b60008151808452610874816020860160208601610838565b601f01601f19169290920160200192915050565b60208152600061089b602083018461085c565b9392505050565b600080602083850312156108b557600080fd5b823567ffffffffffffffff808211156108cd57600080fd5b818501915085601f8301126108e157600080fd5b8135818111156108f057600080fd5b86602082850101111561090257600080fd5b60209290920196919550909350505050565b6001600160a01b038116811461092957600080fd5b50565b60006020828403121561093e57600080fd5b813561089b81610914565b60006020828403121561095b57600080fd5b5035919050565b634e487b7160e01b600052604160045260246000fd5b604051601f8201601f1916810167ffffffffffffffff811182821017156109a1576109a1610962565b604052919050565b600067ffffffffffffffff8211156109c3576109c3610962565b5060051b60200190565b600067ffffffffffffffff8211156109e7576109e7610962565b50601f01601f191660200190565b6000806040808486031215610a0957600080fd5b8335610a1481610914565b925060208481013567ffffffffffffffff80821115610a3257600080fd5b818701915087601f830112610a4657600080fd5b8135610a59610a54826109a9565b610978565b81815260059190911b8301840190848101908a831115610a7857600080fd5b8585015b83811015610aec57803585811115610a945760008081fd5b8601603f81018d13610aa65760008081fd5b87810135610ab6610a54826109cd565b8181528e8b838501011115610acb5760008081fd5b818b84018b83013760009181018a0191909152845250918601918601610a7c565b50809750505050505050509250929050565b600082601f830112610b0f57600080fd5b81356020610b1f610a54836109a9565b8083825260208201915060208460051b870101935086841115610b4157600080fd5b602086015b84811015610b5d5780358352918301918301610b46565b509695505050505050565b600080600080600060a08688031215610b8057600080fd5b853567ffffffffffffffff80821115610b9857600080fd5b818801915088601f830112610bac57600080fd5b81356020610bbc610a54836109a9565b82815260059290921b8401810191818101908c841115610bdb57600080fd5b948201945b83861015610c02578535610bf381610914565b82529482019490820190610be0565b99505089013592505080821115610c1857600080fd5b50610c2588828901610afe565b959895975050505060408401359360608101359360809091013592509050565b6001600160a01b03878116825260c0602080840182905288519184018290526000928982019290919060e0860190855b81811015610c93578551851683529483019491830191600101610c75565b5050858103604087015289518082529082019350915080890160005b83811015610ccb57815185529382019390820190600101610caf565b50505050606083019590955250608081019290925260a0909101529392505050565b600060608284031215610cff57600080fd5b6040516060810181811067ffffffffffffffff82111715610d2257610d22610962565b80604052508251815260208301516020820152604083015160408201528091505092915050565b634e487b7160e01b600052603260045260246000fd5b600060208284031215610d7157600080fd5b815161089b81610914565b600060208284031215610d8e57600080fd5b8151801515811461089b57600080fd5b828152604060208201526000610db7604083018461085c565b949350505050565b60006020808385031215610dd257600080fd5b825167ffffffffffffffff80821115610dea57600080fd5b818501915085601f830112610dfe57600080fd5b8151610e0c610a54826109a9565b81815260059190911b83018401908481019088831115610e2b57600080fd5b8585015b83811015610e9f57805185811115610e475760008081fd5b8601603f81018b13610e595760008081fd5b878101516040610e6b610a54836109cd565b8281528d82848601011115610e805760008081fd5b610e8f838c8301848701610838565b8652505050918601918601610e2f565b5098975050505050505050565b60006020808385031215610ebf57600080fd5b825167ffffffffffffffff811115610ed657600080fd5b8301601f81018513610ee757600080fd5b8051610ef5610a54826109a9565b81815260059190911b82018301908381019087831115610f1457600080fd5b928401925b82841015610f3b578351610f2c81610914565b82529284019290840190610f19565b979650505050505050565b8181038181111561078557634e487b7160e01b600052601160045260246000fd5b6bffffffffffffffffffffffff198460601b16815282601482015260008251610f97816034850160208701610838565b91909101603401949350505050565b80516020808301519190811015610fc7576000198160200360031b1b821691505b5091905056fea2646970667358221220c356f84d5291975e1ee87b8eb27a8800d820ceb60bff53a60d4a5f59d207a49264736f6c63430008190033","linkReferences":{}},"methodIdentifiers":{"getTrustedContract()":"7998a6e7","isInitialized(address)":"d60b347f","isModuleType(uint256)":"ecd05961","name()":"06fdde03","onInstall(bytes)":"6d61fe70","onUninstall(bytes)":"8a91b0e3","recover(address,bytes[])":"f2d57ac2","version()":"54fd4d50","zkEmailRecovery()":"5363a291"},"id":239}