{"abi":[{"type":"constructor","inputs":[],"stateMutability":"nonpayable"},{"type":"fallback","stateMutability":"payable"},{"type":"receive","stateMutability":"payable"},{"type":"function","name":"TIMELOCK_PERIOD","inputs":[],"outputs":[{"name":"","type":"uint256","internalType":"uint256"}],"stateMutability":"view"},{"type":"function","name":"acceptanceSubjectTemplates","inputs":[],"outputs":[{"name":"","type":"string[][]","internalType":"string[][]"}],"stateMutability":"pure"},{"type":"function","name":"completeRecovery","inputs":[],"outputs":[],"stateMutability":"nonpayable"},{"type":"function","name":"computeAcceptanceTemplateId","inputs":[{"name":"templateIdx","type":"uint256","internalType":"uint256"}],"outputs":[{"name":"","type":"uint256","internalType":"uint256"}],"stateMutability":"pure"},{"type":"function","name":"computeEmailAuthAddress","inputs":[{"name":"accountSalt","type":"bytes32","internalType":"bytes32"}],"outputs":[{"name":"","type":"address","internalType":"address"}],"stateMutability":"view"},{"type":"function","name":"computeRecoveryTemplateId","inputs":[{"name":"templateIdx","type":"uint256","internalType":"uint256"}],"outputs":[{"name":"","type":"uint256","internalType":"uint256"}],"stateMutability":"pure"},{"type":"function","name":"dkim","inputs":[],"outputs":[{"name":"","type":"address","internalType":"address"}],"stateMutability":"view"},{"type":"function","name":"dkimAddr","inputs":[],"outputs":[{"name":"","type":"address","internalType":"address"}],"stateMutability":"view"},{"type":"function","name":"emailAuthImplementation","inputs":[],"outputs":[{"name":"","type":"address","internalType":"address"}],"stateMutability":"view"},{"type":"function","name":"emailAuthImplementationAddr","inputs":[],"outputs":[{"name":"","type":"address","internalType":"address"}],"stateMutability":"view"},{"type":"function","name":"guardians","inputs":[{"name":"","type":"address","internalType":"address"}],"outputs":[{"name":"","type":"uint8","internalType":"enum SimpleWallet.GuardianStatus"}],"stateMutability":"view"},{"type":"function","name":"handleAcceptance","inputs":[{"name":"emailAuthMsg","type":"tuple","internalType":"struct EmailAuthMsg","components":[{"name":"templateId","type":"uint256","internalType":"uint256"},{"name":"subjectParams","type":"bytes[]","internalType":"bytes[]"},{"name":"skipedSubjectPrefix","type":"uint256","internalType":"uint256"},{"name":"proof","type":"tuple","internalType":"struct EmailProof","components":[{"name":"domainName","type":"string","internalType":"string"},{"name":"publicKeyHash","type":"bytes32","internalType":"bytes32"},{"name":"timestamp","type":"uint256","internalType":"uint256"},{"name":"maskedSubject","type":"string","internalType":"string"},{"name":"emailNullifier","type":"bytes32","internalType":"bytes32"},{"name":"accountSalt","type":"bytes32","internalType":"bytes32"},{"name":"isCodeExist","type":"bool","internalType":"bool"},{"name":"proof","type":"bytes","internalType":"bytes"}]}]},{"name":"templateIdx","type":"uint256","internalType":"uint256"}],"outputs":[],"stateMutability":"nonpayable"},{"type":"function","name":"handleRecovery","inputs":[{"name":"emailAuthMsg","type":"tuple","internalType":"struct EmailAuthMsg","components":[{"name":"templateId","type":"uint256","internalType":"uint256"},{"name":"subjectParams","type":"bytes[]","internalType":"bytes[]"},{"name":"skipedSubjectPrefix","type":"uint256","internalType":"uint256"},{"name":"proof","type":"tuple","internalType":"struct EmailProof","components":[{"name":"domainName","type":"string","internalType":"string"},{"name":"publicKeyHash","type":"bytes32","internalType":"bytes32"},{"name":"timestamp","type":"uint256","internalType":"uint256"},{"name":"maskedSubject","type":"string","internalType":"string"},{"name":"emailNullifier","type":"bytes32","internalType":"bytes32"},{"name":"accountSalt","type":"bytes32","internalType":"bytes32"},{"name":"isCodeExist","type":"bool","internalType":"bool"},{"name":"proof","type":"bytes","internalType":"bytes"}]}]},{"name":"templateIdx","type":"uint256","internalType":"uint256"}],"outputs":[],"stateMutability":"nonpayable"},{"type":"function","name":"initialize","inputs":[{"name":"_initialOwner","type":"address","internalType":"address"},{"name":"_verifier","type":"address","internalType":"address"},{"name":"_dkim","type":"address","internalType":"address"},{"name":"_emailAuthImplementation","type":"address","internalType":"address"}],"outputs":[],"stateMutability":"nonpayable"},{"type":"function","name":"isRecovering","inputs":[],"outputs":[{"name":"","type":"bool","internalType":"bool"}],"stateMutability":"view"},{"type":"function","name":"newSignerCandidate","inputs":[],"outputs":[{"name":"","type":"address","internalType":"address"}],"stateMutability":"view"},{"type":"function","name":"owner","inputs":[],"outputs":[{"name":"","type":"address","internalType":"address"}],"stateMutability":"view"},{"type":"function","name":"recoverySubjectTemplates","inputs":[],"outputs":[{"name":"","type":"string[][]","internalType":"string[][]"}],"stateMutability":"pure"},{"type":"function","name":"rejectRecovery","inputs":[],"outputs":[],"stateMutability":"nonpayable"},{"type":"function","name":"renounceOwnership","inputs":[],"outputs":[],"stateMutability":"nonpayable"},{"type":"function","name":"requestGuardian","inputs":[{"name":"guardian","type":"address","internalType":"address"}],"outputs":[],"stateMutability":"nonpayable"},{"type":"function","name":"timelock","inputs":[],"outputs":[{"name":"","type":"uint256","internalType":"uint256"}],"stateMutability":"view"},{"type":"function","name":"transfer","inputs":[{"name":"to","type":"address","internalType":"address"},{"name":"amount","type":"uint256","internalType":"uint256"}],"outputs":[],"stateMutability":"nonpayable"},{"type":"function","name":"transferOwnership","inputs":[{"name":"newOwner","type":"address","internalType":"address"}],"outputs":[],"stateMutability":"nonpayable"},{"type":"function","name":"verifier","inputs":[],"outputs":[{"name":"","type":"address","internalType":"address"}],"stateMutability":"view"},{"type":"function","name":"verifierAddr","inputs":[],"outputs":[{"name":"","type":"address","internalType":"address"}],"stateMutability":"view"},{"type":"function","name":"withdraw","inputs":[{"name":"amount","type":"uint256","internalType":"uint256"}],"outputs":[],"stateMutability":"nonpayable"},{"type":"event","name":"Initialized","inputs":[{"name":"version","type":"uint64","indexed":false,"internalType":"uint64"}],"anonymous":false},{"type":"event","name":"OwnershipTransferred","inputs":[{"name":"previousOwner","type":"address","indexed":true,"internalType":"address"},{"name":"newOwner","type":"address","indexed":true,"internalType":"address"}],"anonymous":false},{"type":"error","name":"InvalidInitialization","inputs":[]},{"type":"error","name":"NotInitializing","inputs":[]},{"type":"error","name":"OwnableInvalidOwner","inputs":[{"name":"owner","type":"address","internalType":"address"}]},{"type":"error","name":"OwnableUnauthorizedAccount","inputs":[{"name":"account","type":"address","internalType":"address"}]}],"bytecode":{"object":"0x608060405234801561001057600080fd5b50613812806100206000396000f3fe608060405260043610620001db5760003560e01c8063715018a61162000103578063b62016921162000097578063d446bb9a116200006d578063d446bb9a14620006b9578063dbeb882a14620006d1578063f2fde38b14620006f6578063f8c8765e146200071b5762000254565b8063b6201692146200064f578063b68126fa146200067c578063d33219b414620006a15762000254565b80638152078211620000d95780638152078214620005745780638da5cb5b146200059957806391ac278814620005e5578063a9059cbb146200062a5762000254565b8063715018a614620004fe57806371ce6064146200051657806373357f8514620005455762000254565b80633e91cdcd116200017b5780635bafadda11620001515780635bafadda146200047a578063663ea2e214620004925780636b0c717e14620004c15780636da9951514620004d95762000254565b80633e91cdcd146200040d578063400ad5ce14620004345780634a5bcbf814620004615762000254565b80632b7ac3f311620001b15780632b7ac3f314620003875780632e1a7d4d14620003b457806332ccc2f214620003d95762000254565b80630481af6714620002c15780630633b14a14620002e65780631098e02e14620003325762000254565b36620002545760025474010000000000000000000000000000000000000000900460ff1615620002525760405162461bcd60e51b815260206004820152601460248201527f7265636f7665727920696e2070726f677265737300000000000000000000000060448201526064015b60405180910390fd5b005b60025474010000000000000000000000000000000000000000900460ff1615620002525760405162461bcd60e51b815260206004820152601460248201527f7265636f7665727920696e2070726f6772657373000000000000000000000000604482015260640162000249565b348015620002ce57600080fd5b5062000252620002e036600462002d7d565b62000740565b348015620002f357600080fd5b506200031a6200030536600462002ede565b60046020526000908152604090205460ff1681565b60405162000329919062002f2d565b60405180910390f35b3480156200033f57600080fd5b50600254620003619073ffffffffffffffffffffffffffffffffffffffff1681565b60405173ffffffffffffffffffffffffffffffffffffffff909116815260200162000329565b3480156200039457600080fd5b5060005473ffffffffffffffffffffffffffffffffffffffff1662000361565b348015620003c157600080fd5b5062000252620003d336600462002f6f565b62000d17565b348015620003e657600080fd5b50620003fe620003f836600462002f6f565b62000e1b565b60405190815260200162000329565b3480156200041a57600080fd5b506200042562000e86565b6040516200032991906200303b565b3480156200044157600080fd5b5060015473ffffffffffffffffffffffffffffffffffffffff1662000361565b3480156200046e57600080fd5b50620003fe6203f48081565b3480156200048757600080fd5b5062000425620012ab565b3480156200049f57600080fd5b50600054620003619073ffffffffffffffffffffffffffffffffffffffff1681565b348015620004ce57600080fd5b506200025262001563565b348015620004e657600080fd5b50620003fe620004f836600462002f6f565b6200169e565b3480156200050b57600080fd5b5062000252620016f0565b3480156200052357600080fd5b50600354620003619073ffffffffffffffffffffffffffffffffffffffff1681565b3480156200055257600080fd5b50600154620003619073ffffffffffffffffffffffffffffffffffffffff1681565b3480156200058157600080fd5b50620003616200059336600462002f6f565b62001708565b348015620005a657600080fd5b507f9016d09d72d40fdae2fd8ceac6b6234c7706214fd39c1cd1e609a0528c1993005473ffffffffffffffffffffffffffffffffffffffff1662000361565b348015620005f257600080fd5b50600254620006199074010000000000000000000000000000000000000000900460ff1681565b604051901515815260200162000329565b3480156200063757600080fd5b506200025262000649366004620030c1565b62001812565b3480156200065c57600080fd5b5060025473ffffffffffffffffffffffffffffffffffffffff1662000361565b3480156200068957600080fd5b50620002526200069b36600462002d7d565b620019a2565b348015620006ae57600080fd5b50620003fe60055481565b348015620006c657600080fd5b506200025262001b99565b348015620006de57600080fd5b5062000252620006f036600462002ede565b62001cb9565b3480156200070357600080fd5b50620002526200071536600462002ede565b62001eee565b3480156200072857600080fd5b50620002526200073a366004620030f0565b62001f55565b600062000755836060015160a0015162001708565b905073ffffffffffffffffffffffffffffffffffffffff81163b15620007be5760405162461bcd60e51b815260206004820152601c60248201527f677561726469616e20697320616c7265616479206465706c6f79656400000000604482015260640162000249565b6000620007cb8362000e1b565b84519091508114620008205760405162461bcd60e51b815260206004820152601360248201527f696e76616c69642074656d706c61746520696400000000000000000000000000604482015260640162000249565b606084015160c0015115156001146200087c5760405162461bcd60e51b815260206004820152601460248201527f6973436f646545786973742069732066616c7365000000000000000000000000604482015260640162000249565b6000846060015160a00151620008a760025473ffffffffffffffffffffffffffffffffffffffff1690565b606087015160a00151604051306024820152604481019190915260640160408051601f198184030181529181526020820180517bffffffffffffffffffffffffffffffffffffffffffffffffffffffff167fbe13f47c0000000000000000000000000000000000000000000000000000000017905251620009289062002b50565b6200093592919062003155565b8190604051809103906000f590508015801562000956573d6000803e3d6000fd5b5090508073ffffffffffffffffffffffffffffffffffffffff811663a500125c6200099660015473ffffffffffffffffffffffffffffffffffffffff1690565b6040517fffffffff0000000000000000000000000000000000000000000000000000000060e084901b16815273ffffffffffffffffffffffffffffffffffffffff9091166004820152602401600060405180830381600087803b158015620009fd57600080fd5b505af115801562000a12573d6000803e3d6000fd5b505050508073ffffffffffffffffffffffffffffffffffffffff166397fc007c62000a5260005473ffffffffffffffffffffffffffffffffffffffff1690565b6040517fffffffff0000000000000000000000000000000000000000000000000000000060e084901b16815273ffffffffffffffffffffffffffffffffffffffff9091166004820152602401600060405180830381600087803b15801562000ab957600080fd5b505af115801562000ace573d6000803e3d6000fd5b5050505060005b62000adf620012ab565b5181101562000b95578173ffffffffffffffffffffffffffffffffffffffff1663c4b84df462000b0f8362000e1b565b62000b19620012ab565b848151811062000b2d5762000b2d6200318e565b60200260200101516040518363ffffffff1660e01b815260040162000b54929190620031bd565b600060405180830381600087803b15801562000b6f57600080fd5b505af115801562000b84573d6000803e3d6000fd5b50506001909201915062000ad59050565b5060005b62000ba362000e86565b5181101562000c59578173ffffffffffffffffffffffffffffffffffffffff1663c4b84df462000bd3836200169e565b62000bdd62000e86565b848151811062000bf15762000bf16200318e565b60200260200101516040518363ffffffff1660e01b815260040162000c18929190620031bd565b600060405180830381600087803b15801562000c3357600080fd5b505af115801562000c48573d6000803e3d6000fd5b50506001909201915062000b999050565b506040517fad3f5f9b00000000000000000000000000000000000000000000000000000000815273ffffffffffffffffffffffffffffffffffffffff82169063ad3f5f9b9062000cae90899060040162003265565b6020604051808303816000875af115801562000cce573d6000803e3d6000fd5b505050506040513d601f19601f8201168201806040525081019062000cf491906200331d565b5062000d0f8486886020015189606001516080015162002160565b505050505050565b7f9016d09d72d40fdae2fd8ceac6b6234c7706214fd39c1cd1e609a0528c1993005473ffffffffffffffffffffffffffffffffffffffff16331462000d9f5760405162461bcd60e51b815260206004820152600a60248201527f6f6e6c79206f776e657200000000000000000000000000000000000000000000604482015260640162000249565b60025474010000000000000000000000000000000000000000900460ff161562000e0c5760405162461bcd60e51b815260206004820152601460248201527f7265636f7665727920696e2070726f6772657373000000000000000000000000604482015260640162000249565b62000e18338262001812565b50565b60408051600160208201526060918101829052600a60808201527f414343455054414e43450000000000000000000000000000000000000000000060a082015290810182905260009060c0015b60408051601f19818403018152919052805160209091012092915050565b60408051600180825281830190925260609160009190816020015b606081526020019060019003908162000ea15750506040805160088082526101208201909252919250602082015b606081526020019060019003908162000ecf579050508160008151811062000efb5762000efb6200318e565b60200260200101819052506040518060400160405280600381526020017f53657400000000000000000000000000000000000000000000000000000000008152508160008151811062000f525762000f526200318e565b602002602001015160008151811062000f6f5762000f6f6200318e565b60200260200101819052506040518060400160405280600381526020017f74686500000000000000000000000000000000000000000000000000000000008152508160008151811062000fc65762000fc66200318e565b602002602001015160018151811062000fe35762000fe36200318e565b60200260200101819052506040518060400160405280600381526020017f6e65770000000000000000000000000000000000000000000000000000000000815250816000815181106200103a576200103a6200318e565b60200260200101516002815181106200105757620010576200318e565b60200260200101819052506040518060400160405280600681526020017f7369676e6572000000000000000000000000000000000000000000000000000081525081600081518110620010ae57620010ae6200318e565b6020026020010151600381518110620010cb57620010cb6200318e565b60200260200101819052506040518060400160405280600281526020017f6f66000000000000000000000000000000000000000000000000000000000000815250816000815181106200112257620011226200318e565b60200260200101516004815181106200113f576200113f6200318e565b60200260200101819052506040518060400160405280600981526020017f7b657468416464727d0000000000000000000000000000000000000000000000815250816000815181106200119657620011966200318e565b6020026020010151600581518110620011b357620011b36200318e565b60200260200101819052506040518060400160405280600281526020017f746f000000000000000000000000000000000000000000000000000000000000815250816000815181106200120a576200120a6200318e565b60200260200101516006815181106200122757620012276200318e565b60200260200101819052506040518060400160405280600981526020017f7b657468416464727d0000000000000000000000000000000000000000000000815250816000815181106200127e576200127e6200318e565b60200260200101516007815181106200129b576200129b6200318e565b6020908102919091010152919050565b60408051600180825281830190925260609160009190816020015b6060815260200190600190039081620012c657505060408051600580825260c08201909252919250602082015b6060815260200190600190039081620012f357905050816000815181106200131f576200131f6200318e565b60200260200101819052506040518060400160405280600681526020017f4163636570740000000000000000000000000000000000000000000000000000815250816000815181106200137657620013766200318e565b60200260200101516000815181106200139357620013936200318e565b60200260200101819052506040518060400160405280600881526020017f677561726469616e00000000000000000000000000000000000000000000000081525081600081518110620013ea57620013ea6200318e565b60200260200101516001815181106200140757620014076200318e565b60200260200101819052506040518060400160405280600781526020017f7265717565737400000000000000000000000000000000000000000000000000815250816000815181106200145e576200145e6200318e565b60200260200101516002815181106200147b576200147b6200318e565b60200260200101819052506040518060400160405280600381526020017f666f72000000000000000000000000000000000000000000000000000000000081525081600081518110620014d257620014d26200318e565b6020026020010151600381518110620014ef57620014ef6200318e565b60200260200101819052506040518060400160405280600981526020017f7b657468416464727d0000000000000000000000000000000000000000000000815250816000815181106200154657620015466200318e565b60200260200101516004815181106200129b576200129b6200318e565b60025474010000000000000000000000000000000000000000900460ff16620015cf5760405162461bcd60e51b815260206004820152601860248201527f7265636f76657279206e6f7420696e2070726f67726573730000000000000000604482015260640162000249565b426005541115620016235760405162461bcd60e51b815260206004820152601460248201527f74696d656c6f636b206e6f742065787069726564000000000000000000000000604482015260640162000249565b600280547fffffffffffffffffffffff00ffffffffffffffffffffffffffffffffffffffff1690556000600555600354620016749073ffffffffffffffffffffffffffffffffffffffff1662002502565b600380547fffffffffffffffffffffffff0000000000000000000000000000000000000000169055565b60408051600160208201526060918101829052600860808201527f5245434f5645525900000000000000000000000000000000000000000000000060a082015290810182905260009060c00162000e68565b620016fa62002598565b62001706600062002502565b565b60006200180c8260405180602001620017219062002b50565b601f1982820381018352601f909101166040526200175460025473ffffffffffffffffffffffffffffffffffffffff1690565b6040513060248201526044810187905260640160408051601f19818403018152918152602080830180517bffffffffffffffffffffffffffffffffffffffffffffffffffffffff167fbe13f47c000000000000000000000000000000000000000000000000000000001790529051620017d09392910162003155565b60408051601f1981840301815290829052620017f0929160200162003337565b6040516020818303038152906040528051906020012062002629565b92915050565b7f9016d09d72d40fdae2fd8ceac6b6234c7706214fd39c1cd1e609a0528c1993005473ffffffffffffffffffffffffffffffffffffffff1633146200189a5760405162461bcd60e51b815260206004820152600a60248201527f6f6e6c79206f776e657200000000000000000000000000000000000000000000604482015260640162000249565b60025474010000000000000000000000000000000000000000900460ff1615620019075760405162461bcd60e51b815260206004820152601460248201527f7265636f7665727920696e2070726f6772657373000000000000000000000000604482015260640162000249565b80471015620019595760405162461bcd60e51b815260206004820152601460248201527f696e73756666696369656e742062616c616e6365000000000000000000000000604482015260640162000249565b60405173ffffffffffffffffffffffffffffffffffffffff83169082156108fc029083906000818181858888f193505050501580156200199d573d6000803e3d6000fd5b505050565b6000620019b7836060015160a0015162001708565b905060008173ffffffffffffffffffffffffffffffffffffffff163b1162001a225760405162461bcd60e51b815260206004820152601860248201527f677561726469616e206973206e6f74206465706c6f7965640000000000000000604482015260640162000249565b60408051600160208201526060918101829052600860808201527f5245434f5645525900000000000000000000000000000000000000000000000060a082015290810183905260009060c00160408051601f1981840301815291905280516020909101208451909150811462001adb5760405162461bcd60e51b815260206004820152601360248201527f696e76616c69642074656d706c61746520696400000000000000000000000000604482015260640162000249565b6040517fad3f5f9b000000000000000000000000000000000000000000000000000000008152829073ffffffffffffffffffffffffffffffffffffffff82169063ad3f5f9b9062001b3190889060040162003265565b6020604051808303816000875af115801562001b51573d6000803e3d6000fd5b505050506040513d601f19601f8201168201806040525081019062001b7791906200331d565b5062001b92838587602001518860600151608001516200263f565b5050505050565b62001ba362002598565b60025474010000000000000000000000000000000000000000900460ff1662001c0f5760405162461bcd60e51b815260206004820152601860248201527f7265636f76657279206e6f7420696e2070726f67726573730000000000000000604482015260640162000249565b426005541162001c625760405162461bcd60e51b815260206004820152601060248201527f74696d656c6f636b206578706972656400000000000000000000000000000000604482015260640162000249565b600280547fffffffffffffffffffffff00ffffffffffffffffffffffffffffffffffffffff169055600380547fffffffffffffffffffffffff00000000000000000000000000000000000000001690556000600555565b7f9016d09d72d40fdae2fd8ceac6b6234c7706214fd39c1cd1e609a0528c1993005473ffffffffffffffffffffffffffffffffffffffff16331462001d415760405162461bcd60e51b815260206004820152600a60248201527f6f6e6c79206f776e657200000000000000000000000000000000000000000000604482015260640162000249565b60025474010000000000000000000000000000000000000000900460ff161562001dae5760405162461bcd60e51b815260206004820152601460248201527f7265636f7665727920696e2070726f6772657373000000000000000000000000604482015260640162000249565b73ffffffffffffffffffffffffffffffffffffffff811662001e135760405162461bcd60e51b815260206004820152601060248201527f696e76616c696420677561726469616e00000000000000000000000000000000604482015260640162000249565b73ffffffffffffffffffffffffffffffffffffffff811660009081526004602052604081205460ff16600281111562001e505762001e5062002efe565b1462001e9f5760405162461bcd60e51b815260206004820152601c60248201527f677561726469616e20737461747573206d757374206265204e4f4e4500000000604482015260640162000249565b73ffffffffffffffffffffffffffffffffffffffff16600090815260046020526040902080547fffffffffffffffffffffffffffffffffffffffffffffffffffffffffffffff00166001179055565b62001ef862002598565b73ffffffffffffffffffffffffffffffffffffffff811662001f4a576040517f1e4fbdf70000000000000000000000000000000000000000000000000000000081526000600482015260240162000249565b62000e188162002502565b7ff0c57e16840df040f15088dc2f81fe391c3923bec73e23a9662efc9c229c6a00805468010000000000000000810460ff16159067ffffffffffffffff1660008115801562001fa15750825b905060008267ffffffffffffffff16600114801562001fbf5750303b155b90508115801562001fce575080155b1562002006576040517ff92ee8a900000000000000000000000000000000000000000000000000000000815260040160405180910390fd5b84547fffffffffffffffffffffffffffffffffffffffffffffffff00000000000000001660011785558315620020685784547fffffffffffffffffffffffffffffffffffffffffffffff00ffffffffffffffff16680100000000000000001785555b620020738962002a9f565b600280546000805473ffffffffffffffffffffffffffffffffffffffff808d167fffffffffffffffffffffffff000000000000000000000000000000000000000092831617909255600180548c8416921691909117905588167fffffffffffffffffffffff0000000000000000000000000000000000000000009091161790558315620021555784547fffffffffffffffffffffffffffffffffffffffffffffff00ffffffffffffffff168555604051600181527fc7f505b2f371ae2175ee4913f4499e1f2633a7b5936321eed1cdaeb6115181d29060200160405180910390a15b505050505050505050565b7f9016d09d72d40fdae2fd8ceac6b6234c7706214fd39c1cd1e609a0528c1993005473ffffffffffffffffffffffffffffffffffffffff163314620021e85760405162461bcd60e51b815260206004820152600a60248201527f6f6e6c79206f776e657200000000000000000000000000000000000000000000604482015260640162000249565b60025474010000000000000000000000000000000000000000900460ff1615620022555760405162461bcd60e51b815260206004820152601460248201527f7265636f7665727920696e2070726f6772657373000000000000000000000000604482015260640162000249565b73ffffffffffffffffffffffffffffffffffffffff8416620022ba5760405162461bcd60e51b815260206004820152601060248201527f696e76616c696420677561726469616e00000000000000000000000000000000604482015260640162000249565b600173ffffffffffffffffffffffffffffffffffffffff851660009081526004602052604090205460ff166002811115620022f957620022f962002efe565b146200236e5760405162461bcd60e51b815260206004820152602160248201527f677561726469616e20737461747573206d75737420626520524551554553544560448201527f4400000000000000000000000000000000000000000000000000000000000000606482015260840162000249565b8215620023be5760405162461bcd60e51b815260206004820152601660248201527f696e76616c69642074656d706c61746520696e64657800000000000000000000604482015260640162000249565b8151600114620024115760405162461bcd60e51b815260206004820152601660248201527f696e76616c6964207375626a65637420706172616d7300000000000000000000604482015260640162000249565b6000826000815181106200242957620024296200318e565b60200260200101518060200190518101906200244691906200336a565b905073ffffffffffffffffffffffffffffffffffffffff81163014620024af5760405162461bcd60e51b815260206004820152601f60248201527f696e76616c69642077616c6c6574206164647265737320696e20656d61696c00604482015260640162000249565b5050505073ffffffffffffffffffffffffffffffffffffffff16600090815260046020526040902080547fffffffffffffffffffffffffffffffffffffffffffffffffffffffffffffff00166002179055565b7f9016d09d72d40fdae2fd8ceac6b6234c7706214fd39c1cd1e609a0528c19930080547fffffffffffffffffffffffff0000000000000000000000000000000000000000811673ffffffffffffffffffffffffffffffffffffffff848116918217845560405192169182907f8be0079c531659141344cd1fd0a4f28419497f9722a3daafe3b4186f6b6457e090600090a3505050565b33620025d87f9016d09d72d40fdae2fd8ceac6b6234c7706214fd39c1cd1e609a0528c1993005473ffffffffffffffffffffffffffffffffffffffff1690565b73ffffffffffffffffffffffffffffffffffffffff161462001706576040517f118cdaa700000000000000000000000000000000000000000000000000000000815233600482015260240162000249565b60006200263883833062002ab4565b9392505050565b7f9016d09d72d40fdae2fd8ceac6b6234c7706214fd39c1cd1e609a0528c1993005473ffffffffffffffffffffffffffffffffffffffff163314620026c75760405162461bcd60e51b815260206004820152600a60248201527f6f6e6c79206f776e657200000000000000000000000000000000000000000000604482015260640162000249565b60025474010000000000000000000000000000000000000000900460ff1615620027345760405162461bcd60e51b815260206004820152601460248201527f7265636f7665727920696e2070726f6772657373000000000000000000000000604482015260640162000249565b73ffffffffffffffffffffffffffffffffffffffff8416620027995760405162461bcd60e51b815260206004820152601060248201527f696e76616c696420677561726469616e00000000000000000000000000000000604482015260640162000249565b600273ffffffffffffffffffffffffffffffffffffffff851660009081526004602052604090205460ff166002811115620027d857620027d862002efe565b14620028275760405162461bcd60e51b815260206004820181905260248201527f677561726469616e20737461747573206d757374206265204143434550544544604482015260640162000249565b8215620028775760405162461bcd60e51b815260206004820152601660248201527f696e76616c69642074656d706c61746520696e64657800000000000000000000604482015260640162000249565b8151600214620028ca5760405162461bcd60e51b815260206004820152601660248201527f696e76616c6964207375626a65637420706172616d7300000000000000000000604482015260640162000249565b600082600081518110620028e257620028e26200318e565b6020026020010151806020019051810190620028ff91906200336a565b90506000836001815181106200291957620029196200318e565b60200260200101518060200190518101906200293691906200336a565b905073ffffffffffffffffffffffffffffffffffffffff821630146200299f5760405162461bcd60e51b815260206004820152601960248201527f696e76616c696420677561726469616e20696e20656d61696c00000000000000604482015260640162000249565b73ffffffffffffffffffffffffffffffffffffffff811662002a045760405162461bcd60e51b815260206004820152601260248201527f696e76616c6964206e6577207369676e65720000000000000000000000000000604482015260640162000249565b600280547fffffffffffffffffffffff00ffffffffffffffffffffffffffffffffffffffff16740100000000000000000000000000000000000000001790556003805473ffffffffffffffffffffffffffffffffffffffff83167fffffffffffffffffffffffff000000000000000000000000000000000000000090911617905562002a946203f480426200338a565b600555505050505050565b62002aa962002ade565b62000e188162002b46565b6000604051836040820152846020820152828152600b8101905060ff815360559020949350505050565b7ff0c57e16840df040f15088dc2f81fe391c3923bec73e23a9662efc9c229c6a005468010000000000000000900460ff1662001706576040517fd7e6bcf800000000000000000000000000000000000000000000000000000000815260040160405180910390fd5b62001ef862002ade565b61041780620033c683390190565b7f4e487b7100000000000000000000000000000000000000000000000000000000600052604160045260246000fd5b604051610100810167ffffffffffffffff8111828210171562002bb45762002bb462002b5e565b60405290565b6040516080810167ffffffffffffffff8111828210171562002bb45762002bb462002b5e565b604051601f8201601f1916810167ffffffffffffffff8111828210171562002c0c5762002c0c62002b5e565b604052919050565b600082601f83011262002c2657600080fd5b813567ffffffffffffffff81111562002c435762002c4362002b5e565b62002c586020601f19601f8401160162002be0565b81815284602083860101111562002c6e57600080fd5b816020850160208301376000918101602001919091529392505050565b8035801515811462002c9c57600080fd5b919050565b6000610100828403121562002cb557600080fd5b62002cbf62002b8d565b9050813567ffffffffffffffff8082111562002cda57600080fd5b62002ce88583860162002c14565b83526020840135602084015260408401356040840152606084013591508082111562002d1357600080fd5b62002d218583860162002c14565b60608401526080840135608084015260a084013560a084015262002d4860c0850162002c8b565b60c084015260e084013591508082111562002d6257600080fd5b5062002d718482850162002c14565b60e08301525092915050565b6000806040838503121562002d9157600080fd5b823567ffffffffffffffff8082111562002daa57600080fd5b908401906080828703121562002dbf57600080fd5b62002dc962002bba565b823581526020808401358381111562002de157600080fd5b8401601f8101891362002df357600080fd5b80358481111562002e085762002e0862002b5e565b8060051b62002e1984820162002be0565b918252828101840191848101908c84111562002e3457600080fd5b85850192505b8383101562002e755782358881111562002e545760008081fd5b62002e648e888389010162002c14565b835250918501919085019062002e3a565b86860152505050506040848101359083015260608401358381111562002e9a57600080fd5b62002ea88982870162002ca1565b6060840152509097950135955050505050565b73ffffffffffffffffffffffffffffffffffffffff8116811462000e1857600080fd5b60006020828403121562002ef157600080fd5b8135620026388162002ebb565b7f4e487b7100000000000000000000000000000000000000000000000000000000600052602160045260246000fd5b602081016003831062002f69577f4e487b7100000000000000000000000000000000000000000000000000000000600052602160045260246000fd5b91905290565b60006020828403121562002f8257600080fd5b5035919050565b60005b8381101562002fa657818101518382015260200162002f8c565b50506000910152565b6000815180845262002fc981602086016020860162002f89565b601f01601f19169290920160200192915050565b60008282518085526020808601955060208260051b8401016020860160005b848110156200302e57601f198684030189526200301b83835162002faf565b9884019892509083019060010162002ffc565b5090979650505050505050565b600060208083016020845280855180835260408601915060408160051b87010192506020870160005b82811015620030b4577fffffffffffffffffffffffffffffffffffffffffffffffffffffffffffffffc0888603018452620030a185835162002fdd565b9450928501929085019060010162003064565b5092979650505050505050565b60008060408385031215620030d557600080fd5b8235620030e28162002ebb565b946020939093013593505050565b600080600080608085870312156200310757600080fd5b8435620031148162002ebb565b93506020850135620031268162002ebb565b92506040850135620031388162002ebb565b915060608501356200314a8162002ebb565b939692955090935050565b73ffffffffffffffffffffffffffffffffffffffff8316815260406020820152600062003186604083018462002faf565b949350505050565b7f4e487b7100000000000000000000000000000000000000000000000000000000600052603260045260246000fd5b82815260406020820152600062003186604083018462002fdd565b60006101008251818552620031f08286018262002faf565b91505060208301516020850152604083015160408501526060830151848203606086015262003220828262002faf565b9150506080830151608085015260a083015160a085015260c0830151151560c085015260e083015184820360e08601526200325c828262002faf565b95945050505050565b6000602080835260a08301845182850152818501516080604086015281815180845260c08701915060c08160051b8801019350848301925060005b81811015620032f0577fffffffffffffffffffffffffffffffffffffffffffffffffffffffffffffff40888603018352620032dd85855162002faf565b94509285019291850191600101620032a0565b505050506040850151606085015260608501519150601f198482030160808501526200325c8183620031d8565b6000602082840312156200333057600080fd5b5051919050565b600083516200334b81846020880162002f89565b8351908301906200336181836020880162002f89565b01949350505050565b6000602082840312156200337d57600080fd5b8151620026388162002ebb565b808201808211156200180c577f4e487b7100000000000000000000000000000000000000000000000000000000600052601160045260246000fdfe608060405260405161041738038061041783398101604081905261002291610268565b61002c8282610033565b5050610352565b61003c82610092565b6040516001600160a01b038316907fbc7cd75a20ee27fd9adebab32041f755214dbc6bffa90cc0225b39da2e5c2d3b90600090a280511561008657610081828261010e565b505050565b61008e610185565b5050565b806001600160a01b03163b6000036100cd57604051634c9c8ce360e01b81526001600160a01b03821660048201526024015b60405180910390fd5b7f360894a13ba1a3210667c828492db98dca3e2076cc3735a920a3ca505d382bbc80546001600160a01b0319166001600160a01b0392909216919091179055565b6060600080846001600160a01b03168460405161012b9190610336565b600060405180830381855af49150503d8060008114610166576040519150601f19603f3d011682016040523d82523d6000602084013e61016b565b606091505b50909250905061017c8583836101a6565b95945050505050565b34156101a45760405163b398979f60e01b815260040160405180910390fd5b565b6060826101bb576101b682610205565b6101fe565b81511580156101d257506001600160a01b0384163b155b156101fb57604051639996b31560e01b81526001600160a01b03851660048201526024016100c4565b50805b9392505050565b8051156102155780518082602001fd5b604051630a12f52160e11b815260040160405180910390fd5b634e487b7160e01b600052604160045260246000fd5b60005b8381101561025f578181015183820152602001610247565b50506000910152565b6000806040838503121561027b57600080fd5b82516001600160a01b038116811461029257600080fd5b60208401519092506001600160401b03808211156102af57600080fd5b818501915085601f8301126102c357600080fd5b8151818111156102d5576102d561022e565b604051601f8201601f19908116603f011681019083821181831017156102fd576102fd61022e565b8160405282815288602084870101111561031657600080fd5b610327836020830160208801610244565b80955050505050509250929050565b60008251610348818460208701610244565b9190910192915050565b60b7806103606000396000f3fe6080604052600a600c565b005b60186014601a565b605e565b565b600060597f360894a13ba1a3210667c828492db98dca3e2076cc3735a920a3ca505d382bbc5473ffffffffffffffffffffffffffffffffffffffff1690565b905090565b3660008037600080366000845af43d6000803e808015607c573d6000f35b3d6000fdfea2646970667358221220e5d4e885ae4e1d458a336f44a546c708cbfa1bfae5645cbeb0fff80caa4cdd1c64736f6c63430008170033a2646970667358221220b026bb40be91089f16388f11e55f8b658e0ad790e1ed544cca83ce2372d936c664736f6c63430008170033","linkReferences":{}},"methodIdentifiers":{"TIMELOCK_PERIOD()":"4a5bcbf8","acceptanceSubjectTemplates()":"5bafadda","completeRecovery()":"6b0c717e","computeAcceptanceTemplateId(uint256)":"32ccc2f2","computeEmailAuthAddress(bytes32)":"81520782","computeRecoveryTemplateId(uint256)":"6da99515","dkim()":"400ad5ce","dkimAddr()":"73357f85","emailAuthImplementation()":"b6201692","emailAuthImplementationAddr()":"1098e02e","guardians(address)":"0633b14a","handleAcceptance((uint256,bytes[],uint256,(string,bytes32,uint256,string,bytes32,bytes32,bool,bytes)),uint256)":"0481af67","handleRecovery((uint256,bytes[],uint256,(string,bytes32,uint256,string,bytes32,bytes32,bool,bytes)),uint256)":"b68126fa","initialize(address,address,address,address)":"f8c8765e","isRecovering()":"91ac2788","newSignerCandidate()":"71ce6064","owner()":"8da5cb5b","recoverySubjectTemplates()":"3e91cdcd","rejectRecovery()":"d446bb9a","renounceOwnership()":"715018a6","requestGuardian(address)":"dbeb882a","timelock()":"d33219b4","transfer(address,uint256)":"a9059cbb","transferOwnership(address)":"f2fde38b","verifier()":"2b7ac3f3","verifierAddr()":"663ea2e2","withdraw(uint256)":"2e1a7d4d"},"storageLayout":{"storage":[{"astId":60083,"contract":"test/helpers/SimpleWallet.sol:SimpleWallet","label":"verifierAddr","offset":0,"slot":"0","type":"t_address"},{"astId":60085,"contract":"test/helpers/SimpleWallet.sol:SimpleWallet","label":"dkimAddr","offset":0,"slot":"1","type":"t_address"},{"astId":60087,"contract":"test/helpers/SimpleWallet.sol:SimpleWallet","label":"emailAuthImplementationAddr","offset":0,"slot":"2","type":"t_address"},{"astId":65431,"contract":"test/helpers/SimpleWallet.sol:SimpleWallet","label":"isRecovering","offset":20,"slot":"2","type":"t_bool"},{"astId":65433,"contract":"test/helpers/SimpleWallet.sol:SimpleWallet","label":"newSignerCandidate","offset":0,"slot":"3","type":"t_address"},{"astId":65438,"contract":"test/helpers/SimpleWallet.sol:SimpleWallet","label":"guardians","offset":0,"slot":"4","type":"t_mapping(t_address,t_enum(GuardianStatus)65426)"},{"astId":65440,"contract":"test/helpers/SimpleWallet.sol:SimpleWallet","label":"timelock","offset":0,"slot":"5","type":"t_uint256"}],"types":{"t_address":{"encoding":"inplace","label":"address","numberOfBytes":"20"},"t_bool":{"encoding":"inplace","label":"bool","numberOfBytes":"1"},"t_enum(GuardianStatus)65426":{"encoding":"inplace","label":"enum SimpleWallet.GuardianStatus","numberOfBytes":"1"},"t_mapping(t_address,t_enum(GuardianStatus)65426)":{"encoding":"mapping","key":"t_address","label":"mapping(address => enum SimpleWallet.GuardianStatus)","numberOfBytes":"32","value":"t_enum(GuardianStatus)65426"},"t_uint256":{"encoding":"inplace","label":"uint256","numberOfBytes":"32"}}},"id":100}