{"abi":[{"type":"constructor","inputs":[{"name":"_verifier","type":"address","internalType":"address"},{"name":"_dkimRegistry","type":"address","internalType":"address"},{"name":"_emailAuthImpl","type":"address","internalType":"address"}],"stateMutability":"nonpayable"},{"type":"function","name":"acceptanceSubjectTemplates","inputs":[],"outputs":[{"name":"","type":"string[][]","internalType":"string[][]"}],"stateMutability":"pure"},{"type":"function","name":"addGuardianWithThreshold","inputs":[{"name":"guardian","type":"address","internalType":"address"},{"name":"weight","type":"uint256","internalType":"uint256"},{"name":"threshold","type":"uint256","internalType":"uint256"}],"outputs":[],"stateMutability":"nonpayable"},{"type":"function","name":"cancelRecovery","inputs":[],"outputs":[],"stateMutability":"nonpayable"},{"type":"function","name":"changeThreshold","inputs":[{"name":"threshold","type":"uint256","internalType":"uint256"}],"outputs":[],"stateMutability":"nonpayable"},{"type":"function","name":"completeRecovery","inputs":[],"outputs":[],"stateMutability":"nonpayable"},{"type":"function","name":"completeRecovery","inputs":[{"name":"account","type":"address","internalType":"address"}],"outputs":[],"stateMutability":"nonpayable"},{"type":"function","name":"computeAcceptanceTemplateId","inputs":[{"name":"templateIdx","type":"uint256","internalType":"uint256"}],"outputs":[{"name":"","type":"uint256","internalType":"uint256"}],"stateMutability":"pure"},{"type":"function","name":"computeEmailAuthAddress","inputs":[{"name":"accountSalt","type":"bytes32","internalType":"bytes32"}],"outputs":[{"name":"","type":"address","internalType":"address"}],"stateMutability":"view"},{"type":"function","name":"computeRecoveryTemplateId","inputs":[{"name":"templateIdx","type":"uint256","internalType":"uint256"}],"outputs":[{"name":"","type":"uint256","internalType":"uint256"}],"stateMutability":"pure"},{"type":"function","name":"configureRecovery","inputs":[{"name":"guardians","type":"address[]","internalType":"address[]"},{"name":"weights","type":"uint256[]","internalType":"uint256[]"},{"name":"threshold","type":"uint256","internalType":"uint256"},{"name":"recoveryDelay","type":"uint256","internalType":"uint256"},{"name":"recoveryExpiry","type":"uint256","internalType":"uint256"}],"outputs":[],"stateMutability":"nonpayable"},{"type":"function","name":"dkim","inputs":[],"outputs":[{"name":"","type":"address","internalType":"address"}],"stateMutability":"view"},{"type":"function","name":"dkimAddr","inputs":[],"outputs":[{"name":"","type":"address","internalType":"address"}],"stateMutability":"view"},{"type":"function","name":"emailAuthImplementation","inputs":[],"outputs":[{"name":"","type":"address","internalType":"address"}],"stateMutability":"view"},{"type":"function","name":"emailAuthImplementationAddr","inputs":[],"outputs":[{"name":"","type":"address","internalType":"address"}],"stateMutability":"view"},{"type":"function","name":"getAccountForRouter","inputs":[{"name":"recoveryRouter","type":"address","internalType":"address"}],"outputs":[{"name":"","type":"address","internalType":"address"}],"stateMutability":"view"},{"type":"function","name":"getGuardian","inputs":[{"name":"account","type":"address","internalType":"address"},{"name":"guardian","type":"address","internalType":"address"}],"outputs":[{"name":"","type":"tuple","internalType":"struct IGuardianManager.GuardianStorage","components":[{"name":"status","type":"uint8","internalType":"enum IGuardianManager.GuardianStatus"},{"name":"weight","type":"uint256","internalType":"uint256"}]}],"stateMutability":"view"},{"type":"function","name":"getGuardianConfig","inputs":[{"name":"account","type":"address","internalType":"address"}],"outputs":[{"name":"","type":"tuple","internalType":"struct IGuardianManager.GuardianConfig","components":[{"name":"guardianCount","type":"uint256","internalType":"uint256"},{"name":"threshold","type":"uint256","internalType":"uint256"}]}],"stateMutability":"view"},{"type":"function","name":"getRecoveryConfig","inputs":[{"name":"account","type":"address","internalType":"address"}],"outputs":[{"name":"","type":"tuple","internalType":"struct IZkEmailRecovery.RecoveryConfig","components":[{"name":"recoveryDelay","type":"uint256","internalType":"uint256"},{"name":"recoveryExpiry","type":"uint256","internalType":"uint256"}]}],"stateMutability":"view"},{"type":"function","name":"getRecoveryRequest","inputs":[{"name":"account","type":"address","internalType":"address"}],"outputs":[{"name":"","type":"tuple","internalType":"struct IZkEmailRecovery.RecoveryRequest","components":[{"name":"executeAfter","type":"uint256","internalType":"uint256"},{"name":"executeBefore","type":"uint256","internalType":"uint256"},{"name":"totalWeight","type":"uint256","internalType":"uint256"},{"name":"newOwner","type":"address","internalType":"address"},{"name":"recoveryModule","type":"address","internalType":"address"}]}],"stateMutability":"view"},{"type":"function","name":"getRouterForAccount","inputs":[{"name":"account","type":"address","internalType":"address"}],"outputs":[{"name":"","type":"address","internalType":"address"}],"stateMutability":"view"},{"type":"function","name":"handleAcceptance","inputs":[{"name":"emailAuthMsg","type":"tuple","internalType":"struct EmailAuthMsg","components":[{"name":"templateId","type":"uint256","internalType":"uint256"},{"name":"subjectParams","type":"bytes[]","internalType":"bytes[]"},{"name":"skipedSubjectPrefix","type":"uint256","internalType":"uint256"},{"name":"proof","type":"tuple","internalType":"struct EmailProof","components":[{"name":"domainName","type":"string","internalType":"string"},{"name":"publicKeyHash","type":"bytes32","internalType":"bytes32"},{"name":"timestamp","type":"uint256","internalType":"uint256"},{"name":"maskedSubject","type":"string","internalType":"string"},{"name":"emailNullifier","type":"bytes32","internalType":"bytes32"},{"name":"accountSalt","type":"bytes32","internalType":"bytes32"},{"name":"isCodeExist","type":"bool","internalType":"bool"},{"name":"proof","type":"bytes","internalType":"bytes"}]}]},{"name":"templateIdx","type":"uint256","internalType":"uint256"}],"outputs":[],"stateMutability":"nonpayable"},{"type":"function","name":"handleRecovery","inputs":[{"name":"emailAuthMsg","type":"tuple","internalType":"struct EmailAuthMsg","components":[{"name":"templateId","type":"uint256","internalType":"uint256"},{"name":"subjectParams","type":"bytes[]","internalType":"bytes[]"},{"name":"skipedSubjectPrefix","type":"uint256","internalType":"uint256"},{"name":"proof","type":"tuple","internalType":"struct EmailProof","components":[{"name":"domainName","type":"string","internalType":"string"},{"name":"publicKeyHash","type":"bytes32","internalType":"bytes32"},{"name":"timestamp","type":"uint256","internalType":"uint256"},{"name":"maskedSubject","type":"string","internalType":"string"},{"name":"emailNullifier","type":"bytes32","internalType":"bytes32"},{"name":"accountSalt","type":"bytes32","internalType":"bytes32"},{"name":"isCodeExist","type":"bool","internalType":"bool"},{"name":"proof","type":"bytes","internalType":"bytes"}]}]},{"name":"templateIdx","type":"uint256","internalType":"uint256"}],"outputs":[],"stateMutability":"nonpayable"},{"type":"function","name":"isGuardian","inputs":[{"name":"guardian","type":"address","internalType":"address"},{"name":"account","type":"address","internalType":"address"}],"outputs":[{"name":"","type":"bool","internalType":"bool"}],"stateMutability":"view"},{"type":"function","name":"recoveryConfigs","inputs":[{"name":"","type":"address","internalType":"address"}],"outputs":[{"name":"recoveryDelay","type":"uint256","internalType":"uint256"},{"name":"recoveryExpiry","type":"uint256","internalType":"uint256"}],"stateMutability":"view"},{"type":"function","name":"recoveryRequests","inputs":[{"name":"","type":"address","internalType":"address"}],"outputs":[{"name":"executeAfter","type":"uint256","internalType":"uint256"},{"name":"executeBefore","type":"uint256","internalType":"uint256"},{"name":"totalWeight","type":"uint256","internalType":"uint256"},{"name":"newOwner","type":"address","internalType":"address"},{"name":"recoveryModule","type":"address","internalType":"address"}],"stateMutability":"view"},{"type":"function","name":"recoverySubjectTemplates","inputs":[],"outputs":[{"name":"","type":"string[][]","internalType":"string[][]"}],"stateMutability":"pure"},{"type":"function","name":"removeGuardian","inputs":[{"name":"guardian","type":"address","internalType":"address"},{"name":"threshold","type":"uint256","internalType":"uint256"}],"outputs":[],"stateMutability":"nonpayable"},{"type":"function","name":"swapGuardian","inputs":[{"name":"oldGuardian","type":"address","internalType":"address"},{"name":"newGuardian","type":"address","internalType":"address"}],"outputs":[],"stateMutability":"nonpayable"},{"type":"function","name":"updateGuardian","inputs":[{"name":"guardian","type":"address","internalType":"address"},{"name":"_guardianStorage","type":"tuple","internalType":"struct IGuardianManager.GuardianStorage","components":[{"name":"status","type":"uint8","internalType":"enum IGuardianManager.GuardianStatus"},{"name":"weight","type":"uint256","internalType":"uint256"}]}],"outputs":[],"stateMutability":"nonpayable"},{"type":"function","name":"updateRecoveryDelay","inputs":[{"name":"recoveryDelay","type":"uint256","internalType":"uint256"}],"outputs":[],"stateMutability":"nonpayable"},{"type":"function","name":"verifier","inputs":[],"outputs":[{"name":"","type":"address","internalType":"address"}],"stateMutability":"view"},{"type":"function","name":"verifierAddr","inputs":[],"outputs":[{"name":"","type":"address","internalType":"address"}],"stateMutability":"view"},{"type":"event","name":"AddedGuardian","inputs":[{"name":"guardian","type":"address","indexed":true,"internalType":"address"}],"anonymous":false},{"type":"event","name":"ChangedThreshold","inputs":[{"name":"threshold","type":"uint256","indexed":false,"internalType":"uint256"}],"anonymous":false},{"type":"event","name":"RecoveryCancelled","inputs":[{"name":"account","type":"address","indexed":true,"internalType":"address"}],"anonymous":false},{"type":"event","name":"RecoveryCompleted","inputs":[{"name":"account","type":"address","indexed":true,"internalType":"address"}],"anonymous":false},{"type":"event","name":"RecoveryConfigured","inputs":[{"name":"account","type":"address","indexed":true,"internalType":"address"},{"name":"recoveryDelay","type":"uint256","indexed":false,"internalType":"uint256"},{"name":"recoveryExpiry","type":"uint256","indexed":false,"internalType":"uint256"},{"name":"router","type":"address","indexed":false,"internalType":"address"}],"anonymous":false},{"type":"event","name":"RecoveryInitiated","inputs":[{"name":"account","type":"address","indexed":true,"internalType":"address"},{"name":"executeAfter","type":"uint256","indexed":false,"internalType":"uint256"}],"anonymous":false},{"type":"event","name":"RemovedGuardian","inputs":[{"name":"guardian","type":"address","indexed":true,"internalType":"address"}],"anonymous":false},{"type":"error","name":"AccountNotConfigured","inputs":[]},{"type":"error","name":"AddressAlreadyGuardian","inputs":[]},{"type":"error","name":"AddressAlreadyRequested","inputs":[]},{"type":"error","name":"DelayNotPassed","inputs":[]},{"type":"error","name":"GuardianStatusMustBeDifferent","inputs":[]},{"type":"error","name":"InvalidAccountAddress","inputs":[]},{"type":"error","name":"InvalidGuardian","inputs":[]},{"type":"error","name":"InvalidGuardianAddress","inputs":[]},{"type":"error","name":"InvalidGuardianStatus","inputs":[{"name":"guardianStatus","type":"uint8","internalType":"enum IGuardianManager.GuardianStatus"},{"name":"expectedGuardianStatus","type":"uint8","internalType":"enum IGuardianManager.GuardianStatus"}]},{"type":"error","name":"InvalidNewOwner","inputs":[]},{"type":"error","name":"InvalidRecoveryModule","inputs":[]},{"type":"error","name":"InvalidSubjectParams","inputs":[]},{"type":"error","name":"InvalidTemplateIndex","inputs":[]},{"type":"error","name":"NotEnoughApprovals","inputs":[]},{"type":"error","name":"RecoveryInProcess","inputs":[]},{"type":"error","name":"RecoveryRequestExpired","inputs":[]},{"type":"error","name":"RouterAlreadyDeployed","inputs":[]},{"type":"error","name":"SetupAlreadyCalled","inputs":[]},{"type":"error","name":"ThresholdCannotBeZero","inputs":[]},{"type":"error","name":"ThresholdCannotExceedGuardianCount","inputs":[]}],"bytecode":{"object":"0x6080604052348015600f57600080fd5b506040516146cd3803806146cd833981016040819052602c916088565b600480546001600160a01b039485166001600160a01b03199182161790915560058054938516938216939093179092556006805491909316911617905560c4565b80516001600160a01b0381168114608357600080fd5b919050565b600080600060608486031215609c57600080fd5b60a384606d565b925060af60208501606d565b915060bb60408501606d565b90509250925092565b6145fa806100d36000396000f3fe608060405234801561001057600080fd5b50600436106101f05760003560e01c80636da995151161010f578063b6201692116100a2578063d4ee973411610071578063d4ee973414610573578063da34a85014610596578063e9259238146105b6578063f480dd7e146105c957600080fd5b8063b620169214610512578063b68126fa14610523578063c31c5fec14610536578063d000e99c1461056257600080fd5b806381520782116100de5780638152078214610443578063822ee58f146104565780638d71a6f414610482578063a1b097c51461049557600080fd5b80636da99515146103ce57806373357f85146103e15780637c8e804e146103f45780637d87311c1461043057600080fd5b8063400ad5ce1161018757806360bb9d5c1161015657806360bb9d5c1461038d578063663ea2e2146103a0578063694e80c3146103b35780636b0c717e146103c657600080fd5b8063400ad5ce146103025780634f9a28b91461031357806356e074bb146103725780635bafadda1461038557600080fd5b80632788bbda116101c35780632788bbda146102665780632b7ac3f3146102bb57806332ccc2f2146102cc5780633e91cdcd146102ed57600080fd5b80630481af67146101f55780630ba234d61461020a5780630bb6094a146102125780631098e02e1461023b575b600080fd5b610208610203366004612b0e565b6105dc565b005b610208610a64565b610225610220366004612c3f565b610acf565b6040516102329190612c5c565b60405180910390f35b60065461024e906001600160a01b031681565b6040516001600160a01b039091168152602001610232565b610225610274366004612c3f565b6040805180820190915260008082526020820152506001600160a01b0316600090815260076020908152604091829020825180840190935280548352600101549082015290565b6004546001600160a01b031661024e565b6102df6102da366004612c73565b610b16565b604051908152602001610232565b6102f5610b6e565b6040516102329190612d36565b6005546001600160a01b031661024e565b610326610321366004612c3f565b610faf565b60405161023291908151815260208083015190820152604080830151908201526060808301516001600160a01b0390811691830191909152608092830151169181019190915260a00190565b610208610380366004612d9a565b611052565b6102f5611313565b61020861039b366004612e3d565b611538565b60045461024e906001600160a01b031681565b6102086103c1366004612c73565b61160f565b610208611627565b6102df6103dc366004612c73565b611649565b60055461024e906001600160a01b031681565b61041b610402366004612c3f565b6007602052600090815260409020805460019091015482565b60408051928352602083019190915201610232565b61020861043e366004612f1a565b61165f565b61024e610451366004612c73565b611865565b61024e610464366004612c3f565b6001600160a01b039081166000908152600360205260409020541690565b610208610490366004612f4f565b61192b565b6104de6104a3366004612c3f565b600860205260009081526040902080546001820154600283015460038401546004909401549293919290916001600160a01b03908116911685565b604080519586526020860194909452928401919091526001600160a01b03908116606084015216608082015260a001610232565b6006546001600160a01b031661024e565b610208610531366004612b0e565b611a49565b61024e610544366004612c3f565b6001600160a01b039081166000908152600260205260409020541690565b610208610570366004612c73565b50565b610586610581366004612d9a565b611bb9565b6040519015158152602001610232565b6105a96105a4366004612d9a565b611bfd565b6040516102329190612fb3565b6102086105c4366004612fd4565b611c7d565b6102086105d7366004612c3f565b611c91565b60006105ef836060015160a00151611865565b90506001600160a01b0381163b1561064e5760405162461bcd60e51b815260206004820152601c60248201527f677561726469616e20697320616c7265616479206465706c6f7965640000000060448201526064015b60405180910390fd5b600061065983610b16565b845190915081146106a25760405162461bcd60e51b81526020600482015260136024820152721a5b9d985b1a59081d195b5c1b185d19481a59606a1b6044820152606401610645565b606084015160c0015115156001146106f35760405162461bcd60e51b81526020600482015260146024820152736973436f646545786973742069732066616c736560601b6044820152606401610645565b6000846060015160a001516107106006546001600160a01b031690565b606087015160a00151604051306024820152604481019190915260640160408051601f198184030181529181526020820180516001600160e01b0316632f84fd1f60e21b17905251610761906128e9565b61076c929190613055565b8190604051809103906000f590508015801561078c573d6000803e3d6000fd5b509050806001600160a01b03811663a500125c6107b16005546001600160a01b031690565b6040516001600160e01b031960e084901b1681526001600160a01b039091166004820152602401600060405180830381600087803b1580156107f257600080fd5b505af1158015610806573d6000803e3d6000fd5b50505050806001600160a01b03166397fc007c61082b6004546001600160a01b031690565b6040516001600160e01b031960e084901b1681526001600160a01b039091166004820152602401600060405180830381600087803b15801561086c57600080fd5b505af1158015610880573d6000803e3d6000fd5b5050505060005b61088f611313565b5181101561092b57816001600160a01b031663c4b84df46108af83610b16565b6108b7611313565b84815181106108c8576108c8613081565b60200260200101516040518363ffffffff1660e01b81526004016108ed929190613097565b600060405180830381600087803b15801561090757600080fd5b505af115801561091b573d6000803e3d6000fd5b5050600190920191506108879050565b5060005b610937610b6e565b518110156109d357816001600160a01b031663c4b84df461095783611649565b61095f610b6e565b848151811061097057610970613081565b60200260200101516040518363ffffffff1660e01b8152600401610995929190613097565b600060405180830381600087803b1580156109af57600080fd5b505af11580156109c3573d6000803e3d6000fd5b50506001909201915061092f9050565b5060405163ad3f5f9b60e01b81526001600160a01b0382169063ad3f5f9b90610a00908990600401613137565b6020604051808303816000875af1158015610a1f573d6000803e3d6000fd5b505050506040513d601f19601f82011682018060405250810190610a4391906131cb565b50610a5c84868860200151896060015160800151611e96565b505050505050565b3360008181526008602052604080822082815560018101839055600281018390556003810180546001600160a01b03199081169091556004909101805490911690555182917f8154b6c5e1fc90d44b49808ef93f9739148d0821411890f8cd684385e24b9f1e91a250565b6040805180820190915260008082526020820152506001600160a01b0316600090815260016020818152604092839020835180850190945280548452909101549082015290565b60408051600160208201526060918101829052600a608082015269414343455054414e434560b01b60a082015290810182905260009060c0015b60408051601f19818403018152919052805160209091012092915050565b60408051600180825281830190925260609160009190816020015b6060815260200190600190039081610b8957505060408051600b8082526101808201909252919250602082015b6060815260200190600190039081610bb65790505081600081518110610bde57610bde613081565b6020026020010181905250604051806040016040528060078152602001662932b1b7bb32b960c91b81525081600081518110610c1c57610c1c613081565b6020026020010151600081518110610c3657610c36613081565b6020026020010181905250604051806040016040528060078152602001661858d8dbdd5b9d60ca1b81525081600081518110610c7457610c74613081565b6020026020010151600181518110610c8e57610c8e613081565b6020026020010181905250604051806040016040528060098152602001687b657468416464727d60b81b81525081600081518110610cce57610cce613081565b6020026020010151600281518110610ce857610ce8613081565b602002602001018190525060405180604001604052806002815260200161746f60f01b81525081600081518110610d2157610d21613081565b6020026020010151600381518110610d3b57610d3b613081565b6020026020010181905250604051806040016040528060038152602001626e657760e81b81525081600081518110610d7557610d75613081565b6020026020010151600481518110610d8f57610d8f613081565b60200260200101819052506040518060400160405280600581526020016437bbb732b960d91b81525081600081518110610dcb57610dcb613081565b6020026020010151600581518110610de557610de5613081565b6020026020010181905250604051806040016040528060098152602001687b657468416464727d60b81b81525081600081518110610e2557610e25613081565b6020026020010151600681518110610e3f57610e3f613081565b6020026020010181905250604051806040016040528060058152602001647573696e6760d81b81525081600081518110610e7b57610e7b613081565b6020026020010151600781518110610e9557610e95613081565b6020026020010181905250604051806040016040528060088152602001677265636f7665727960c01b81525081600081518110610ed457610ed4613081565b6020026020010151600881518110610eee57610eee613081565b6020026020010181905250604051806040016040528060068152602001656d6f64756c6560d01b81525081600081518110610f2b57610f2b613081565b6020026020010151600981518110610f4557610f45613081565b6020026020010181905250604051806040016040528060098152602001687b657468416464727d60b81b81525081600081518110610f8557610f85613081565b6020026020010151600a81518110610f9f57610f9f613081565b6020908102919091010152919050565b610ff36040518060a0016040528060008152602001600081526020016000815260200160006001600160a01b0316815260200160006001600160a01b031681525090565b506001600160a01b03908116600090815260086020908152604091829020825160a08101845281548152600182015492810192909252600281015492820192909252600382015483166060820152600490910154909116608082015290565b61105b33611fe4565b336000818152602081815260408083206001600160a01b03861680855292529091205460ff1690158061109657506001600160a01b03831630145b806110b25750836001600160a01b0316836001600160a01b0316145b156110d0576040516306c2041560e21b815260040160405180910390fd5b60018160028111156110e4576110e4612f7b565b0361110257604051632868fdcd60e11b815260040160405180910390fd5b600281600281111561111657611116612f7b565b0361113457604051637270b0a760e11b815260040160405180910390fd5b6001600160a01b03808316600090815260208181526040808320938816835292905281812082518084019093528054919291829060ff16600281111561117c5761117c612f7b565b600281111561118d5761118d612f7b565b8152600191820154602090910152909150815160028111156111b1576111b1612f7b565b036111cf57604051632868fdcd60e11b815260040160405180910390fd5b604080518082019091528060018152602083810151918101919091526001600160a01b0380861660009081528083526040808220928916825291909252902081518154829060ff1916600183600281111561122c5761122c612f7b565b021790555060209190910151600190910155604080518082019091528060008152600060209182018190526001600160a01b0380871682528183526040808320918a16835292522081518154829060ff1916600183600281111561129257611292612f7b565b0217905550602091909101516001909101556040516001600160a01b038616907fc9027b197fc248eafe005fe99b0ab8eff85796a7566b690cc9420506afeb1b9a90600090a26040516001600160a01b038516907f8b1db34d540718ac1b2034b71317177ec88539dec87e3ebabef49f0fe60d88bf90600090a25050505050565b60408051600180825281830190925260609160009190816020015b606081526020019060019003908161132e57505060408051600580825260c08201909252919250602082015b606081526020019060019003908161135a579050508160008151811061138257611382613081565b6020026020010181905250604051806040016040528060068152602001651058d8d95c1d60d21b815250816000815181106113bf576113bf613081565b60200260200101516000815181106113d9576113d9613081565b60200260200101819052506040518060400160405280600881526020016733bab0b93234b0b760c11b8152508160008151811061141857611418613081565b602002602001015160018151811061143257611432613081565b6020026020010181905250604051806040016040528060078152602001661c995c5d595cdd60ca1b8152508160008151811061147057611470613081565b602002602001015160028151811061148a5761148a613081565b6020026020010181905250604051806040016040528060038152602001623337b960e91b815250816000815181106114c4576114c4613081565b60200260200101516003815181106114de576114de613081565b6020026020010181905250604051806040016040528060098152602001687b657468416464727d60b81b8152508160008151811061151e5761151e613081565b6020026020010151600481518110610f9f57610f9f613081565b336115458187878761201d565b6001600160a01b0381166000908152600860205260409020600201541561157f57604051633e43a9bf60e21b815260040160405180910390fd5b600061158a826122a6565b60408051808201825286815260208082018781526001600160a01b038781166000818152600785528690209451855591516001909401939093558351898152918201889052918416818401529151929350917f5b0ff2fc4867df5daf96d3f5a1b53182c3057f381913cb0977584484402a86599181900360600190a250505050505050565b61161833611fe4565b33611623818361236d565b5050565b336000908152600260205260409020546001600160a01b031661057081611c91565b6000600182604051602001610b509291906131e4565b61166833611fe4565b336000818152602081815260408083206001600160a01b038816845290915280822081518083019092528054829060ff1660028111156116aa576116aa612f7b565b60028111156116bb576116bb612f7b565b81526001919091015460209091015290506001600160a01b03851615806116ea57506001600160a01b03851630145b15611708576040516306c2041560e21b815260040160405180910390fd5b60018151600281111561171d5761171d612f7b565b0361173b57604051632868fdcd60e11b815260040160405180910390fd5b60028151600281111561175057611750612f7b565b0361176e57604051637270b0a760e11b815260040160405180910390fd5b60408051808201909152806001815260209081018690526001600160a01b0380851660009081528083526040808220928a16825291909252902081518154829060ff191660018360028111156117c6576117c6612f7b565b02179055506020918201516001918201556001600160a01b03841660009081529152604081208054916117f88361322d565b90915550506040516001600160a01b038616907f8b1db34d540718ac1b2034b71317177ec88539dec87e3ebabef49f0fe60d88bf90600090a26001600160a01b03821660009081526001602081905260409091200154831461185e5761185e828461236d565b5050505050565b6000611925826040518060200161187b906128e9565b601f1982820381018352601f909101166040526118a06006546001600160a01b031690565b6040513060248201526044810187905260640160408051601f19818403018152918152602080830180516001600160e01b0316632f84fd1f60e21b17905290516118ec93929101613055565b60408051601f198184030181529082905261190a9291602001613246565b60405160208183030381529060405280519060200120612423565b92915050565b61193433611fe4565b336000818152600160208190526040909120810154839161195491613275565b1015611973576040516342012dad60e01b815260040160405180910390fd5b6001600160a01b03831661199a576040516306c2041560e21b815260040160405180910390fd5b6001600160a01b038181166000818152602081815260408083209488168352938152838220805460ff1916905591815260019091529081208054916119de83613288565b90915550506040516001600160a01b038416907fc9027b197fc248eafe005fe99b0ab8eff85796a7566b690cc9420506afeb1b9a90600090a26001600160a01b038116600090815260016020819052604090912001548214611a4457611a44818361236d565b505050565b6000611a5c836060015160a00151611865565b90506000816001600160a01b03163b11611ab85760405162461bcd60e51b815260206004820152601860248201527f677561726469616e206973206e6f74206465706c6f79656400000000000000006044820152606401610645565b6000600183604051602001611ace9291906131e4565b60408051601f19818403018152919052805160209091012084519091508114611b2f5760405162461bcd60e51b81526020600482015260136024820152721a5b9d985b1a59081d195b5c1b185d19481a59606a1b6044820152606401610645565b60405163ad3f5f9b60e01b815282906001600160a01b0382169063ad3f5f9b90611b5d908890600401613137565b6020604051808303816000875af1158015611b7c573d6000803e3d6000fd5b505050506040513d601f19601f82011682018060405250810190611ba091906131cb565b5061185e83858760200151886060015160800151612437565b6000806001600160a01b038084166000908152602081815260408083209388168352929052205460ff166002811115611bf457611bf4612f7b565b14159392505050565b60408051808201909152600080825260208201526001600160a01b03808416600090815260208181526040808320938616835292905281902081518083019092528054829060ff166002811115611c5657611c56612f7b565b6002811115611c6757611c67612f7b565b8152602001600182015481525050905092915050565b611c8633611fe4565b61162333838361270e565b6001600160a01b038082166000908152600860209081526040808320815160a08101835281548152600182015493810193909352600281015491830191909152600381015484166060830152600401549092166080830152611cf283610acf565b6020015190508082604001511015611d1d5760405163125e6df560e11b815260040160405180910390fd5b8151421015611d3f576040516364037fb760e11b815260040160405180910390fd5b81602001514210611dae576001600160a01b0383166000908152600860205260408082208281556001810183905560028101929092556003820180546001600160a01b03199081169091556004928301805490911690558051634c2babb160e01b815290519081900390910190fd5b6001600160a01b038381166000818152600860205260408082208281556001810183905560028101929092556003820180546001600160a01b0319908116909155600492830180549091169055608086015160608701519151631922fddd60e21b8152928301939093528316602482015291169063648bf77490604401600060405180830381600087803b158015611e4557600080fd5b505af1158015611e59573d6000803e3d6000fd5b50506040516001600160a01b03861692507f46f5008939fa0b4beb46ae7f0e8368318bb72b56608910ca71c23e83382f609f9150600090a2505050565b6001600160a01b038416611ebd5760405163a6c1146b60e01b815260040160405180910390fd5b8215611edc57604051635abe71c960e01b815260040160405180910390fd5b8151600114611efe576040516335d0eb9b60e21b815260040160405180910390fd5b600082600081518110611f1357611f13613081565b6020026020010151806020019051810190611f2e919061329f565b6001600160a01b03811660009081526008602052604090206002015490915015611f6b57604051633e43a9bf60e21b815260040160405180910390fd5b6000611f778287611bfd565b9050600181516002811115611f8e57611f8e612f7b565b14611fb2578051604051632b44da8d60e11b815261064591906001906004016132bc565b610a5c82876040518060400160405280600280811115611fd457611fd4612f7b565b815260208681015191015261270e565b6001600160a01b038116600090815260016020526040902054151580611623576040516366ecbd6d60e01b815260040160405180910390fd5b82516001600160a01b038516600090815260016020819052604090912001541561205a5760405163b3af559360e01b815260040160405180910390fd5b8082111561207b576040516342012dad60e01b815260040160405180910390fd5b8160000361209c57604051637a0920b360e11b815260040160405180910390fd5b60005b8181101561226a5760008582815181106120bb576120bb613081565b6020026020010151905060008583815181106120d9576120d9613081565b6020908102919091018101516001600160a01b03808b1660009081528084526040808220928716825291909352808320815180830190925280549294509091829060ff16600281111561212e5761212e612f7b565b600281111561213f5761213f612f7b565b81526001919091015460209091015290506001600160a01b038316158061216e57506001600160a01b03831630145b1561218c576040516306c2041560e21b815260040160405180910390fd5b6001815160028111156121a1576121a1612f7b565b036121bf57604051632868fdcd60e11b815260040160405180910390fd5b6002815160028111156121d4576121d4612f7b565b036121f257604051637270b0a760e11b815260040160405180910390fd5b60408051808201909152806001815260209081018490526001600160a01b03808c1660009081528083526040808220928816825291909252902081518154829060ff1916600183600281111561224a5761224a612f7b565b02179055506020919091015160019182015593909301925061209f915050565b5060408051808201825291825260208083019384526001600160a01b039096166000908152600196879052209051815590519301929092555050565b6001600160a01b03818116600090815260036020526040812054909116156122e157604051631a17e0ef60e11b815260040160405180910390fd5b6000306040516122f0906128f6565b6001600160a01b039091168152602001604051809103906000f08015801561231c573d6000803e3d6000fd5b506001600160a01b0380821660008181526002602090815260408083208054959099166001600160a01b03199586168117909955978252600390529590952080549091169094179093555090919050565b6001600160a01b0382166000908152600160205260409020548111156123a6576040516342012dad60e01b815260040160405180910390fd5b806000036123c757604051637a0920b360e11b815260040160405180910390fd5b6001600160a01b03821660009081526001602081905260409182902001829055517f610f7ff2b304ae8903c3de74c60c6ab1f7d6226b3f52c5161905bb5ad4039c93906124179083815260200190565b60405180910390a15050565b60006124308383306128bf565b9392505050565b6001600160a01b03841661245e5760405163a6c1146b60e01b815260040160405180910390fd5b821561247d57604051635abe71c960e01b815260040160405180910390fd5b815160031461249f576040516335d0eb9b60e21b815260040160405180910390fd5b6000826000815181106124b4576124b4613081565b60200260200101518060200190518101906124cf919061329f565b90506000836001815181106124e6576124e6613081565b6020026020010151806020019051810190612501919061329f565b905060008460028151811061251857612518613081565b6020026020010151806020019051810190612533919061329f565b905060006125418489611bfd565b905060028151600281111561255857612558612f7b565b1461257c578051604051632b44da8d60e11b815261064591906002906004016132bc565b6001600160a01b0383166125a357604051632a52b3c360e11b815260040160405180910390fd5b6001600160a01b0382166125ca57604051637f26311160e01b815260040160405180910390fd5b600060086000866001600160a01b03166001600160a01b031681526020019081526020016000209050816020015181600201600082825461260b91906132d7565b909155506000905061261c86610acf565b60200151905080826002015410612702576001600160a01b03861660009081526007602052604081205461265090426132d7565b6001600160a01b0388166000908152600760205260408120600101549192509061267a90426132d7565b828555600185018190556003850180546001600160a01b038a81166001600160a01b0319928316179092556004870180548a841692169190911790556040518481529192508916907f8a9bdbd6fa6536bd7e02875d089a0604de2d92780294abc78536d93fd6c95b7c9060200160405180910390a24282036126ff576126ff88611c91565b50505b50505050505050505050565b6001600160a01b038316158061272c57506001600160a01b03831630145b1561274a5760405163200db56f60e11b815260040160405180910390fd5b6001600160a01b038216158061276857506001600160a01b03821630145b15612786576040516306c2041560e21b815260040160405180910390fd5b6001600160a01b03808416600090815260208181526040808320938616835292905281812082518084019093528054919291829060ff1660028111156127ce576127ce612f7b565b60028111156127df576127df612f7b565b815260200160018201548152505090508060000151600281111561280557612805612f7b565b8251600281111561281857612818612f7b565b03612836576040516322d3302b60e21b815260040160405180910390fd5b60405180604001604052808360000151600281111561285757612857612f7b565b8152602084810151918101919091526001600160a01b0380871660009081528083526040808220928816825291909252902081518154829060ff191660018360028111156128a7576128a7612f7b565b02179055506020820151816001015590505050505050565b6000604051836040820152846020820152828152600b8101905060ff815360559020949350505050565b61040a806132eb83390190565b610ed0806136f583390190565b634e487b7160e01b600052604160045260246000fd5b604051610100810167ffffffffffffffff8111828210171561293d5761293d612903565b60405290565b6040516080810167ffffffffffffffff8111828210171561293d5761293d612903565b604051601f8201601f1916810167ffffffffffffffff8111828210171561298f5761298f612903565b604052919050565b600067ffffffffffffffff8211156129b1576129b1612903565b5060051b60200190565b600082601f8301126129cc57600080fd5b813567ffffffffffffffff8111156129e6576129e6612903565b6129f9601f8201601f1916602001612966565b818152846020838601011115612a0e57600080fd5b816020850160208301376000918101602001919091529392505050565b80358015158114612a3b57600080fd5b919050565b60006101008284031215612a5357600080fd5b612a5b612919565b9050813567ffffffffffffffff80821115612a7557600080fd5b612a81858386016129bb565b835260208401356020840152604084013560408401526060840135915080821115612aab57600080fd5b612ab7858386016129bb565b60608401526080840135608084015260a084013560a0840152612adc60c08501612a2b565b60c084015260e0840135915080821115612af557600080fd5b50612b02848285016129bb565b60e08301525092915050565b60008060408385031215612b2157600080fd5b823567ffffffffffffffff80821115612b3957600080fd5b9084019060808287031215612b4d57600080fd5b612b55612943565b8235815260208084013583811115612b6c57600080fd5b8401601f81018913612b7d57600080fd5b8035612b90612b8b82612997565b612966565b81815260059190911b8201830190838101908b831115612baf57600080fd5b8484015b83811015612be757803588811115612bcb5760008081fd5b612bd98e88838901016129bb565b845250918501918501612bb3565b508585015250505060408481013590830152606084013583811115612c0b57600080fd5b612c1789828701612a40565b6060840152509097950135955050505050565b6001600160a01b038116811461057057600080fd5b600060208284031215612c5157600080fd5b813561243081612c2a565b815181526020808301519082015260408101611925565b600060208284031215612c8557600080fd5b5035919050565b60005b83811015612ca7578181015183820152602001612c8f565b50506000910152565b60008151808452612cc8816020860160208601612c8c565b601f01601f19169290920160200192915050565b60008282518085526020808601955060208260051b8401016020860160005b84811015612d2957601f19868403018952612d17838351612cb0565b98840198925090830190600101612cfb565b5090979650505050505050565b600060208083016020845280855180835260408601915060408160051b87010192506020870160005b82811015612d8d57603f19888603018452612d7b858351612cdc565b94509285019290850190600101612d5f565b5092979650505050505050565b60008060408385031215612dad57600080fd5b8235612db881612c2a565b91506020830135612dc881612c2a565b809150509250929050565b600082601f830112612de457600080fd5b81356020612df4612b8b83612997565b8083825260208201915060208460051b870101935086841115612e1657600080fd5b602086015b84811015612e325780358352918301918301612e1b565b509695505050505050565b600080600080600060a08688031215612e5557600080fd5b853567ffffffffffffffff80821115612e6d57600080fd5b818801915088601f830112612e8157600080fd5b81356020612e91612b8b83612997565b82815260059290921b8401810191818101908c841115612eb057600080fd5b948201945b83861015612ed7578535612ec881612c2a565b82529482019490820190612eb5565b99505089013592505080821115612eed57600080fd5b50612efa88828901612dd3565b959895975050505060408401359360608101359360809091013592509050565b600080600060608486031215612f2f57600080fd5b8335612f3a81612c2a565b95602085013595506040909401359392505050565b60008060408385031215612f6257600080fd5b8235612f6d81612c2a565b946020939093013593505050565b634e487b7160e01b600052602160045260246000fd5b60038110612faf57634e487b7160e01b600052602160045260246000fd5b9052565b6000604082019050612fc6828451612f91565b602092830151919092015290565b6000808284036060811215612fe857600080fd5b8335612ff381612c2a565b92506040601f198201121561300757600080fd5b506040516040810181811067ffffffffffffffff8211171561302b5761302b612903565b60405260208401356003811061304057600080fd5b81526040939093013560208401525092909150565b6001600160a01b038316815260406020820181905260009061307990830184612cb0565b949350505050565b634e487b7160e01b600052603260045260246000fd5b8281526040602082015260006130796040830184612cdc565b600061010082518185526130c682860182612cb0565b9150506020830151602085015260408301516040850152606083015184820360608601526130f48282612cb0565b9150506080830151608085015260a083015160a085015260c0830151151560c085015260e083015184820360e086015261312e8282612cb0565b95945050505050565b6000602080835260a08301845182850152818501516080604086015281815180845260c08701915060c08160051b8801019350848301925060005b818110156131a05760bf1988860301835261318e858551612cb0565b94509285019291850191600101613172565b505050506040850151606085015260608501519150601f1984820301608085015261312e81836130b0565b6000602082840312156131dd57600080fd5b5051919050565b60ff929092168252606060208301819052600890830152675245434f5645525960c01b6080830152604082015260a00190565b634e487b7160e01b600052601160045260246000fd5b60006001820161323f5761323f613217565b5060010190565b60008351613258818460208801612c8c565b83519083019061326c818360208801612c8c565b01949350505050565b8181038181111561192557611925613217565b60008161329757613297613217565b506000190190565b6000602082840312156132b157600080fd5b815161243081612c2a565b604081016132ca8285612f91565b6124306020830184612f91565b808201808211156119255761192561321756fe608060405260405161040a38038061040a83398101604081905261002291610268565b61002c8282610033565b5050610352565b61003c82610092565b6040516001600160a01b038316907fbc7cd75a20ee27fd9adebab32041f755214dbc6bffa90cc0225b39da2e5c2d3b90600090a280511561008657610081828261010e565b505050565b61008e610185565b5050565b806001600160a01b03163b6000036100cd57604051634c9c8ce360e01b81526001600160a01b03821660048201526024015b60405180910390fd5b7f360894a13ba1a3210667c828492db98dca3e2076cc3735a920a3ca505d382bbc80546001600160a01b0319166001600160a01b0392909216919091179055565b6060600080846001600160a01b03168460405161012b9190610336565b600060405180830381855af49150503d8060008114610166576040519150601f19603f3d011682016040523d82523d6000602084013e61016b565b606091505b50909250905061017c8583836101a6565b95945050505050565b34156101a45760405163b398979f60e01b815260040160405180910390fd5b565b6060826101bb576101b682610205565b6101fe565b81511580156101d257506001600160a01b0384163b155b156101fb57604051639996b31560e01b81526001600160a01b03851660048201526024016100c4565b50805b9392505050565b8051156102155780518082602001fd5b604051630a12f52160e11b815260040160405180910390fd5b634e487b7160e01b600052604160045260246000fd5b60005b8381101561025f578181015183820152602001610247565b50506000910152565b6000806040838503121561027b57600080fd5b82516001600160a01b038116811461029257600080fd5b60208401519092506001600160401b03808211156102af57600080fd5b818501915085601f8301126102c357600080fd5b8151818111156102d5576102d561022e565b604051601f8201601f19908116603f011681019083821181831017156102fd576102fd61022e565b8160405282815288602084870101111561031657600080fd5b610327836020830160208801610244565b80955050505050509250929050565b60008251610348818460208701610244565b9190910192915050565b60aa806103606000396000f3fe6080604052600a600c565b005b60186014601a565b6051565b565b6000604c7f360894a13ba1a3210667c828492db98dca3e2076cc3735a920a3ca505d382bbc546001600160a01b031690565b905090565b3660008037600080366000845af43d6000803e808015606f573d6000f35b3d6000fdfea2646970667358221220af97b4ef897bb514a4368ec1b3978cd68f37ec9f525bdbc7e8f75700cd5bc18464736f6c6343000819003360a0604052348015600f57600080fd5b50604051610ed0380380610ed0833981016040819052602c91603c565b6001600160a01b0316608052606a565b600060208284031215604d57600080fd5b81516001600160a01b0381168114606357600080fd5b9392505050565b608051610dfe6100d26000396000818161016c015281816101c001528181610231015281816102cf0152818161034d015281816103d501528181610435015281816104930152818161051f0152818161056f015281816105e601526106590152610dfe6000f3fe608060405234801561001057600080fd5b50600436106100b45760003560e01c80636b0c717e116100715780636b0c717e146101395780636da995151461014157806381520782146101545780638d33886a14610167578063b62016921461018e578063b68126fa1461019657600080fd5b80630481af67146100b95780632b7ac3f3146100ce57806332ccc2f2146100f35780633e91cdcd14610114578063400ad5ce146101295780635bafadda14610131575b600080fd5b6100cc6100c73660046108a9565b6101a9565b005b6100d661022d565b6040516001600160a01b0390911681526020015b60405180910390f35b6101066101013660046109c0565b6102b6565b6040519081526020016100ea565b61011c610349565b6040516100ea9190610a29565b6100d66103d1565b61011c610431565b6100cc610491565b61010661014f3660046109c0565b610506565b6100d66101623660046109c0565b610556565b6100d67f000000000000000000000000000000000000000000000000000000000000000081565b6100d66105e2565b6100cc6101a43660046108a9565b610642565b604051630481af6760e01b81526001600160a01b037f00000000000000000000000000000000000000000000000000000000000000001690630481af67906101f79085908590600401610b56565b600060405180830381600087803b15801561021157600080fd5b505af1158015610225573d6000803e3d6000fd5b505050505050565b60007f00000000000000000000000000000000000000000000000000000000000000006001600160a01b0316632b7ac3f36040518163ffffffff1660e01b8152600401602060405180830381865afa15801561028d573d6000803e3d6000fd5b505050506040513d601f19601f820116820180604052508101906102b19190610bfd565b905090565b604051631966617960e11b8152600481018290526000907f00000000000000000000000000000000000000000000000000000000000000006001600160a01b0316906332ccc2f2906024015b602060405180830381865afa15801561031f573d6000803e3d6000fd5b505050506040513d601f19601f820116820180604052508101906103439190610c2d565b92915050565b60607f00000000000000000000000000000000000000000000000000000000000000006001600160a01b0316633e91cdcd6040518163ffffffff1660e01b8152600401600060405180830381865afa1580156103a9573d6000803e3d6000fd5b505050506040513d6000823e601f3d908101601f191682016040526102b19190810190610c46565b60007f00000000000000000000000000000000000000000000000000000000000000006001600160a01b031663400ad5ce6040518163ffffffff1660e01b8152600401602060405180830381865afa15801561028d573d6000803e3d6000fd5b60607f00000000000000000000000000000000000000000000000000000000000000006001600160a01b0316635bafadda6040518163ffffffff1660e01b8152600401600060405180830381865afa1580156103a9573d6000803e3d6000fd5b7f00000000000000000000000000000000000000000000000000000000000000006001600160a01b0316636b0c717e6040518163ffffffff1660e01b8152600401600060405180830381600087803b1580156104ec57600080fd5b505af1158015610500573d6000803e3d6000fd5b50505050565b604051636da9951560e01b8152600481018290526000907f00000000000000000000000000000000000000000000000000000000000000006001600160a01b031690636da9951590602401610302565b6040516340a903c160e11b8152600481018290526000907f00000000000000000000000000000000000000000000000000000000000000006001600160a01b031690638152078290602401602060405180830381865afa1580156105be573d6000803e3d6000fd5b505050506040513d601f19601f820116820180604052508101906103439190610bfd565b60007f00000000000000000000000000000000000000000000000000000000000000006001600160a01b031663b62016926040518163ffffffff1660e01b8152600401602060405180830381865afa15801561028d573d6000803e3d6000fd5b604051635b40937d60e11b81526001600160a01b037f0000000000000000000000000000000000000000000000000000000000000000169063b68126fa906101f79085908590600401610b56565b634e487b7160e01b600052604160045260246000fd5b604051610100810167ffffffffffffffff811182821017156106ca576106ca610690565b60405290565b6040516080810167ffffffffffffffff811182821017156106ca576106ca610690565b604051601f8201601f1916810167ffffffffffffffff8111828210171561071c5761071c610690565b604052919050565b600067ffffffffffffffff82111561073e5761073e610690565b5060051b60200190565b600067ffffffffffffffff82111561076257610762610690565b50601f01601f191660200190565b600082601f83011261078157600080fd5b813561079461078f82610748565b6106f3565b8181528460208386010111156107a957600080fd5b816020850160208301376000918101602001919091529392505050565b803580151581146107d657600080fd5b919050565b600061010082840312156107ee57600080fd5b6107f66106a6565b9050813567ffffffffffffffff8082111561081057600080fd5b61081c85838601610770565b83526020840135602084015260408401356040840152606084013591508082111561084657600080fd5b61085285838601610770565b60608401526080840135608084015260a084013560a084015261087760c085016107c6565b60c084015260e084013591508082111561089057600080fd5b5061089d84828501610770565b60e08301525092915050565b600080604083850312156108bc57600080fd5b823567ffffffffffffffff808211156108d457600080fd5b90840190608082870312156108e857600080fd5b6108f06106d0565b823581526020808401358381111561090757600080fd5b8401601f8101891361091857600080fd5b803561092661078f82610724565b81815260059190911b8201830190838101908b83111561094557600080fd5b8484015b8381101561097d578035888111156109615760008081fd5b61096f8e8883890101610770565b845250918501918501610949565b5085850152505050604084810135908301526060840135838111156109a157600080fd5b6109ad898287016107db565b6060840152509097950135955050505050565b6000602082840312156109d257600080fd5b5035919050565b60005b838110156109f45781810151838201526020016109dc565b50506000910152565b60008151808452610a158160208601602086016109d9565b601f01601f19169290920160200192915050565b600060208083018184528085518083526040860191506005925060408160051b8701018488016000805b84811015610ac057898403603f19018652825180518086529089019089860190808a1b87018b01855b82811015610aaa57601f19898303018452610a988286516109fd565b948d0194938d01939150600101610a7c565b50988b0198965050509288019250600101610a53565b50919998505050505050505050565b60006101008251818552610ae5828601826109fd565b915050602083015160208501526040830151604085015260608301518482036060860152610b1382826109fd565b9150506080830151608085015260a083015160a085015260c0830151151560c085015260e083015184820360e0860152610b4d82826109fd565b95945050505050565b60408152600060c08201845160408401526020808601516080606086015282815180855260e08701915060e08160051b880101945060208301925060005b81811015610bc25760df19888703018352610bb08685516109fd565b95509284019291840191600101610b94565b5050505060408601516080850152506060850151838203603f190160a0850152610bec8282610acf565b925050508260208301529392505050565b600060208284031215610c0f57600080fd5b81516001600160a01b0381168114610c2657600080fd5b9392505050565b600060208284031215610c3f57600080fd5b5051919050565b600060208284031215610c5857600080fd5b815167ffffffffffffffff811115610c6f57600080fd5b83601f8285010112610c8057600080fd5b80830151610c9061078f82610724565b8082825260208201915060208360051b8588010101925086831115610cb457600080fd5b6020848701015b83811015610dbd57805167ffffffffffffffff811115610cda57600080fd5b87860101603f81018913610ced57600080fd5b6020810151610cfe61078f82610724565b808282526020820191508b60408460051b8601011115610d1d57600080fd5b604084015b60408460051b860101811015610da757805167ffffffffffffffff811115610d4957600080fd5b8d605f8288010112610d5a57600080fd5b60408187010151610d6d61078f82610748565b8181528f606083858b0101011115610d8457600080fd5b610d9782602083016060868c01016109d9565b8552505060209283019201610d22565b5086525050602093840193919091019050610cbb565b50969550505050505056fea26469706673582212202120ffa3b4218693b39c693d4a17369f842e947aee66d4b153697a2fb53ec03164736f6c63430008190033a264697066735822122087c1ef3855983660f9801b8aab42f960966890db47506dc67f1192eb95d15e1964736f6c63430008190033","linkReferences":{}},"methodIdentifiers":{"acceptanceSubjectTemplates()":"5bafadda","addGuardianWithThreshold(address,uint256,uint256)":"7d87311c","cancelRecovery()":"0ba234d6","changeThreshold(uint256)":"694e80c3","completeRecovery()":"6b0c717e","completeRecovery(address)":"f480dd7e","computeAcceptanceTemplateId(uint256)":"32ccc2f2","computeEmailAuthAddress(bytes32)":"81520782","computeRecoveryTemplateId(uint256)":"6da99515","configureRecovery(address[],uint256[],uint256,uint256,uint256)":"60bb9d5c","dkim()":"400ad5ce","dkimAddr()":"73357f85","emailAuthImplementation()":"b6201692","emailAuthImplementationAddr()":"1098e02e","getAccountForRouter(address)":"c31c5fec","getGuardian(address,address)":"da34a850","getGuardianConfig(address)":"0bb6094a","getRecoveryConfig(address)":"2788bbda","getRecoveryRequest(address)":"4f9a28b9","getRouterForAccount(address)":"822ee58f","handleAcceptance((uint256,bytes[],uint256,(string,bytes32,uint256,string,bytes32,bytes32,bool,bytes)),uint256)":"0481af67","handleRecovery((uint256,bytes[],uint256,(string,bytes32,uint256,string,bytes32,bytes32,bool,bytes)),uint256)":"b68126fa","isGuardian(address,address)":"d4ee9734","recoveryConfigs(address)":"7c8e804e","recoveryRequests(address)":"a1b097c5","recoverySubjectTemplates()":"3e91cdcd","removeGuardian(address,uint256)":"8d71a6f4","swapGuardian(address,address)":"56e074bb","updateGuardian(address,(uint8,uint256))":"e9259238","updateRecoveryDelay(uint256)":"d000e99c","verifier()":"2b7ac3f3","verifierAddr()":"663ea2e2"},"id":213}